:100000000C9462000C948A000C948A000C948A0070
:100010000C948A000C948A000C948A000C948A0038
:100020000C948A000C948A000C948A000C948A0028
:100030000C948A000C948A000C948A000C948A0018
:100040000C9494380C948A000C94EE390C948A0029
:100050000C948A000C948A000C948A000C948A00F8
:100060000C948A000C948A000000000024002700F1
:100070002A0000000000250028002B0000000000DE
:1000800023002600290004040404040404040202DA
:100090000202020203030303030301020408102007
:1000A0004080010204081020010204081020000012
:1000B0000007000201000003040600000000000029
:1000C00000008D3A11241FBECFEFD8E0DEBFCDBFB8
:1000D00011E0A0E0B1E0EAE2F6E702C005900D927F
:1000E000A43AB107D9F712E0A4EAB1E001C01D9229
:1000F000A434B107E1F710E0C4ECD0E004C02297CB
:10010000FE010E940F3BC23CD107C9F70E94C73ACB
:100110000C94133B0C940000CF92DF92EF92FF926D
:100120000F931F938DE061E00E94963968EE73E0B3
:1001300080E090E00E94DC388DE060E00E9496391B
:1001400068EE73E080E090E00E94DC3831E3E32E5B
:1001500032E0F32E00E011E0C701B8010E94053B38
:10016000C701B8010E94053BC701B8010E94053BC9
:10017000C701B8010E94053BC701B8010E94053BB9
:10018000C701B8010E94053BC701B8010E94053BA9
:10019000C701B8010E94053BC701B8010E94053B99
:1001A000C701B8010E94053BC701B8010E94053B89
:1001B000C701B8010E94053BC701B8010E94053B79
:1001C000C701B8010E94053BC701B8010E94053B69
:1001D000C701B8010E94053BC701B8010E94053B59
:1001E000C701B8010E94053BC701B8010E94053B49
:1001F000C701B8010E94053BC701B8010E94053B39
:10020000C701B8010E94053BC701B8010E94053B28
:10021000C701B8010E94053BC701B8010E94053B18
:10022000C701B8010E94053BC701B8010E94053B08
:10023000C701B8010E94053BC701B8010E94053BF8
:10024000C701B8010E94053BC701B8010E94053BE8
:10025000C701B8010E94053BC701B8010E94053BD8
:10026000C701B8010E94053BC701B8010E94053BC8
:10027000C701B8010E94053BC701B8010E94053BB8
:10028000C701B8010E94053BC701B8010E94053BA8
:10029000C701B8010E94053BC701B8010E94053B98
:1002A000C701B8010E94053BC701B8010E94053B88
:1002B000C701B8010E94053BC701B8010E94053B78
:1002C000C701B8010E94053BC701B8010E94053B68
:1002D000C701B8010E94053BC701B8010E94053B58
:1002E000C701B8010E94053BC701B8010E94053B48
:1002F000C701B8010E94053BC701B8010E94053B38
:10030000C701B8010E94053BC701B8010E94053B27
:10031000C701B8010E94053BC701B8010E94053B17
:10032000C701B8010E94053BC701B8010E94053B07
:10033000C701B8010E94053BC701B8010E94053BF7
:10034000C701B8010E94053BC701B8010E94053BE7
:10035000C701B8010E94053BC701B8010E94053BD7
:10036000C701B8010E94053BC701B8010E94053BC7
:10037000C701B8010E94053BC701B8010E94053BB7
:10038000C701B8010E94053BC701B8010E94053BA7
:10039000C701B8010E94053BC701B8010E94053B97
:1003A000C701B8010E94053BC701B8010E94053B87
:1003B000C701B8010E94053BC701B8010E94053B77
:1003C000C701B8010E94053BC701B8010E94053B67
:1003D000C701B8010E94053BC701B8010E94053B57
:1003E000C701B8010E94053BC701B8010E94053B47
:1003F000C701B8010E94053BC701B8010E94053B37
:10040000C701B8010E94053BC701B8010E94053B26
:10041000C701B8010E94053BC701B8010E94053B16
:10042000C701B8010E94053BC701B8010E94053B06
:10043000C701B8010E94053BC701B8010E94053BF6
:10044000C701B8010E94053BC701B8010E94053BE6
:10045000C701B8010E94053BC701B8010E94053BD6
:10046000C701B8010E94053BC701B8010E94053BC6
:10047000C701B8010E94053BC701B8010E94053BB6
:10048000C701B8010E94053BC701B8010E94053BA6
:10049000C701B8010E94053BC701B8010E94053B96
:1004A000C701B8010E94053BC701B8010E94053B86
:1004B000C701B8010E94053BC701B8010E94053B76
:1004C000C701B8010E94053BC701B8010E94053B66
:1004D000C701B8010E94053BC701B8010E94053B56
:1004E000C701B8010E94053BC701B8010E94053B46
:1004F000C701B8010E94053BC701B8010E94053B36
:10050000C701B8010E94053BC701B8010E94053B25
:10051000C701B8010E94053BC701B8010E94053B15
:10052000C701B8010E94053BC701B8010E94053B05
:10053000C701B8010E94053BC701B8010E94053BF5
:10054000C701B8010E94053BC701B8010E94053BE5
:10055000C701B8010E94053BC701B8010E94053BD5
:10056000C701B8010E94053BC701B8010E94053BC5
:10057000C701B8010E94053BC701B8010E94053BB5
:10058000C701B8010E94053BC701B8010E94053BA5
:10059000C701B8010E94053BC701B8010E94053B95
:1005A000C701B8010E94053BC701B8010E94053B85
:1005B000C701B8010E94053BC701B8010E94053B75
:1005C000C701B8010E94053BC701B8010E94053B65
:1005D000C701B8010E94053BC701B8010E94053B55
:1005E000C701B8010E94053BC701B8010E94053B45
:1005F000C701B8010E94053BC701B8010E94053B35
:10060000C701B8010E94053BC701B8010E94053B24
:10061000C701B8010E94053BC701B8010E94053B14
:10062000C701B8010E94053BC701B8010E94053B04
:10063000C701B8010E94053BC701B8010E94053BF4
:10064000C701B8010E94053BC701B8010E94053BE4
:10065000C701B8010E94053BC701B8010E94053BD4
:10066000C701B8010E94053BC701B8010E94053BC4
:10067000C701B8010E94053BC701B8010E94053BB4
:10068000C701B8010E94053BC701B8010E94053BA4
:10069000C701B8010E94053BC701B8010E94053B94
:1006A000C701B8010E94053BC701B8010E94053B84
:1006B000C701B8010E94053BC701B8010E94053B74
:1006C000C701B8010E94053BC701B8010E94053B64
:1006D000C701B8010E94053BC701B8010E94053B54
:1006E000C701B8010E94053BC701B8010E94053B44
:1006F000C701B8010E94053BC701B8010E94053B34
:10070000C701B8010E94053BC701B8010E94053B23
:10071000C701B8010E94053BC701B8010E94053B13
:10072000C701B8010E94053BC701B8010E94053B03
:10073000C701B8010E94053BC701B8010E94053BF3
:10074000C701B8010E94053BC701B8010E94053BE3
:10075000C701B8010E94053BC701B8010E94053BD3
:10076000C701B8010E94053BC701B8010E94053BC3
:10077000C701B8010E94053BC701B8010E94053BB3
:10078000C701B8010E94053BD02EC12EC701602FC2
:10079000712F0E94053B8E2D9F2D6D2D7C2D0E946B
:1007A000053B8E2D9F2D6D2D7C2D0E94053B8E2DA2
:1007B0009F2D6D2D7C2D0E94053B8E2D9F2D6D2D27
:1007C0007C2D0E94053B8E2D9F2D6D2D7C2D0E9432
:1007D000053B8E2D9F2D6D2D7C2D0E94053B8E2D72
:1007E0009F2D6D2D7C2D0E94053B8E2D9F2D6D2DF7
:1007F0007C2D0E94053B8E2D9F2D6D2D7C2D0E9402
:10080000053B8E2D9F2D6D2D7C2D0E94053B8E2D41
:100810009F2D6D2D7C2D0E94053B8E2D9F2D6D2DC6
:100820007C2D0E94053B8E2D9F2D6D2D7C2D0E94D1
:10083000053B8E2D9F2D6D2D7C2D0E94053B8E2D11
:100840009F2D6D2D7C2D0E94053B8E2D9F2D6D2D96
:100850007C2D0E94053B8E2D9F2D6D2D7C2D0E94A1
:10086000053B8E2D9F2D6D2D7C2D0E94053B8E2DE1
:100870009F2D6D2D7C2D0E94053B8E2D9F2D6D2D66
:100880007C2D0E94053B8E2D9F2D6D2D7C2D0E9471
:10089000053B8E2D9F2D6D2D7C2D0E94053B8E2DB1
:1008A0009F2D6D2D7C2D0E94053B8E2D9F2D6D2D36
:1008B0007C2D0E94053B8E2D9F2D6D2D7C2D0E9441
:1008C000053B8E2D9F2D6D2D7C2D0E94053B8E2D81
:1008D0009F2D6D2D7C2D0E94053B8E2D9F2D6D2D06
:1008E0007C2D0E94053B8E2D9F2D6D2D7C2D0E9411
:1008F000053B8E2D9F2D6D2D7C2D0E94053B8E2D51
:100900009F2D6D2D7C2D0E94053B8E2D9F2D6D2DD5
:100910007C2D0E94053B8E2D9F2D6D2D7C2D0E94E0
:10092000053B8E2D9F2D6D2D7C2D0E94053B8E2D20
:100930009F2D6D2D7C2D0E94053B8E2D9F2D6D2DA5
:100940007C2D0E94053B8E2D9F2D6D2D7C2D0E94B0
:10095000053B8E2D9F2D6D2D7C2D0E94053B8E2DF0
:100960009F2D6D2D7C2D0E94053B8E2D9F2D6D2D75
:100970007C2D0E94053B8E2D9F2D6D2D7C2D0E9480
:10098000053B8E2D9F2D6D2D7C2D0E94053B8E2DC0
:100990009F2D6D2D7C2D0E94053B8E2D9F2D6D2D45
:1009A0007C2D0E94053B8E2D9F2D6D2D7C2D0E9450
:1009B000053B8E2D9F2D6D2D7C2D0E94053B8E2D90
:1009C0009F2D6D2D7C2D0E94053B8E2D9F2D6D2D15
:1009D0007C2D0E94053B8E2D9F2D6D2D7C2D0E9420
:1009E000053B8E2D9F2D6D2D7C2D0E94053B8E2D60
:1009F0009F2D6D2D7C2D0E94053B8E2D9F2D6D2DE5
:100A00007C2D0E94053B8E2D9F2D6D2D7C2D0E94EF
:100A1000053B8E2D9F2D6D2D7C2D0E94053B8E2D2F
:100A20009F2D6D2D7C2D0E94053B8E2D9F2D6D2DB4
:100A30007C2D0E94053B8E2D9F2D6D2D7C2D0E94BF
:100A4000053B8E2D9F2D6D2D7C2D0E94053B8E2DFF
:100A50009F2D6D2D7C2D0E94053B8E2D9F2D6D2D84
:100A60007C2D0E94053B8E2D9F2D6D2D7C2D0E948F
:100A7000053B8E2D9F2D6D2D7C2D0E94053B8E2DCF
:100A80009F2D6D2D7C2D0E94053B8E2D9F2D6D2D54
:100A90007C2D0E94053B8E2D9F2D6D2D7C2D0E945F
:100AA000053B8E2D9F2D6D2D7C2D0E94053B8E2D9F
:100AB0009F2D6D2D7C2D0E94053B8E2D9F2D6D2D24
:100AC0007C2D0E94053B8E2D9F2D6D2D7C2D0E942F
:100AD000053B8E2D9F2D6D2D7C2D0E94053B8E2D6F
:100AE0009F2D6D2D7C2D0E94053B8E2D9F2D6D2DF4
:100AF0007C2D0E94053B8E2D9F2D6D2D7C2D0E94FF
:100B0000053B8E2D9F2D6D2D7C2D0E94053B8E2D3E
:100B10009F2D6D2D7C2D0E94053B8E2D9F2D6D2DC3
:100B20007C2D0E94053B8E2D9F2D6D2D7C2D0E94CE
:100B3000053B8E2D9F2D6D2D7C2D0E94053B8E2D0E
:100B40009F2D6D2D7C2D0E94053B8E2D9F2D6D2D93
:100B50007C2D0E94053B8E2D9F2D6D2D7C2D0E949E
:100B6000053B8E2D9F2D6D2D7C2D0E94053B8E2DDE
:100B70009F2D6D2D7C2D0E94053B8E2D9F2D6D2D63
:100B80007C2D0E94053B8E2D9F2D6D2D7C2D0E946E
:100B9000053B8E2D9F2D6D2D7C2D0E94053B8E2DAE
:100BA0009F2D6D2D7C2D0E94053B8E2D9F2D6D2D33
:100BB0007C2D0E94053B8E2D9F2D6D2D7C2D0E943E
:100BC000053B8E2D9F2D6D2D7C2D0E94053B8E2D7E
:100BD0009F2D6D2D7C2D0E94053B8E2D9F2D6D2D03
:100BE0007C2D0E94053B8E2D9F2D6D2D7C2D0E940E
:100BF000053B8E2D9F2D6D2D7C2D0E94053B8E2D4E
:100C00009F2D6D2D7C2D0E94053B8E2D9F2D6D2DD2
:100C10007C2D0E94053B8E2D9F2D6D2D7C2D0E94DD
:100C2000053B8E2D9F2D6D2D7C2D0E94053B8E2D1D
:100C30009F2D6D2D7C2D0E94053B8E2D9F2D6D2DA2
:100C40007C2D0E94053B8E2D9F2D6D2D7C2D0E94AD
:100C5000053B8E2D9F2D6D2D7C2D0E94053B8E2DED
:100C60009F2D6D2D7C2D0E94053B8E2D9F2D6D2D72
:100C70007C2D0E94053B8E2D9F2D6D2D7C2D0E947D
:100C8000053B8E2D9F2D6D2D7C2D0E94053B8E2DBD
:100C90009F2D6D2D7C2D0E94053B8E2D9F2D6D2D42
:100CA0007C2D0E94053B8E2D9F2D6D2D7C2D0E944D
:100CB000053B8E2D9F2D6D2D7C2D0E94053B8E2D8D
:100CC0009F2D6D2D7C2D0E94053B8E2D9F2D6D2D12
:100CD0007C2D0E94053B8E2D9F2D6D2D7C2D0E941D
:100CE000053B8E2D9F2D6D2D7C2D0E94053B8E2D5D
:100CF0009F2D6D2D7C2D0E94053B8E2D9F2D6D2DE2
:100D00007C2D0E94053B8E2D9F2D6D2D7C2D0E94EC
:100D1000053B8E2D9F2D6D2D7C2D0E94053B8E2D2C
:100D20009F2D6D2D7C2D0E94053B8E2D9F2D6D2DB1
:100D30007C2D0E94053B8E2D9F2D6D2D7C2D0E94BC
:100D4000053B8E2D9F2D6D2D7C2D0E94053B8E2DFC
:100D50009F2D6D2D7C2D0E94053B8E2D9F2D6D2D81
:100D60007C2D0E94053B8E2D9F2D6D2D7C2D0E948C
:100D7000053B8E2D9F2D6D2D7C2D0E94053B8E2DCC
:100D80009F2D6D2D7C2D0E94053B8E2D9F2D6D2D51
:100D90007C2D0E94053B8E2D9F2D6D2D7C2D0E945C
:100DA000053B8E2D9F2D6D2D7C2D0E94053B8E2D9C
:100DB0009F2D6D2D7C2D0E94053B8E2D9F2D6D2D21
:100DC0007C2D0E94053B8E2D9F2D6D2D7C2D0E942C
:100DD000053B8E2D9F2D6D2D7C2D0E94053B8E2D6C
:100DE0009F2D6D2D7C2D0E94053B8E2D9F2D6D2DF1
:100DF0007C2D0E94053B8E2D9F2D6D2D7C2D0E94FC
:100E0000053B8E2D9F2D6D2D7C2D0E94053B8E2D3B
:100E10009F2D6D2D7C2D0E94053B8E2D9F2D6D2DC0
:100E20007C2D0E94053B8E2D9F2D6D2D7C2D0E94CB
:100E3000053B8E2D9F2D6D2D7C2D0E94053B8E2D0B
:100E40009F2D6D2D7C2D0E94053B8E2D9F2D6D2D90
:100E50007C2D0E94053B8E2D9F2D6D2D7C2D0E949B
:100E6000053B8E2D9F2D6D2D7C2D0E94053B8E2DDB
:100E70009F2D6D2D7C2D0E94053B8E2D9F2D6D2D60
:100E80007C2D0E94053B8E2D9F2D6D2D7C2D0E946B
:100E9000053B8E2D9F2D6D2D7C2D0E94053B8E2DAB
:100EA0009F2D6D2D7C2D0E94053B8E2D9F2D6D2D30
:100EB0007C2D0E94053B8E2D9F2D6D2D7C2D0E943B
:100EC000053B8E2D9F2D6D2D7C2D0E94053B8E2D7B
:100ED0009F2D6D2D7C2D0E94053B8E2D9F2D6D2D00
:100EE0007C2D0E94053B8E2D9F2D6D2D7C2D0E940B
:100EF000053B8E2D9F2D6D2D7C2D0E94053B8E2D4B
:100F00009F2D6D2D7C2D0E94053B8E2D9F2D6D2DCF
:100F10007C2D0E94053B8E2D9F2D6D2D7C2D0E94DA
:100F2000053B8E2D9F2D6D2D7C2D0E94053B8E2D1A
:100F30009F2D6D2D7C2D0E94053B8E2D9F2D6D2D9F
:100F40007C2D0E94053B8E2D9F2D6D2D7C2D0E94AA
:100F5000053B8E2D9F2D6D2D7C2D0E94053B8E2DEA
:100F60009F2D6D2D7C2D0E94053B8E2D9F2D6D2D6F
:100F70007C2D0E94053B8E2D9F2D6D2D7C2D0E947A
:100F8000053B8E2D9F2D6D2D7C2D0E94053B8E2DBA
:100F90009F2D6D2D7C2D0E94053B8E2D9F2D6D2D3F
:100FA0007C2D0E94053B8E2D9F2D6D2D7C2D0E944A
:100FB000053B8E2D9F2D6D2D7C2D0E94053B8E2D8A
:100FC0009F2D6D2D7C2D0E94053B8E2D9F2D6D2D0F
:100FD0007C2D0E94053B8E2D9F2D6D2D7C2D0E941A
:100FE000053B8E2D9F2D6D2D7C2D0E94053B8E2D5A
:100FF0009F2D6D2D7C2D0E94053B8E2D9F2D6D2DDF
:101000007C2D0E94053B8E2D9F2D6D2D7C2D0E94E9
:10101000053B8E2D9F2D6D2D7C2D0E94053B8E2D29
:101020009F2D6D2D7C2D0E94053B8E2D9F2D6D2DAE
:101030007C2D0E94053B8E2D9F2D6D2D7C2D0E94B9
:10104000053B8E2D9F2D6D2D7C2D0E94053B8E2DF9
:101050009F2D6D2D7C2D0E94053B8E2D9F2D6D2D7E
:101060007C2D0E94053B8E2D9F2D6D2D7C2D0E9489
:10107000053B8E2D9F2D6D2D7C2D0E94053B8E2DC9
:101080009F2D6D2D7C2D0E94053B8E2D9F2D6D2D4E
:101090007C2D0E94053B8E2D9F2D6D2D7C2D0E9459
:1010A000053B8E2D9F2D6D2D7C2D0E94053B8E2D99
:1010B0009F2D6D2D7C2D0E94053B8E2D9F2D6D2D1E
:1010C0007C2D0E94053B8E2D9F2D6D2D7C2D0E9429
:1010D000053B8E2D9F2D6D2D7C2D0E94053B8E2D69
:1010E0009F2D6D2D7C2D0E94053B8E2D9F2D6D2DEE
:1010F0007C2D0E94053B870120E0E22E21E0F22EAC
:10110000C801B7010E94053BC801B7010E94053B19
:10111000C801B7010E94053BC801B7010E94053B09
:10112000C801B7010E94053BC801B7010E94053BF9
:10113000C801B7010E94053BC801B7010E94053BE9
:10114000C801B7010E94053BC801B7010E94053BD9
:10115000C801B7010E94053BC801B7010E94053BC9
:10116000C801B7010E94053BC801B7010E94053BB9
:10117000C801B7010E94053BC801B7010E94053BA9
:10118000C801B7010E94053BC801B7010E94053B99
:10119000C801B7010E94053BC801B7010E94053B89
:1011A000C801B7010E94053BC801B7010E94053B79
:1011B000C801B7010E94053BC801B7010E94053B69
:1011C000C801B7010E94053BC801B7010E94053B59
:1011D000C801B7010E94053BC801B7010E94053B49
:1011E000C801B7010E94053BC801B7010E94053B39
:1011F000C801B7010E94053BC801B7010E94053B29
:10120000C801B7010E94053BC801B7010E94053B18
:10121000C801B7010E94053BC801B7010E94053B08
:10122000C801B7010E94053BC801B7010E94053BF8
:10123000C801B7010E94053BC801B7010E94053BE8
:10124000C801B7010E94053BC801B7010E94053BD8
:10125000C801B7010E94053BC801B7010E94053BC8
:10126000C801B7010E94053BC801B7010E94053BB8
:10127000C801B7010E94053BC801B7010E94053BA8
:10128000C801B7010E94053BC801B7010E94053B98
:10129000C801B7010E94053BC801B7010E94053B88
:1012A000C801B7010E94053BC801B7010E94053B78
:1012B000C801B7010E94053BC801B7010E94053B68
:1012C000C801B7010E94053BC801B7010E94053B58
:1012D000C801B7010E94053BC801B7010E94053B48
:1012E000C801B7010E94053BC801B7010E94053B38
:1012F000C801B7010E94053BC801B7010E94053B28
:10130000C801B7010E94053BC801B7010E94053B17
:10131000C801B7010E94053BC801B7010E94053B07
:10132000C801B7010E94053BC801B7010E94053BF7
:10133000C801B7010E94053BC801B7010E94053BE7
:10134000C801B7010E94053BC801B7010E94053BD7
:10135000C801B7010E94053BC801B7010E94053BC7
:10136000C801B7010E94053BC801B7010E94053BB7
:10137000C801B7010E94053BC801B7010E94053BA7
:10138000C801B7010E94053BC801B7010E94053B97
:10139000C801B7010E94053BC801B7010E94053B87
:1013A000C801B7010E94053BC801B7010E94053B77
:1013B000C801B7010E94053BC801B7010E94053B67
:1013C000C801B7010E94053BC801B7010E94053B57
:1013D000C801B7010E94053BC801B7010E94053B47
:1013E000C801B7010E94053BC801B7010E94053B37
:1013F000C801B7010E94053BC801B7010E94053B27
:10140000C801B7010E94053BC801B7010E94053B16
:10141000C801B7010E94053BC801B7010E94053B06
:10142000C801B7010E94053BC801B7010E94053BF6
:10143000C801B7010E94053BC801B7010E94053BE6
:10144000C801B7010E94053BC801B7010E94053BD6
:10145000C801B7010E94053BC801B7010E94053BC6
:10146000C801B7010E94053BC801B7010E94053BB6
:10147000C801B7010E94053BC801B7010E94053BA6
:10148000C801B7010E94053BC801B7010E94053B96
:10149000C801B7010E94053BC801B7010E94053B86
:1014A000C801B7010E94053BC801B7010E94053B76
:1014B000C801B7010E94053BC801B7010E94053B66
:1014C000C801B7010E94053BC801B7010E94053B56
:1014D000C801B7010E94053BC801B7010E94053B46
:1014E000C801B7010E94053BC801B7010E94053B36
:1014F000C801B7010E94053BC801B7010E94053B26
:10150000C801B7010E94053BC801B7010E94053B15
:10151000C801B7010E94053BC801B7010E94053B05
:10152000C801B7010E94053BC801B7010E94053BF5
:10153000C801B7010E94053BC801B7010E94053BE5
:10154000C801B7010E94053BC801B7010E94053BD5
:10155000C801B7010E94053BC801B7010E94053BC5
:10156000C801B7010E94053BC801B7010E94053BB5
:10157000C801B7010E94053BC801B7010E94053BA5
:10158000C801B7010E94053BC801B7010E94053B95
:10159000C801B7010E94053BC801B7010E94053B85
:1015A000C801B7010E94053BC801B7010E94053B75
:1015B000C801B7010E94053BC801B7010E94053B65
:1015C000C801B7010E94053BC801B7010E94053B55
:1015D000C801B7010E94053BC801B7010E94053B45
:1015E000C801B7010E94053BC801B7010E94053B35
:1015F000C801B7010E94053BC801B7010E94053B25
:10160000C801B7010E94053BC801B7010E94053B14
:10161000C801B7010E94053BC801B7010E94053B04
:10162000C801B7010E94053BC801B7010E94053BF4
:10163000C801B7010E94053BC801B7010E94053BE4
:10164000C801B7010E94053BC801B7010E94053BD4
:10165000C801B7010E94053BC801B7010E94053BC4
:10166000C801B7010E94053BC801B7010E94053BB4
:10167000C801B7010E94053BC801B7010E94053BA4
:10168000C801B7010E94053BC801B7010E94053B94
:10169000C801B7010E94053BC801B7010E94053B84
:1016A000C801B7010E94053BC801B7010E94053B74
:1016B000C801B7010E94053BC801B7010E94053B64
:1016C000C801B7010E94053BC801B7010E94053B54
:1016D000C801B7010E94053BC801B7010E94053B44
:1016E000C801B7010E94053BC801B7010E94053B34
:1016F000C801B7010E94053BC801B7010E94053B24
:10170000C801B7010E94053BC801B7010E94053B13
:10171000C801B7010E94053BC801B7010E94053B03
:10172000C801B7010E94053BC801B7010E94053BF3
:10173000C801B7010E94053BC801B7010E94053BE3
:10174000D02EC12E8D2D9C2D6E2D7F2D0E94053B00
:101750008D2D9C2D6E2D7F2D0E94053B8D2D9C2D5A
:101760006E2D7F2D0E94053B8D2D9C2D6E2D7F2D86
:101770000E94053B8D2D9C2D6E2D7F2D0E94053BDB
:101780008D2D9C2D6E2D7F2D0E94053B8D2D9C2D2A
:101790006E2D7F2D0E94053B8D2D9C2D6E2D7F2D56
:1017A0000E94053B8D2D9C2D6E2D7F2D0E94053BAB
:1017B0008D2D9C2D6E2D7F2D0E94053B8D2D9C2DFA
:1017C0006E2D7F2D0E94053B8D2D9C2D6E2D7F2D26
:1017D0000E94053B8D2D9C2D6E2D7F2D0E94053B7B
:1017E0008D2D9C2D6E2D7F2D0E94053B8D2D9C2DCA
:1017F0006E2D7F2D0E94053B8D2D9C2D6E2D7F2DF6
:101800000E94053B8D2D9C2D6E2D7F2D0E94053B4A
:101810008D2D9C2D6E2D7F2D0E94053B8D2D9C2D99
:101820006E2D7F2D0E94053B8D2D9C2D6E2D7F2DC5
:101830000E94053B8D2D9C2D6E2D7F2D0E94053B1A
:101840008D2D9C2D6E2D7F2D0E94053B8D2D9C2D69
:101850006E2D7F2D0E94053B8D2D9C2D6E2D7F2D95
:101860000E94053B8D2D9C2D6E2D7F2D0E94053BEA
:101870008D2D9C2D6E2D7F2D0E94053B8D2D9C2D39
:101880006E2D7F2D0E94053B8D2D9C2D6E2D7F2D65
:101890000E94053B8D2D9C2D6E2D7F2D0E94053BBA
:1018A0008D2D9C2D6E2D7F2D0E94053B8D2D9C2D09
:1018B0006E2D7F2D0E94053B8D2D9C2D6E2D7F2D35
:1018C0000E94053B8D2D9C2D6E2D7F2D0E94053B8A
:1018D0008D2D9C2D6E2D7F2D0E94053B8D2D9C2DD9
:1018E0006E2D7F2D0E94053B8D2D9C2D6E2D7F2D05
:1018F0000E94053B8D2D9C2D6E2D7F2D0E94053B5A
:101900008D2D9C2D6E2D7F2D0E94053B8D2D9C2DA8
:101910006E2D7F2D0E94053B8D2D9C2D6E2D7F2DD4
:101920000E94053B8D2D9C2D6E2D7F2D0E94053B29
:101930008D2D9C2D6E2D7F2D0E94053B8D2D9C2D78
:101940006E2D7F2D0E94053B8D2D9C2D6E2D7F2DA4
:101950000E94053B8D2D9C2D6E2D7F2D0E94053BF9
:101960008D2D9C2D6E2D7F2D0E94053B8D2D9C2D48
:101970006E2D7F2D0E94053B8D2D9C2D6E2D7F2D74
:101980000E94053B8D2D9C2D6E2D7F2D0E94053BC9
:101990008D2D9C2D6E2D7F2D0E94053B8D2D9C2D18
:1019A0006E2D7F2D0E94053B8D2D9C2D6E2D7F2D44
:1019B0000E94053B8D2D9C2D6E2D7F2D0E94053B99
:1019C0008D2D9C2D6E2D7F2D0E94053B8D2D9C2DE8
:1019D0006E2D7F2D0E94053B8D2D9C2D6E2D7F2D14
:1019E0000E94053B8D2D9C2D6E2D7F2D0E94053B69
:1019F0008D2D9C2D6E2D7F2D0E94053B8D2D9C2DB8
:101A00006E2D7F2D0E94053B8D2D9C2D6E2D7F2DE3
:101A10000E94053B8D2D9C2D6E2D7F2D0E94053B38
:101A20008D2D9C2D6E2D7F2D0E94053B8D2D9C2D87
:101A30006E2D7F2D0E94053B8D2D9C2D6E2D7F2DB3
:101A40000E94053B8D2D9C2D6E2D7F2D0E94053B08
:101A50008D2D9C2D6E2D7F2D0E94053B8D2D9C2D57
:101A60006E2D7F2D0E94053B8D2D9C2D6E2D7F2D83
:101A70000E94053B8D2D9C2D6E2D7F2D0E94053BD8
:101A80008D2D9C2D6E2D7F2D0E94053B8D2D9C2D27
:101A90006E2D7F2D0E94053B8D2D9C2D6E2D7F2D53
:101AA0000E94053B8D2D9C2D6E2D7F2D0E94053BA8
:101AB0008D2D9C2D6E2D7F2D0E94053B8D2D9C2DF7
:101AC0006E2D7F2D0E94053B8D2D9C2D6E2D7F2D23
:101AD0000E94053B8D2D9C2D6E2D7F2D0E94053B78
:101AE0008D2D9C2D6E2D7F2D0E94053B8D2D9C2DC7
:101AF0006E2D7F2D0E94053B8D2D9C2D6E2D7F2DF3
:101B00000E94053B8D2D9C2D6E2D7F2D0E94053B47
:101B10008D2D9C2D6E2D7F2D0E94053B8D2D9C2D96
:101B20006E2D7F2D0E94053B8D2D9C2D6E2D7F2DC2
:101B30000E94053B8D2D9C2D6E2D7F2D0E94053B17
:101B40008D2D9C2D6E2D7F2D0E94053B8D2D9C2D66
:101B50006E2D7F2D0E94053B8D2D9C2D6E2D7F2D92
:101B60000E94053B8D2D9C2D6E2D7F2D0E94053BE7
:101B70008D2D9C2D6E2D7F2D0E94053B8D2D9C2D36
:101B80006E2D7F2D0E94053B8D2D9C2D6E2D7F2D62
:101B90000E94053B8D2D9C2D6E2D7F2D0E94053BB7
:101BA0008D2D9C2D6E2D7F2D0E94053B8D2D9C2D06
:101BB0006E2D7F2D0E94053B8D2D9C2D6E2D7F2D32
:101BC0000E94053B8D2D9C2D6E2D7F2D0E94053B87
:101BD0008D2D9C2D6E2D7F2D0E94053B8D2D9C2DD6
:101BE0006E2D7F2D0E94053B8D2D9C2D6E2D7F2D02
:101BF0000E94053B8D2D9C2D6E2D7F2D0E94053B57
:101C00008D2D9C2D6E2D7F2D0E94053B8D2D9C2DA5
:101C10006E2D7F2D0E94053B8D2D9C2D6E2D7F2DD1
:101C20000E94053B8D2D9C2D6E2D7F2D0E94053B26
:101C30008D2D9C2D6E2D7F2D0E94053B8D2D9C2D75
:101C40006E2D7F2D0E94053B8D2D9C2D6E2D7F2DA1
:101C50000E94053B8D2D9C2D6E2D7F2D0E94053BF6
:101C60008D2D9C2D6E2D7F2D0E94053B8D2D9C2D45
:101C70006E2D7F2D0E94053B8D2D9C2D6E2D7F2D71
:101C80000E94053B8D2D9C2D6E2D7F2D0E94053BC6
:101C90008D2D9C2D6E2D7F2D0E94053B8D2D9C2D15
:101CA0006E2D7F2D0E94053B8D2D9C2D6E2D7F2D41
:101CB0000E94053B8D2D9C2D6E2D7F2D0E94053B96
:101CC0008D2D9C2D6E2D7F2D0E94053B8D2D9C2DE5
:101CD0006E2D7F2D0E94053B8D2D9C2D6E2D7F2D11
:101CE0000E94053B8D2D9C2D6E2D7F2D0E94053B66
:101CF0008D2D9C2D6E2D7F2D0E94053B8D2D9C2DB5
:101D00006E2D7F2D0E94053B8D2D9C2D6E2D7F2DE0
:101D10000E94053B8D2D9C2D6E2D7F2D0E94053B35
:101D20008D2D9C2D6E2D7F2D0E94053B8D2D9C2D84
:101D30006E2D7F2D0E94053B8D2D9C2D6E2D7F2DB0
:101D40000E94053B8D2D9C2D6E2D7F2D0E94053B05
:101D50008D2D9C2D6E2D7F2D0E94053B8D2D9C2D54
:101D60006E2D7F2D0E94053B8D2D9C2D6E2D7F2D80
:101D70000E94053B8D2D9C2D6E2D7F2D0E94053BD5
:101D80008D2D9C2D6E2D7F2D0E94053B8D2D9C2D24
:101D90006E2D7F2D0E94053B8D2D9C2D6E2D7F2D50
:101DA0000E94053B8D2D9C2D6E2D7F2D0E94053BA5
:101DB0008D2D9C2D6E2D7F2D0E94053B8D2D9C2DF4
:101DC0006E2D7F2D0E94053B8D2D9C2D6E2D7F2D20
:101DD0000E94053B8D2D9C2D6E2D7F2D0E94053B75
:101DE0008D2D9C2D6E2D7F2D0E94053B8D2D9C2DC4
:101DF0006E2D7F2D0E94053B8D2D9C2D6E2D7F2DF0
:101E00000E94053B8D2D9C2D6E2D7F2D0E94053B44
:101E10008D2D9C2D6E2D7F2D0E94053B8D2D9C2D93
:101E20006E2D7F2D0E94053B8D2D9C2D6E2D7F2DBF
:101E30000E94053B8D2D9C2D6E2D7F2D0E94053B14
:101E40008D2D9C2D6E2D7F2D0E94053B8D2D9C2D63
:101E50006E2D7F2D0E94053B8D2D9C2D6E2D7F2D8F
:101E60000E94053B8D2D9C2D6E2D7F2D0E94053BE4
:101E70008D2D9C2D6E2D7F2D0E94053B8D2D9C2D33
:101E80006E2D7F2D0E94053B8D2D9C2D6E2D7F2D5F
:101E90000E94053B8D2D9C2D6E2D7F2D0E94053BB4
:101EA0008D2D9C2D6E2D7F2D0E94053B8D2D9C2D03
:101EB0006E2D7F2D0E94053B8D2D9C2D6E2D7F2D2F
:101EC0000E94053B8D2D9C2D6E2D7F2D0E94053B84
:101ED0008D2D9C2D6E2D7F2D0E94053B8D2D9C2DD3
:101EE0006E2D7F2D0E94053B8D2D9C2D6E2D7F2DFF
:101EF0000E94053B8D2D9C2D6E2D7F2D0E94053B54
:101F00008D2D9C2D6E2D7F2D0E94053B8D2D9C2DA2
:101F10006E2D7F2D0E94053B8D2D9C2D6E2D7F2DCE
:101F20000E94053B8D2D9C2D6E2D7F2D0E94053B23
:101F30008D2D9C2D6E2D7F2D0E94053B8D2D9C2D72
:101F40006E2D7F2D0E94053B8D2D9C2D6E2D7F2D9E
:101F50000E94053B8D2D9C2D6E2D7F2D0E94053BF3
:101F60008D2D9C2D6E2D7F2D0E94053B8D2D9C2D42
:101F70006E2D7F2D0E94053B8D2D9C2D6E2D7F2D6E
:101F80000E94053B8D2D9C2D6E2D7F2D0E94053BC3
:101F90008D2D9C2D6E2D7F2D0E94053B8D2D9C2D12
:101FA0006E2D7F2D0E94053B8D2D9C2D6E2D7F2D3E
:101FB0000E94053B8D2D9C2D6E2D7F2D0E94053B93
:101FC0008D2D9C2D6E2D7F2D0E94053B8D2D9C2DE2
:101FD0006E2D7F2D0E94053B8D2D9C2D6E2D7F2D0E
:101FE0000E94053B8D2D9C2D6E2D7F2D0E94053B63
:101FF0008D2D9C2D6E2D7F2D0E94053B8D2D9C2DB2
:102000006E2D7F2D0E94053B8D2D9C2D6E2D7F2DDD
:102010000E94053B8D2D9C2D6E2D7F2D0E94053B32
:102020008D2D9C2D6E2D7F2D0E94053B8D2D9C2D81
:102030006E2D7F2D0E94053B8D2D9C2D6E2D7F2DAD
:102040000E94053B8D2D9C2D6E2D7F2D0E94053B02
:102050008D2D9C2D6E2D7F2D0E94053B8D2D9C2D51
:102060006E2D7F2D0E94053B8D2D9C2D6E2D7F2D7D
:102070000E94053B8D2D9C2D6E2D7F2D0E94053BD2
:102080008D2D9C2D6E2D7F2D0E94053B8D2D9C2D21
:102090006E2D7F2D0E94053B8D2D9C2D6E2D7F2D4D
:1020A0000E94053B8D2D9C2D6E2D7F2D0E94053BA2
:1020B00001E312E0C801B7010E94053BC801B70166
:1020C0000E94053BC801B7010E94053BC801B7014A
:1020D0000E94053BC801B7010E94053BC801B7013A
:1020E0000E94053BC801B7010E94053BC801B7012A
:1020F0000E94053BC801B7010E94053BC801B7011A
:102100000E94053BC801B7010E94053BC801B70109
:102110000E94053BC801B7010E94053BC801B701F9
:102120000E94053BC801B7010E94053BC801B701E9
:102130000E94053BC801B7010E94053BC801B701D9
:102140000E94053BC801B7010E94053BC801B701C9
:102150000E94053BC801B7010E94053BC801B701B9
:102160000E94053BC801B7010E94053BC801B701A9
:102170000E94053BC801B7010E94053BC801B70199
:102180000E94053BC801B7010E94053BC801B70189
:102190000E94053BC801B7010E94053BC801B70179
:1021A0000E94053BC801B7010E94053BC801B70169
:1021B0000E94053BC801B7010E94053BC801B70159
:1021C0000E94053BC801B7010E94053BC801B70149
:1021D0000E94053BC801B7010E94053BC801B70139
:1021E0000E94053BC801B7010E94053BC801B70129
:1021F0000E94053BC801B7010E94053BC801B70119
:102200000E94053BC801B7010E94053BC801B70108
:102210000E94053BC801B7010E94053BC801B701F8
:102220000E94053BC801B7010E94053BC801B701E8
:102230000E94053BC801B7010E94053BC801B701D8
:102240000E94053BC801B7010E94053BC801B701C8
:102250000E94053BC801B7010E94053BC801B701B8
:102260000E94053BC801B7010E94053BC801B701A8
:102270000E94053BC801B7010E94053BC801B70198
:102280000E94053BC801B7010E94053BC801B70188
:102290000E94053BC801B7010E94053BC801B70178
:1022A0000E94053BC801B7010E94053BC801B70168
:1022B0000E94053BC801B7010E94053BC801B70158
:1022C0000E94053BC801B7010E94053BC801B70148
:1022D0000E94053BC801B7010E94053BC801B70138
:1022E0000E94053BC801B7010E94053BC801B70128
:1022F0000E94053BC801B7010E94053BC801B70118
:102300000E94053BC801B7010E94053BC801B70107
:102310000E94053BC801B7010E94053BC801B701F7
:102320000E94053BC801B7010E94053BC801B701E7
:102330000E94053BC801B7010E94053BC801B701D7
:102340000E94053BC801B7010E94053BC801B701C7
:102350000E94053BC801B7010E94053BC801B701B7
:102360000E94053BC801B7010E94053BC801B701A7
:102370000E94053BC801B7010E94053BC801B70197
:102380000E94053BC801B7010E94053BC801B70187
:102390000E94053BC801B7010E94053BC801B70177
:1023A0000E94053BC801B7010E94053BC801B70167
:1023B0000E94053BC801B7010E94053BC801B70157
:1023C0000E94053BC801B7010E94053BC801B70147
:1023D0000E94053BC801B7010E94053BC801B70137
:1023E0000E94053BC801B7010E94053BC801B70127
:1023F0000E94053BC801B7010E94053BC801B70117
:102400000E94053BC801B7010E94053BC801B70106
:102410000E94053BC801B7010E94053BC801B701F6
:102420000E94053BC801B7010E94053BC801B701E6
:102430000E94053BC801B7010E94053BC801B701D6
:102440000E94053BC801B7010E94053BC801B701C6
:102450000E94053BC801B7010E94053BC801B701B6
:102460000E94053BC801B7010E94053BC801B701A6
:102470000E94053BC801B7010E94053BC801B70196
:102480000E94053BC801B7010E94053BC801B70186
:102490000E94053BC801B7010E94053BC801B70176
:1024A0000E94053BC801B7010E94053BC801B70166
:1024B0000E94053BC801B7010E94053BC801B70156
:1024C0000E94053BC801B7010E94053BC801B70146
:1024D0000E94053BC801B7010E94053BC801B70136
:1024E0000E94053BC801B7010E94053BC801B70126
:1024F0000E94053BC801B7010E94053BC801B70116
:102500000E94053BC801B7010E94053BC801B70105
:102510000E94053BC801B7010E94053BC801B701F5
:102520000E94053BC801B7010E94053BC801B701E5
:102530000E94053BC801B7010E94053BC801B701D5
:102540000E94053BC801B7010E94053BC801B701C5
:102550000E94053BC801B7010E94053BC801B701B5
:102560000E94053BC801B7010E94053BC801B701A5
:102570000E94053BC801B7010E94053BC801B70195
:102580000E94053BC801B7010E94053BC801B70185
:102590000E94053BC801B7010E94053BC801B70175
:1025A0000E94053BC801B7010E94053BC801B70165
:1025B0000E94053BC801B7010E94053BC801B70155
:1025C0000E94053BC801B7010E94053BC801B70145
:1025D0000E94053BC801B7010E94053BC801B70135
:1025E0000E94053BC801B7010E94053BC801B70125
:1025F0000E94053BC801B7010E94053BC801B70115
:102600000E94053BC801B7010E94053BC801B70104
:102610000E94053BC801B7010E94053BC801B701F4
:102620000E94053BC801B7010E94053BC801B701E4
:102630000E94053BC801B7010E94053BC801B701D4
:102640000E94053BC801B7010E94053BC801B701C4
:102650000E94053BC801B7010E94053BC801B701B4
:102660000E94053BC801B7010E94053BC801B701A4
:102670000E94053BC801B7010E94053BC801B70194
:102680000E94053BC801B7010E94053BC801B70184
:102690000E94053BC801B7010E94053BC801B70174
:1026A0000E94053BC801B7010E94053BC801B70164
:1026B0000E94053BC801B7010E94053BC801B70154
:1026C0000E94053BC801B7010E94053BC801B70144
:1026D0000E94053BC801B7010E94053BC801B70134
:1026E0000E94053BC801B7010E94053BC801B70124
:1026F0000E94053B780100E011E0C701B8010E948B
:10270000053BC701B8010E94053BC701B8010E9403
:10271000053BC701B8010E94053BC701B8010E94F3
:10272000053BC701B8010E94053BC701B8010E94E3
:10273000053BC701B8010E94053BC701B8010E94D3
:10274000053BC701B8010E94053BC701B8010E94C3
:10275000053BC701B8010E94053BC701B8010E94B3
:10276000053BC701B8010E94053BC701B8010E94A3
:10277000053BC701B8010E94053BC701B8010E9493
:10278000053BC701B8010E94053BC701B8010E9483
:10279000053BC701B8010E94053BC701B8010E9473
:1027A000053BC701B8010E94053BC701B8010E9463
:1027B000053BC701B8010E94053BC701B8010E9453
:1027C000053BC701B8010E94053BC701B8010E9443
:1027D000053BC701B8010E94053BC701B8010E9433
:1027E000053BC701B8010E94053BC701B8010E9423
:1027F000053BC701B8010E94053BC701B8010E9413
:10280000053BC701B8010E94053BC701B8010E9402
:10281000053BC701B8010E94053BC701B8010E94F2
:10282000053BC701B8010E94053BC701B8010E94E2
:10283000053BC701B8010E94053BC701B8010E94D2
:10284000053BC701B8010E94053BC701B8010E94C2
:10285000053BC701B8010E94053BC701B8010E94B2
:10286000053BC701B8010E94053BC701B8010E94A2
:10287000053BC701B8010E94053BC701B8010E9492
:10288000053BC701B8010E94053BC701B8010E9482
:10289000053BC701B8010E94053BC701B8010E9472
:1028A000053BC701B8010E94053BC701B8010E9462
:1028B000053BC701B8010E94053BC701B8010E9452
:1028C000053BC701B8010E94053BC701B8010E9442
:1028D000053BC701B8010E94053BC701B8010E9432
:1028E000053BC701B8010E94053BC701B8010E9422
:1028F000053BC701B8010E94053BC701B8010E9412
:10290000053BC701B8010E94053BC701B8010E9401
:10291000053BC701B8010E94053BC701B8010E94F1
:10292000053BC701B8010E94053BC701B8010E94E1
:10293000053BC701B8010E94053BC701B8010E94D1
:10294000053BC701B8010E94053BC701B8010E94C1
:10295000053BC701B8010E94053BC701B8010E94B1
:10296000053BC701B8010E94053BC701B8010E94A1
:10297000053BC701B8010E94053BC701B8010E9491
:10298000053BC701B8010E94053BC701B8010E9481
:10299000053BC701B8010E94053BC701B8010E9471
:1029A000053BC701B8010E94053BC701B8010E9461
:1029B000053BC701B8010E94053BC701B8010E9451
:1029C000053BC701B8010E94053BC701B8010E9441
:1029D000053BC701B8010E94053BC701B8010E9431
:1029E000053BC701B8010E94053BC701B8010E9421
:1029F000053BC701B8010E94053BC701B8010E9411
:102A0000053BC701B8010E94053BC701B8010E9400
:102A1000053BC701B8010E94053BC701B8010E94F0
:102A2000053BC701B8010E94053BC701B8010E94E0
:102A3000053BC701B8010E94053BC701B8010E94D0
:102A4000053BC701B8010E94053BC701B8010E94C0
:102A5000053BC701B8010E94053BC701B8010E94B0
:102A6000053BC701B8010E94053BC701B8010E94A0
:102A7000053BC701B8010E94053BC701B8010E9490
:102A8000053BC701B8010E94053BC701B8010E9480
:102A9000053BC701B8010E94053BC701B8010E9470
:102AA000053BC701B8010E94053BC701B8010E9460
:102AB000053BC701B8010E94053BC701B8010E9450
:102AC000053BC701B8010E94053BC701B8010E9440
:102AD000053BC701B8010E94053BC701B8010E9430
:102AE000053BC701B8010E94053BC701B8010E9420
:102AF000053BC701B8010E94053BC701B8010E9410
:102B0000053BC701B8010E94053BC701B8010E94FF
:102B1000053BC701B8010E94053BC701B8010E94EF
:102B2000053BC701B8010E94053BC701B8010E94DF
:102B3000053BC701B8010E94053BC701B8010E94CF
:102B4000053BC701B8010E94053BC701B8010E94BF
:102B5000053BC701B8010E94053BC701B8010E94AF
:102B6000053BC701B8010E94053BC701B8010E949F
:102B7000053BC701B8010E94053BC701B8010E948F
:102B8000053BC701B8010E94053BC701B8010E947F
:102B9000053BC701B8010E94053BC701B8010E946F
:102BA000053BC701B8010E94053BC701B8010E945F
:102BB000053BC701B8010E94053BC701B8010E944F
:102BC000053BC701B8010E94053BC701B8010E943F
:102BD000053BC701B8010E94053BC701B8010E942F
:102BE000053BC701B8010E94053BC701B8010E941F
:102BF000053BC701B8010E94053BC701B8010E940F
:102C0000053BC701B8010E94053BC701B8010E94FE
:102C1000053BC701B8010E94053BC701B8010E94EE
:102C2000053BC701B8010E94053BC701B8010E94DE
:102C3000053BC701B8010E94053BC701B8010E94CE
:102C4000053BC701B8010E94053BC701B8010E94BE
:102C5000053BC701B8010E94053BC701B8010E94AE
:102C6000053BC701B8010E94053BC701B8010E949E
:102C7000053BC701B8010E94053BC701B8010E948E
:102C8000053BC701B8010E94053BC701B8010E947E
:102C9000053BC701B8010E94053BC701B8010E946E
:102CA000053BC701B8010E94053BC701B8010E945E
:102CB000053BC701B8010E94053BC701B8010E944E
:102CC000053BC701B8010E94053BC701B8010E943E
:102CD000053BC701B8010E94053BC701B8010E942E
:102CE000053BC701B8010E94053BC701B8010E941E
:102CF000053BC701B8010E94053BC701B8010E940E
:102D0000053BC701B8010E94053BC701B8010E94FD
:102D1000053BC701B8010E94053BC701B8010E94ED
:102D2000053BC701B8010E94053BC701B8010E94DD
:102D3000053BC701B8010E94053BD02EC12EC7013B
:102D4000602F712F0E94053B8E2D9F2D6D2D7C2DA8
:102D50000E94053B8E2D9F2D6D2D7C2D0E94053BE5
:102D60008E2D9F2D6D2D7C2D0E94053B8E2D9F2D30
:102D70006D2D7C2D0E94053B8E2D9F2D6D2D7C2D64
:102D80000E94053B8E2D9F2D6D2D7C2D0E94053BB5
:102D90008E2D9F2D6D2D7C2D0E94053B8E2D9F2D00
:102DA0006D2D7C2D0E94053B8E2D9F2D6D2D7C2D34
:102DB0000E94053B8E2D9F2D6D2D7C2D0E94053B85
:102DC0008E2D9F2D6D2D7C2D0E94053B8E2D9F2DD0
:102DD0006D2D7C2D0E94053B8E2D9F2D6D2D7C2D04
:102DE0000E94053B8E2D9F2D6D2D7C2D0E94053B55
:102DF0008E2D9F2D6D2D7C2D0E94053B8E2D9F2DA0
:102E00006D2D7C2D0E94053B8E2D9F2D6D2D7C2DD3
:102E10000E94053B8E2D9F2D6D2D7C2D0E94053B24
:102E20008E2D9F2D6D2D7C2D0E94053B8E2D9F2D6F
:102E30006D2D7C2D0E94053B8E2D9F2D6D2D7C2DA3
:102E40000E94053B8E2D9F2D6D2D7C2D0E94053BF4
:102E50008E2D9F2D6D2D7C2D0E94053B8E2D9F2D3F
:102E60006D2D7C2D0E94053B8E2D9F2D6D2D7C2D73
:102E70000E94053B8E2D9F2D6D2D7C2D0E94053BC4
:102E80008E2D9F2D6D2D7C2D0E94053B8E2D9F2D0F
:102E90006D2D7C2D0E94053B8E2D9F2D6D2D7C2D43
:102EA0000E94053B8E2D9F2D6D2D7C2D0E94053B94
:102EB0008E2D9F2D6D2D7C2D0E94053B8E2D9F2DDF
:102EC0006D2D7C2D0E94053B8E2D9F2D6D2D7C2D13
:102ED0000E94053B8E2D9F2D6D2D7C2D0E94053B64
:102EE0008E2D9F2D6D2D7C2D0E94053B8E2D9F2DAF
:102EF0006D2D7C2D0E94053B8E2D9F2D6D2D7C2DE3
:102F00000E94053B8E2D9F2D6D2D7C2D0E94053B33
:102F10008E2D9F2D6D2D7C2D0E94053B8E2D9F2D7E
:102F20006D2D7C2D0E94053B8E2D9F2D6D2D7C2DB2
:102F30000E94053B8E2D9F2D6D2D7C2D0E94053B03
:102F40008E2D9F2D6D2D7C2D0E94053B8E2D9F2D4E
:102F50006D2D7C2D0E94053B8E2D9F2D6D2D7C2D82
:102F60000E94053B8E2D9F2D6D2D7C2D0E94053BD3
:102F70008E2D9F2D6D2D7C2D0E94053B8E2D9F2D1E
:102F80006D2D7C2D0E94053B8E2D9F2D6D2D7C2D52
:102F90000E94053B8E2D9F2D6D2D7C2D0E94053BA3
:102FA0008E2D9F2D6D2D7C2D0E94053B8E2D9F2DEE
:102FB0006D2D7C2D0E94053B8E2D9F2D6D2D7C2D22
:102FC0000E94053B8E2D9F2D6D2D7C2D0E94053B73
:102FD0008E2D9F2D6D2D7C2D0E94053B8E2D9F2DBE
:102FE0006D2D7C2D0E94053B8E2D9F2D6D2D7C2DF2
:102FF0000E94053B8E2D9F2D6D2D7C2D0E94053B43
:103000008E2D9F2D6D2D7C2D0E94053B8E2D9F2D8D
:103010006D2D7C2D0E94053B8E2D9F2D6D2D7C2DC1
:103020000E94053B8E2D9F2D6D2D7C2D0E94053B12
:103030008E2D9F2D6D2D7C2D0E94053B8E2D9F2D5D
:103040006D2D7C2D0E94053B8E2D9F2D6D2D7C2D91
:103050000E94053B8E2D9F2D6D2D7C2D0E94053BE2
:103060008E2D9F2D6D2D7C2D0E94053B8E2D9F2D2D
:103070006D2D7C2D0E94053B8E2D9F2D6D2D7C2D61
:103080000E94053B8E2D9F2D6D2D7C2D0E94053BB2
:103090008E2D9F2D6D2D7C2D0E94053B8E2D9F2DFD
:1030A0006D2D7C2D0E94053B8E2D9F2D6D2D7C2D31
:1030B0000E94053B8E2D9F2D6D2D7C2D0E94053B82
:1030C0008E2D9F2D6D2D7C2D0E94053B8E2D9F2DCD
:1030D0006D2D7C2D0E94053B8E2D9F2D6D2D7C2D01
:1030E0000E94053B8E2D9F2D6D2D7C2D0E94053B52
:1030F0008E2D9F2D6D2D7C2D0E94053B8E2D9F2D9D
:103100006D2D7C2D0E94053B8E2D9F2D6D2D7C2DD0
:103110000E94053B8E2D9F2D6D2D7C2D0E94053B21
:103120008E2D9F2D6D2D7C2D0E94053B8E2D9F2D6C
:103130006D2D7C2D0E94053B8E2D9F2D6D2D7C2DA0
:103140000E94053B8E2D9F2D6D2D7C2D0E94053BF1
:103150008E2D9F2D6D2D7C2D0E94053B8E2D9F2D3C
:103160006D2D7C2D0E94053B8E2D9F2D6D2D7C2D70
:103170000E94053B8E2D9F2D6D2D7C2D0E94053BC1
:103180008E2D9F2D6D2D7C2D0E94053B8E2D9F2D0C
:103190006D2D7C2D0E94053B8E2D9F2D6D2D7C2D40
:1031A0000E94053B8E2D9F2D6D2D7C2D0E94053B91
:1031B0008E2D9F2D6D2D7C2D0E94053B8E2D9F2DDC
:1031C0006D2D7C2D0E94053B8E2D9F2D6D2D7C2D10
:1031D0000E94053B8E2D9F2D6D2D7C2D0E94053B61
:1031E0008E2D9F2D6D2D7C2D0E94053B8E2D9F2DAC
:1031F0006D2D7C2D0E94053B8E2D9F2D6D2D7C2DE0
:103200000E94053B8E2D9F2D6D2D7C2D0E94053B30
:103210008E2D9F2D6D2D7C2D0E94053B8E2D9F2D7B
:103220006D2D7C2D0E94053B8E2D9F2D6D2D7C2DAF
:103230000E94053B8E2D9F2D6D2D7C2D0E94053B00
:103240008E2D9F2D6D2D7C2D0E94053B8E2D9F2D4B
:103250006D2D7C2D0E94053B8E2D9F2D6D2D7C2D7F
:103260000E94053B8E2D9F2D6D2D7C2D0E94053BD0
:103270008E2D9F2D6D2D7C2D0E94053B8E2D9F2D1B
:103280006D2D7C2D0E94053B8E2D9F2D6D2D7C2D4F
:103290000E94053B8E2D9F2D6D2D7C2D0E94053BA0
:1032A0008E2D9F2D6D2D7C2D0E94053B8E2D9F2DEB
:1032B0006D2D7C2D0E94053B8E2D9F2D6D2D7C2D1F
:1032C0000E94053B8E2D9F2D6D2D7C2D0E94053B70
:1032D0008E2D9F2D6D2D7C2D0E94053B8E2D9F2DBB
:1032E0006D2D7C2D0E94053B8E2D9F2D6D2D7C2DEF
:1032F0000E94053B8E2D9F2D6D2D7C2D0E94053B40
:103300008E2D9F2D6D2D7C2D0E94053B8E2D9F2D8A
:103310006D2D7C2D0E94053B8E2D9F2D6D2D7C2DBE
:103320000E94053B8E2D9F2D6D2D7C2D0E94053B0F
:103330008E2D9F2D6D2D7C2D0E94053B8E2D9F2D5A
:103340006D2D7C2D0E94053B8E2D9F2D6D2D7C2D8E
:103350000E94053B8E2D9F2D6D2D7C2D0E94053BDF
:103360008E2D9F2D6D2D7C2D0E94053B8E2D9F2D2A
:103370006D2D7C2D0E94053B8E2D9F2D6D2D7C2D5E
:103380000E94053B8E2D9F2D6D2D7C2D0E94053BAF
:103390008E2D9F2D6D2D7C2D0E94053B8E2D9F2DFA
:1033A0006D2D7C2D0E94053B8E2D9F2D6D2D7C2D2E
:1033B0000E94053B8E2D9F2D6D2D7C2D0E94053B7F
:1033C0008E2D9F2D6D2D7C2D0E94053B8E2D9F2DCA
:1033D0006D2D7C2D0E94053B8E2D9F2D6D2D7C2DFE
:1033E0000E94053B8E2D9F2D6D2D7C2D0E94053B4F
:1033F0008E2D9F2D6D2D7C2D0E94053B8E2D9F2D9A
:103400006D2D7C2D0E94053B8E2D9F2D6D2D7C2DCD
:103410000E94053B8E2D9F2D6D2D7C2D0E94053B1E
:103420008E2D9F2D6D2D7C2D0E94053B8E2D9F2D69
:103430006D2D7C2D0E94053B8E2D9F2D6D2D7C2D9D
:103440000E94053B8E2D9F2D6D2D7C2D0E94053BEE
:103450008E2D9F2D6D2D7C2D0E94053B8E2D9F2D39
:103460006D2D7C2D0E94053B8E2D9F2D6D2D7C2D6D
:103470000E94053B8E2D9F2D6D2D7C2D0E94053BBE
:103480008E2D9F2D6D2D7C2D0E94053B8E2D9F2D09
:103490006D2D7C2D0E94053B8E2D9F2D6D2D7C2D3D
:1034A0000E94053B8E2D9F2D6D2D7C2D0E94053B8E
:1034B0008E2D9F2D6D2D7C2D0E94053B8E2D9F2DD9
:1034C0006D2D7C2D0E94053B8E2D9F2D6D2D7C2D0D
:1034D0000E94053B8E2D9F2D6D2D7C2D0E94053B5E
:1034E0008E2D9F2D6D2D7C2D0E94053B8E2D9F2DA9
:1034F0006D2D7C2D0E94053B8E2D9F2D6D2D7C2DDD
:103500000E94053B8E2D9F2D6D2D7C2D0E94053B2D
:103510008E2D9F2D6D2D7C2D0E94053B8E2D9F2D78
:103520006D2D7C2D0E94053B8E2D9F2D6D2D7C2DAC
:103530000E94053B8E2D9F2D6D2D7C2D0E94053BFD
:103540008E2D9F2D6D2D7C2D0E94053B8E2D9F2D48
:103550006D2D7C2D0E94053B8E2D9F2D6D2D7C2D7C
:103560000E94053B8E2D9F2D6D2D7C2D0E94053BCD
:103570008E2D9F2D6D2D7C2D0E94053B8E2D9F2D18
:103580006D2D7C2D0E94053B8E2D9F2D6D2D7C2D4C
:103590000E94053B8E2D9F2D6D2D7C2D0E94053B9D
:1035A0008E2D9F2D6D2D7C2D0E94053B8E2D9F2DE8
:1035B0006D2D7C2D0E94053B8E2D9F2D6D2D7C2D1C
:1035C0000E94053B8E2D9F2D6D2D7C2D0E94053B6D
:1035D0008E2D9F2D6D2D7C2D0E94053B8E2D9F2DB8
:1035E0006D2D7C2D0E94053B8E2D9F2D6D2D7C2DEC
:1035F0000E94053B8E2D9F2D6D2D7C2D0E94053B3D
:103600008E2D9F2D6D2D7C2D0E94053B8E2D9F2D87
:103610006D2D7C2D0E94053B8E2D9F2D6D2D7C2DBB
:103620000E94053B8E2D9F2D6D2D7C2D0E94053B0C
:103630008E2D9F2D6D2D7C2D0E94053B8E2D9F2D57
:103640006D2D7C2D0E94053B8E2D9F2D6D2D7C2D8B
:103650000E94053B8E2D9F2D6D2D7C2D0E94053BDC
:103660008E2D9F2D6D2D7C2D0E94053B8E2D9F2D27
:103670006D2D7C2D0E94053B8E2D9F2D6D2D7C2D5B
:103680000E94053B8E2D9F2D6D2D7C2D0E94053BAC
:103690008E2D9F2D6D2D7C2D0E94053B8E2D9F2DF7
:1036A0006D2D7C2D0E94053B870190E0E92E91E075
:1036B000F92EC801B7010E94053BC801B7010E945D
:1036C000053BC801B7010E94053BC801B7010E9434
:1036D000053BC801B7010E94053BC801B7010E9424
:1036E000053BC801B7010E94053BC801B7010E9414
:1036F000053BC801B7010E94053BC801B7010E9404
:10370000053BC801B7010E94053BC801B7010E94F3
:10371000053BC801B7010E94053BC801B7010E94E3
:10372000053BC801B7010E94053BC801B7010E94D3
:10373000053BC801B7010E94053BC801B7010E94C3
:10374000053BC801B7010E94053BC801B7010E94B3
:10375000053BC801B7010E94053BC801B7010E94A3
:10376000053BC801B7010E94053BC801B7010E9493
:10377000053BC801B7010E94053BC801B7010E9483
:10378000053BC801B7010E94053BC801B7010E9473
:10379000053BC801B7010E94053BC801B7010E9463
:1037A000053BC801B7010E94053BC801B7010E9453
:1037B000053BC801B7010E94053BC801B7010E9443
:1037C000053BC801B7010E94053BC801B7010E9433
:1037D000053BC801B7010E94053BC801B7010E9423
:1037E000053BC801B7010E94053BC801B7010E9413
:1037F000053BC801B7010E94053BC801B7010E9403
:10380000053BC801B7010E94053BC801B7010E94F2
:10381000053BC801B7010E94053BC801B7010E94E2
:10382000053BC801B7010E94053BC801B7010E94D2
:10383000053BC801B7010E94053BC801B7010E94C2
:10384000053BC801B7010E94053BC801B7010E94B2
:10385000053BC801B7010E94053BC801B7010E94A2
:10386000053BC801B7010E94053BC801B7010E9492
:10387000053BC801B7010E94053BC801B7010E9482
:10388000053BC801B7010E94053BC801B7010E9472
:10389000053BC801B7010E94053BC801B7010E9462
:1038A000053BC801B7010E94053BC801B7010E9452
:1038B000053BC801B7010E94053BC801B7010E9442
:1038C000053BC801B7010E94053BC801B7010E9432
:1038D000053BC801B7010E94053BC801B7010E9422
:1038E000053BC801B7010E94053BC801B7010E9412
:1038F000053BC801B7010E94053BC801B7010E9402
:10390000053BC801B7010E94053BC801B7010E94F1
:10391000053BC801B7010E94053BC801B7010E94E1
:10392000053BC801B7010E94053BC801B7010E94D1
:10393000053BC801B7010E94053BC801B7010E94C1
:10394000053BC801B7010E94053BC801B7010E94B1
:10395000053BC801B7010E94053BC801B7010E94A1
:10396000053BC801B7010E94053BC801B7010E9491
:10397000053BC801B7010E94053BC801B7010E9481
:10398000053BC801B7010E94053BC801B7010E9471
:10399000053BC801B7010E94053BC801B7010E9461
:1039A000053BC801B7010E94053BC801B7010E9451
:1039B000053BC801B7010E94053BC801B7010E9441
:1039C000053BC801B7010E94053BC801B7010E9431
:1039D000053BC801B7010E94053BC801B7010E9421
:1039E000053BC801B7010E94053BC801B7010E9411
:1039F000053BC801B7010E94053BC801B7010E9401
:103A0000053BC801B7010E94053BC801B7010E94F0
:103A1000053BC801B7010E94053BC801B7010E94E0
:103A2000053BC801B7010E94053BC801B7010E94D0
:103A3000053BC801B7010E94053BC801B7010E94C0
:103A4000053BC801B7010E94053BC801B7010E94B0
:103A5000053BC801B7010E94053BC801B7010E94A0
:103A6000053BC801B7010E94053BC801B7010E9490
:103A7000053BC801B7010E94053BC801B7010E9480
:103A8000053BC801B7010E94053BC801B7010E9470
:103A9000053BC801B7010E94053BC801B7010E9460
:103AA000053BC801B7010E94053BC801B7010E9450
:103AB000053BC801B7010E94053BC801B7010E9440
:103AC000053BC801B7010E94053BC801B7010E9430
:103AD000053BC801B7010E94053BC801B7010E9420
:103AE000053BC801B7010E94053BC801B7010E9410
:103AF000053BC801B7010E94053BC801B7010E9400
:103B0000053BC801B7010E94053BC801B7010E94EF
:103B1000053BC801B7010E94053BC801B7010E94DF
:103B2000053BC801B7010E94053BC801B7010E94CF
:103B3000053BC801B7010E94053BC801B7010E94BF
:103B4000053BC801B7010E94053BC801B7010E94AF
:103B5000053BC801B7010E94053BC801B7010E949F
:103B6000053BC801B7010E94053BC801B7010E948F
:103B7000053BC801B7010E94053BC801B7010E947F
:103B8000053BC801B7010E94053BC801B7010E946F
:103B9000053BC801B7010E94053BC801B7010E945F
:103BA000053BC801B7010E94053BC801B7010E944F
:103BB000053BC801B7010E94053BC801B7010E943F
:103BC000053BC801B7010E94053BC801B7010E942F
:103BD000053BC801B7010E94053BC801B7010E941F
:103BE000053BC801B7010E94053BC801B7010E940F
:103BF000053BC801B7010E94053BC801B7010E94FF
:103C0000053BC801B7010E94053BC801B7010E94EE
:103C1000053BC801B7010E94053BC801B7010E94DE
:103C2000053BC801B7010E94053BC801B7010E94CE
:103C3000053BC801B7010E94053BC801B7010E94BE
:103C4000053BC801B7010E94053BC801B7010E94AE
:103C5000053BC801B7010E94053BC801B7010E949E
:103C6000053BC801B7010E94053BC801B7010E948E
:103C7000053BC801B7010E94053BC801B7010E947E
:103C8000053BC801B7010E94053BC801B7010E946E
:103C9000053BC801B7010E94053BC801B7010E945E
:103CA000053BC801B7010E94053BC801B7010E944E
:103CB000053BC801B7010E94053BC801B7010E943E
:103CC000053BC801B7010E94053BC801B7010E942E
:103CD000053BC801B7010E94053BC801B7010E941E
:103CE000053BC801B7010E94053BC801B7010E940E
:103CF000053BD02EC12E8D2D9C2D6E2D7F2D0E942B
:103D0000053B8D2D9C2D6E2D7F2D0E94053B8D2D0D
:103D10009C2D6E2D7F2D0E94053B8D2D9C2D6E2D93
:103D20007F2D0E94053B8D2D9C2D6E2D7F2D0E9499
:103D3000053B8D2D9C2D6E2D7F2D0E94053B8D2DDD
:103D40009C2D6E2D7F2D0E94053B8D2D9C2D6E2D63
:103D50007F2D0E94053B8D2D9C2D6E2D7F2D0E9469
:103D6000053B8D2D9C2D6E2D7F2D0E94053B8D2DAD
:103D70009C2D6E2D7F2D0E94053B8D2D9C2D6E2D33
:103D80007F2D0E94053B8D2D9C2D6E2D7F2D0E9439
:103D9000053B8D2D9C2D6E2D7F2D0E94053B8D2D7D
:103DA0009C2D6E2D7F2D0E94053B8D2D9C2D6E2D03
:103DB0007F2D0E94053B8D2D9C2D6E2D7F2D0E9409
:103DC000053B8D2D9C2D6E2D7F2D0E94053B8D2D4D
:103DD0009C2D6E2D7F2D0E94053B8D2D9C2D6E2DD3
:103DE0007F2D0E94053B8D2D9C2D6E2D7F2D0E94D9
:103DF000053B8D2D9C2D6E2D7F2D0E94053B8D2D1D
:103E00009C2D6E2D7F2D0E94053B8D2D9C2D6E2DA2
:103E10007F2D0E94053B8D2D9C2D6E2D7F2D0E94A8
:103E2000053B8D2D9C2D6E2D7F2D0E94053B8D2DEC
:103E30009C2D6E2D7F2D0E94053B8D2D9C2D6E2D72
:103E40007F2D0E94053B8D2D9C2D6E2D7F2D0E9478
:103E5000053B8D2D9C2D6E2D7F2D0E94053B8D2DBC
:103E60009C2D6E2D7F2D0E94053B8D2D9C2D6E2D42
:103E70007F2D0E94053B8D2D9C2D6E2D7F2D0E9448
:103E8000053B8D2D9C2D6E2D7F2D0E94053B8D2D8C
:103E90009C2D6E2D7F2D0E94053B8D2D9C2D6E2D12
:103EA0007F2D0E94053B8D2D9C2D6E2D7F2D0E9418
:103EB000053B8D2D9C2D6E2D7F2D0E94053B8D2D5C
:103EC0009C2D6E2D7F2D0E94053B8D2D9C2D6E2DE2
:103ED0007F2D0E94053B8D2D9C2D6E2D7F2D0E94E8
:103EE000053B8D2D9C2D6E2D7F2D0E94053B8D2D2C
:103EF0009C2D6E2D7F2D0E94053B8D2D9C2D6E2DB2
:103F00007F2D0E94053B8D2D9C2D6E2D7F2D0E94B7
:103F1000053B8D2D9C2D6E2D7F2D0E94053B8D2DFB
:103F20009C2D6E2D7F2D0E94053B8D2D9C2D6E2D81
:103F30007F2D0E94053B8D2D9C2D6E2D7F2D0E9487
:103F4000053B8D2D9C2D6E2D7F2D0E94053B8D2DCB
:103F50009C2D6E2D7F2D0E94053B8D2D9C2D6E2D51
:103F60007F2D0E94053B8D2D9C2D6E2D7F2D0E9457
:103F7000053B8D2D9C2D6E2D7F2D0E94053B8D2D9B
:103F80009C2D6E2D7F2D0E94053B8D2D9C2D6E2D21
:103F90007F2D0E94053B8D2D9C2D6E2D7F2D0E9427
:103FA000053B8D2D9C2D6E2D7F2D0E94053B8D2D6B
:103FB0009C2D6E2D7F2D0E94053B8D2D9C2D6E2DF1
:103FC0007F2D0E94053B8D2D9C2D6E2D7F2D0E94F7
:103FD000053B8D2D9C2D6E2D7F2D0E94053B8D2D3B
:103FE0009C2D6E2D7F2D0E94053B8D2D9C2D6E2DC1
:103FF0007F2D0E94053B8D2D9C2D6E2D7F2D0E94C7
:10400000053B8D2D9C2D6E2D7F2D0E94053B8D2D0A
:104010009C2D6E2D7F2D0E94053B8D2D9C2D6E2D90
:104020007F2D0E94053B8D2D9C2D6E2D7F2D0E9496
:10403000053B8D2D9C2D6E2D7F2D0E94053B8D2DDA
:104040009C2D6E2D7F2D0E94053B8D2D9C2D6E2D60
:104050007F2D0E94053B8D2D9C2D6E2D7F2D0E9466
:10406000053B8D2D9C2D6E2D7F2D0E94053B8D2DAA
:104070009C2D6E2D7F2D0E94053B8D2D9C2D6E2D30
:104080007F2D0E94053B8D2D9C2D6E2D7F2D0E9436
:10409000053B8D2D9C2D6E2D7F2D0E94053B8D2D7A
:1040A0009C2D6E2D7F2D0E94053B8D2D9C2D6E2D00
:1040B0007F2D0E94053B8D2D9C2D6E2D7F2D0E9406
:1040C000053B8D2D9C2D6E2D7F2D0E94053B8D2D4A
:1040D0009C2D6E2D7F2D0E94053B8D2D9C2D6E2DD0
:1040E0007F2D0E94053B8D2D9C2D6E2D7F2D0E94D6
:1040F000053B8D2D9C2D6E2D7F2D0E94053B8D2D1A
:104100009C2D6E2D7F2D0E94053B8D2D9C2D6E2D9F
:104110007F2D0E94053B8D2D9C2D6E2D7F2D0E94A5
:10412000053B8D2D9C2D6E2D7F2D0E94053B8D2DE9
:104130009C2D6E2D7F2D0E94053B8D2D9C2D6E2D6F
:104140007F2D0E94053B8D2D9C2D6E2D7F2D0E9475
:10415000053B8D2D9C2D6E2D7F2D0E94053B8D2DB9
:104160009C2D6E2D7F2D0E94053B8D2D9C2D6E2D3F
:104170007F2D0E94053B8D2D9C2D6E2D7F2D0E9445
:10418000053B8D2D9C2D6E2D7F2D0E94053B8D2D89
:104190009C2D6E2D7F2D0E94053B8D2D9C2D6E2D0F
:1041A0007F2D0E94053B8D2D9C2D6E2D7F2D0E9415
:1041B000053B8D2D9C2D6E2D7F2D0E94053B8D2D59
:1041C0009C2D6E2D7F2D0E94053B8D2D9C2D6E2DDF
:1041D0007F2D0E94053B8D2D9C2D6E2D7F2D0E94E5
:1041E000053B8D2D9C2D6E2D7F2D0E94053B8D2D29
:1041F0009C2D6E2D7F2D0E94053B8D2D9C2D6E2DAF
:104200007F2D0E94053B8D2D9C2D6E2D7F2D0E94B4
:10421000053B8D2D9C2D6E2D7F2D0E94053B8D2DF8
:104220009C2D6E2D7F2D0E94053B8D2D9C2D6E2D7E
:104230007F2D0E94053B8D2D9C2D6E2D7F2D0E9484
:10424000053B8D2D9C2D6E2D7F2D0E94053B8D2DC8
:104250009C2D6E2D7F2D0E94053B8D2D9C2D6E2D4E
:104260007F2D0E94053B8D2D9C2D6E2D7F2D0E9454
:10427000053B8D2D9C2D6E2D7F2D0E94053B8D2D98
:104280009C2D6E2D7F2D0E94053B8D2D9C2D6E2D1E
:104290007F2D0E94053B8D2D9C2D6E2D7F2D0E9424
:1042A000053B8D2D9C2D6E2D7F2D0E94053B8D2D68
:1042B0009C2D6E2D7F2D0E94053B8D2D9C2D6E2DEE
:1042C0007F2D0E94053B8D2D9C2D6E2D7F2D0E94F4
:1042D000053B8D2D9C2D6E2D7F2D0E94053B8D2D38
:1042E0009C2D6E2D7F2D0E94053B8D2D9C2D6E2DBE
:1042F0007F2D0E94053B8D2D9C2D6E2D7F2D0E94C4
:10430000053B8D2D9C2D6E2D7F2D0E94053B8D2D07
:104310009C2D6E2D7F2D0E94053B8D2D9C2D6E2D8D
:104320007F2D0E94053B8D2D9C2D6E2D7F2D0E9493
:10433000053B8D2D9C2D6E2D7F2D0E94053B8D2DD7
:104340009C2D6E2D7F2D0E94053B8D2D9C2D6E2D5D
:104350007F2D0E94053B8D2D9C2D6E2D7F2D0E9463
:10436000053B8D2D9C2D6E2D7F2D0E94053B8D2DA7
:104370009C2D6E2D7F2D0E94053B8D2D9C2D6E2D2D
:104380007F2D0E94053B8D2D9C2D6E2D7F2D0E9433
:10439000053B8D2D9C2D6E2D7F2D0E94053B8D2D77
:1043A0009C2D6E2D7F2D0E94053B8D2D9C2D6E2DFD
:1043B0007F2D0E94053B8D2D9C2D6E2D7F2D0E9403
:1043C000053B8D2D9C2D6E2D7F2D0E94053B8D2D47
:1043D0009C2D6E2D7F2D0E94053B8D2D9C2D6E2DCD
:1043E0007F2D0E94053B8D2D9C2D6E2D7F2D0E94D3
:1043F000053B8D2D9C2D6E2D7F2D0E94053B8D2D17
:104400009C2D6E2D7F2D0E94053B8D2D9C2D6E2D9C
:104410007F2D0E94053B8D2D9C2D6E2D7F2D0E94A2
:10442000053B8D2D9C2D6E2D7F2D0E94053B8D2DE6
:104430009C2D6E2D7F2D0E94053B8D2D9C2D6E2D6C
:104440007F2D0E94053B8D2D9C2D6E2D7F2D0E9472
:10445000053B8D2D9C2D6E2D7F2D0E94053B8D2DB6
:104460009C2D6E2D7F2D0E94053B8D2D9C2D6E2D3C
:104470007F2D0E94053B8D2D9C2D6E2D7F2D0E9442
:10448000053B8D2D9C2D6E2D7F2D0E94053B8D2D86
:104490009C2D6E2D7F2D0E94053B8D2D9C2D6E2D0C
:1044A0007F2D0E94053B8D2D9C2D6E2D7F2D0E9412
:1044B000053B8D2D9C2D6E2D7F2D0E94053B8D2D56
:1044C0009C2D6E2D7F2D0E94053B8D2D9C2D6E2DDC
:1044D0007F2D0E94053B8D2D9C2D6E2D7F2D0E94E2
:1044E000053B8D2D9C2D6E2D7F2D0E94053B8D2D26
:1044F0009C2D6E2D7F2D0E94053B8D2D9C2D6E2DAC
:104500007F2D0E94053B8D2D9C2D6E2D7F2D0E94B1
:10451000053B8D2D9C2D6E2D7F2D0E94053B8D2DF5
:104520009C2D6E2D7F2D0E94053B8D2D9C2D6E2D7B
:104530007F2D0E94053B8D2D9C2D6E2D7F2D0E9481
:10454000053B8D2D9C2D6E2D7F2D0E94053B8D2DC5
:104550009C2D6E2D7F2D0E94053B8D2D9C2D6E2D4B
:104560007F2D0E94053B8D2D9C2D6E2D7F2D0E9451
:10457000053B8D2D9C2D6E2D7F2D0E94053B8D2D95
:104580009C2D6E2D7F2D0E94053B8D2D9C2D6E2D1B
:104590007F2D0E94053B8D2D9C2D6E2D7F2D0E9421
:1045A000053B8D2D9C2D6E2D7F2D0E94053B8D2D65
:1045B0009C2D6E2D7F2D0E94053B8D2D9C2D6E2DEB
:1045C0007F2D0E94053B8D2D9C2D6E2D7F2D0E94F1
:1045D000053B8D2D9C2D6E2D7F2D0E94053B8D2D35
:1045E0009C2D6E2D7F2D0E94053B8D2D9C2D6E2DBB
:1045F0007F2D0E94053B8D2D9C2D6E2D7F2D0E94C1
:10460000053B8D2D9C2D6E2D7F2D0E94053B8D2D04
:104610009C2D6E2D7F2D0E94053B8D2D9C2D6E2D8A
:104620007F2D0E94053B8D2D9C2D6E2D7F2D0E9490
:10463000053B8D2D9C2D6E2D7F2D0E94053B8D2DD4
:104640009C2D6E2D7F2D0E94053B8D2D9C2D6E2D5A
:104650007F2D0E94053B8D2D9C2D6E2D7F2D0E9460
:10466000053B01E312E0C801B7010E94053BC80108
:10467000B7010E94053BC801B7010E94053BC80174
:10468000B7010E94053BC801B7010E94053BC80164
:10469000B7010E94053BC801B7010E94053BC80154
:1046A000B7010E94053BC801B7010E94053BC80144
:1046B000B7010E94053BC801B7010E94053BC80134
:1046C000B7010E94053BC801B7010E94053BC80124
:1046D000B7010E94053BC801B7010E94053BC80114
:1046E000B7010E94053BC801B7010E94053BC80104
:1046F000B7010E94053BC801B7010E94053BC801F4
:10470000B7010E94053BC801B7010E94053BC801E3
:10471000B7010E94053BC801B7010E94053BC801D3
:10472000B7010E94053BC801B7010E94053BC801C3
:10473000B7010E94053BC801B7010E94053BC801B3
:10474000B7010E94053BC801B7010E94053BC801A3
:10475000B7010E94053BC801B7010E94053BC80193
:10476000B7010E94053BC801B7010E94053BC80183
:10477000B7010E94053BC801B7010E94053BC80173
:10478000B7010E94053BC801B7010E94053BC80163
:10479000B7010E94053BC801B7010E94053BC80153
:1047A000B7010E94053BC801B7010E94053BC80143
:1047B000B7010E94053BC801B7010E94053BC80133
:1047C000B7010E94053BC801B7010E94053BC80123
:1047D000B7010E94053BC801B7010E94053BC80113
:1047E000B7010E94053BC801B7010E94053BC80103
:1047F000B7010E94053BC801B7010E94053BC801F3
:10480000B7010E94053BC801B7010E94053BC801E2
:10481000B7010E94053BC801B7010E94053BC801D2
:10482000B7010E94053BC801B7010E94053BC801C2
:10483000B7010E94053BC801B7010E94053BC801B2
:10484000B7010E94053BC801B7010E94053BC801A2
:10485000B7010E94053BC801B7010E94053BC80192
:10486000B7010E94053BC801B7010E94053BC80182
:10487000B7010E94053BC801B7010E94053BC80172
:10488000B7010E94053BC801B7010E94053BC80162
:10489000B7010E94053BC801B7010E94053BC80152
:1048A000B7010E94053BC801B7010E94053BC80142
:1048B000B7010E94053BC801B7010E94053BC80132
:1048C000B7010E94053BC801B7010E94053BC80122
:1048D000B7010E94053BC801B7010E94053BC80112
:1048E000B7010E94053BC801B7010E94053BC80102
:1048F000B7010E94053BC801B7010E94053BC801F2
:10490000B7010E94053BC801B7010E94053BC801E1
:10491000B7010E94053BC801B7010E94053BC801D1
:10492000B7010E94053BC801B7010E94053BC801C1
:10493000B7010E94053BC801B7010E94053BC801B1
:10494000B7010E94053BC801B7010E94053BC801A1
:10495000B7010E94053BC801B7010E94053BC80191
:10496000B7010E94053BC801B7010E94053BC80181
:10497000B7010E94053BC801B7010E94053BC80171
:10498000B7010E94053BC801B7010E94053BC80161
:10499000B7010E94053BC801B7010E94053BC80151
:1049A000B7010E94053BC801B7010E94053BC80141
:1049B000B7010E94053BC801B7010E94053BC80131
:1049C000B7010E94053BC801B7010E94053BC80121
:1049D000B7010E94053BC801B7010E94053BC80111
:1049E000B7010E94053BC801B7010E94053BC80101
:1049F000B7010E94053BC801B7010E94053BC801F1
:104A0000B7010E94053BC801B7010E94053BC801E0
:104A1000B7010E94053BC801B7010E94053BC801D0
:104A2000B7010E94053BC801B7010E94053BC801C0
:104A3000B7010E94053BC801B7010E94053BC801B0
:104A4000B7010E94053BC801B7010E94053BC801A0
:104A5000B7010E94053BC801B7010E94053BC80190
:104A6000B7010E94053BC801B7010E94053BC80180
:104A7000B7010E94053BC801B7010E94053BC80170
:104A8000B7010E94053BC801B7010E94053BC80160
:104A9000B7010E94053BC801B7010E94053BC80150
:104AA000B7010E94053BC801B7010E94053BC80140
:104AB000B7010E94053BC801B7010E94053BC80130
:104AC000B7010E94053BC801B7010E94053BC80120
:104AD000B7010E94053BC801B7010E94053BC80110
:104AE000B7010E94053BC801B7010E94053BC80100
:104AF000B7010E94053BC801B7010E94053BC801F0
:104B0000B7010E94053BC801B7010E94053BC801DF
:104B1000B7010E94053BC801B7010E94053BC801CF
:104B2000B7010E94053BC801B7010E94053BC801BF
:104B3000B7010E94053BC801B7010E94053BC801AF
:104B4000B7010E94053BC801B7010E94053BC8019F
:104B5000B7010E94053BC801B7010E94053BC8018F
:104B6000B7010E94053BC801B7010E94053BC8017F
:104B7000B7010E94053BC801B7010E94053BC8016F
:104B8000B7010E94053BC801B7010E94053BC8015F
:104B9000B7010E94053BC801B7010E94053BC8014F
:104BA000B7010E94053BC801B7010E94053BC8013F
:104BB000B7010E94053BC801B7010E94053BC8012F
:104BC000B7010E94053BC801B7010E94053BC8011F
:104BD000B7010E94053BC801B7010E94053BC8010F
:104BE000B7010E94053BC801B7010E94053BC801FF
:104BF000B7010E94053BC801B7010E94053BC801EF
:104C0000B7010E94053BC801B7010E94053BC801DE
:104C1000B7010E94053BC801B7010E94053BC801CE
:104C2000B7010E94053BC801B7010E94053BC801BE
:104C3000B7010E94053BC801B7010E94053BC801AE
:104C4000B7010E94053BC801B7010E94053BC8019E
:104C5000B7010E94053BC801B7010E94053BC8018E
:104C6000B7010E94053BC801B7010E94053BC8017E
:104C7000B7010E94053BC801B7010E94053BC8016E
:104C8000B7010E94053BC801B7010E94053BC8015E
:104C9000B7010E94053BC801B7010E94053BC8014E
:104CA000B7010E94053B780100E011E0C701B8019F
:104CB0000E94053BC701B8010E94053BC701B8012E
:104CC0000E94053BC701B8010E94053BC701B8011E
:104CD0000E94053BC701B8010E94053BC701B8010E
:104CE0000E94053BC701B8010E94053BC701B801FE
:104CF0000E94053BC701B8010E94053BC701B801EE
:104D00000E94053BC701B8010E94053BC701B801DD
:104D10000E94053BC701B8010E94053BC701B801CD
:104D20000E94053BC701B8010E94053BC701B801BD
:104D30000E94053BC701B8010E94053BC701B801AD
:104D40000E94053BC701B8010E94053BC701B8019D
:104D50000E94053BC701B8010E94053BC701B8018D
:104D60000E94053BC701B8010E94053BC701B8017D
:104D70000E94053BC701B8010E94053BC701B8016D
:104D80000E94053BC701B8010E94053BC701B8015D
:104D90000E94053BC701B8010E94053BC701B8014D
:104DA0000E94053BC701B8010E94053BC701B8013D
:104DB0000E94053BC701B8010E94053BC701B8012D
:104DC0000E94053BC701B8010E94053BC701B8011D
:104DD0000E94053BC701B8010E94053BC701B8010D
:104DE0000E94053BC701B8010E94053BC701B801FD
:104DF0000E94053BC701B8010E94053BC701B801ED
:104E00000E94053BC701B8010E94053BC701B801DC
:104E10000E94053BC701B8010E94053BC701B801CC
:104E20000E94053BC701B8010E94053BC701B801BC
:104E30000E94053BC701B8010E94053BC701B801AC
:104E40000E94053BC701B8010E94053BC701B8019C
:104E50000E94053BC701B8010E94053BC701B8018C
:104E60000E94053BC701B8010E94053BC701B8017C
:104E70000E94053BC701B8010E94053BC701B8016C
:104E80000E94053BC701B8010E94053BC701B8015C
:104E90000E94053BC701B8010E94053BC701B8014C
:104EA0000E94053BC701B8010E94053BC701B8013C
:104EB0000E94053BC701B8010E94053BC701B8012C
:104EC0000E94053BC701B8010E94053BC701B8011C
:104ED0000E94053BC701B8010E94053BC701B8010C
:104EE0000E94053BC701B8010E94053BC701B801FC
:104EF0000E94053BC701B8010E94053BC701B801EC
:104F00000E94053BC701B8010E94053BC701B801DB
:104F10000E94053BC701B8010E94053BC701B801CB
:104F20000E94053BC701B8010E94053BC701B801BB
:104F30000E94053BC701B8010E94053BC701B801AB
:104F40000E94053BC701B8010E94053BC701B8019B
:104F50000E94053BC701B8010E94053BC701B8018B
:104F60000E94053BC701B8010E94053BC701B8017B
:104F70000E94053BC701B8010E94053BC701B8016B
:104F80000E94053BC701B8010E94053BC701B8015B
:104F90000E94053BC701B8010E94053BC701B8014B
:104FA0000E94053BC701B8010E94053BC701B8013B
:104FB0000E94053BC701B8010E94053BC701B8012B
:104FC0000E94053BC701B8010E94053BC701B8011B
:104FD0000E94053BC701B8010E94053BC701B8010B
:104FE0000E94053BC701B8010E94053BC701B801FB
:104FF0000E94053BC701B8010E94053BC701B801EB
:105000000E94053BC701B8010E94053BC701B801DA
:105010000E94053BC701B8010E94053BC701B801CA
:105020000E94053BC701B8010E94053BC701B801BA
:105030000E94053BC701B8010E94053BC701B801AA
:105040000E94053BC701B8010E94053BC701B8019A
:105050000E94053BC701B8010E94053BC701B8018A
:105060000E94053BC701B8010E94053BC701B8017A
:105070000E94053BC701B8010E94053BC701B8016A
:105080000E94053BC701B8010E94053BC701B8015A
:105090000E94053BC701B8010E94053BC701B8014A
:1050A0000E94053BC701B8010E94053BC701B8013A
:1050B0000E94053BC701B8010E94053BC701B8012A
:1050C0000E94053BC701B8010E94053BC701B8011A
:1050D0000E94053BC701B8010E94053BC701B8010A
:1050E0000E94053BC701B8010E94053BC701B801FA
:1050F0000E94053BC701B8010E94053BC701B801EA
:105100000E94053BC701B8010E94053BC701B801D9
:105110000E94053BC701B8010E94053BC701B801C9
:105120000E94053BC701B8010E94053BC701B801B9
:105130000E94053BC701B8010E94053BC701B801A9
:105140000E94053BC701B8010E94053BC701B80199
:105150000E94053BC701B8010E94053BC701B80189
:105160000E94053BC701B8010E94053BC701B80179
:105170000E94053BC701B8010E94053BC701B80169
:105180000E94053BC701B8010E94053BC701B80159
:105190000E94053BC701B8010E94053BC701B80149
:1051A0000E94053BC701B8010E94053BC701B80139
:1051B0000E94053BC701B8010E94053BC701B80129
:1051C0000E94053BC701B8010E94053BC701B80119
:1051D0000E94053BC701B8010E94053BC701B80109
:1051E0000E94053BC701B8010E94053BC701B801F9
:1051F0000E94053BC701B8010E94053BC701B801E9
:105200000E94053BC701B8010E94053BC701B801D8
:105210000E94053BC701B8010E94053BC701B801C8
:105220000E94053BC701B8010E94053BC701B801B8
:105230000E94053BC701B8010E94053BC701B801A8
:105240000E94053BC701B8010E94053BC701B80198
:105250000E94053BC701B8010E94053BC701B80188
:105260000E94053BC701B8010E94053BC701B80178
:105270000E94053BC701B8010E94053BC701B80168
:105280000E94053BC701B8010E94053BC701B80158
:105290000E94053BC701B8010E94053BC701B80148
:1052A0000E94053BC701B8010E94053BC701B80138
:1052B0000E94053BC701B8010E94053BC701B80128
:1052C0000E94053BC701B8010E94053BC701B80118
:1052D0000E94053BC701B8010E94053BC701B80108
:1052E0000E94053BC701B8010E94053BD02EC12E8C
:1052F000C701602F712F0E94053B8E2D9F2D6D2DB4
:105300007C2D0E94053B8E2D9F2D6D2D7C2D0E94A6
:10531000053B8E2D9F2D6D2D7C2D0E94053B8E2DE6
:105320009F2D6D2D7C2D0E94053B8E2D9F2D6D2D6B
:105330007C2D0E94053B8E2D9F2D6D2D7C2D0E9476
:10534000053B8E2D9F2D6D2D7C2D0E94053B8E2DB6
:105350009F2D6D2D7C2D0E94053B8E2D9F2D6D2D3B
:105360007C2D0E94053B8E2D9F2D6D2D7C2D0E9446
:10537000053B8E2D9F2D6D2D7C2D0E94053B8E2D86
:105380009F2D6D2D7C2D0E94053B8E2D9F2D6D2D0B
:105390007C2D0E94053B8E2D9F2D6D2D7C2D0E9416
:1053A000053B8E2D9F2D6D2D7C2D0E94053B8E2D56
:1053B0009F2D6D2D7C2D0E94053B8E2D9F2D6D2DDB
:1053C0007C2D0E94053B8E2D9F2D6D2D7C2D0E94E6
:1053D000053B8E2D9F2D6D2D7C2D0E94053B8E2D26
:1053E0009F2D6D2D7C2D0E94053B8E2D9F2D6D2DAB
:1053F0007C2D0E94053B8E2D9F2D6D2D7C2D0E94B6
:10540000053B8E2D9F2D6D2D7C2D0E94053B8E2DF5
:105410009F2D6D2D7C2D0E94053B8E2D9F2D6D2D7A
:105420007C2D0E94053B8E2D9F2D6D2D7C2D0E9485
:10543000053B8E2D9F2D6D2D7C2D0E94053B8E2DC5
:105440009F2D6D2D7C2D0E94053B8E2D9F2D6D2D4A
:105450007C2D0E94053B8E2D9F2D6D2D7C2D0E9455
:10546000053B8E2D9F2D6D2D7C2D0E94053B8E2D95
:105470009F2D6D2D7C2D0E94053B8E2D9F2D6D2D1A
:105480007C2D0E94053B8E2D9F2D6D2D7C2D0E9425
:10549000053B8E2D9F2D6D2D7C2D0E94053B8E2D65
:1054A0009F2D6D2D7C2D0E94053B8E2D9F2D6D2DEA
:1054B0007C2D0E94053B8E2D9F2D6D2D7C2D0E94F5
:1054C000053B8E2D9F2D6D2D7C2D0E94053B8E2D35
:1054D0009F2D6D2D7C2D0E94053B8E2D9F2D6D2DBA
:1054E0007C2D0E94053B8E2D9F2D6D2D7C2D0E94C5
:1054F000053B8E2D9F2D6D2D7C2D0E94053B8E2D05
:105500009F2D6D2D7C2D0E94053B8E2D9F2D6D2D89
:105510007C2D0E94053B8E2D9F2D6D2D7C2D0E9494
:10552000053B8E2D9F2D6D2D7C2D0E94053B8E2DD4
:105530009F2D6D2D7C2D0E94053B8E2D9F2D6D2D59
:105540007C2D0E94053B8E2D9F2D6D2D7C2D0E9464
:10555000053B8E2D9F2D6D2D7C2D0E94053B8E2DA4
:105560009F2D6D2D7C2D0E94053B8E2D9F2D6D2D29
:105570007C2D0E94053B8E2D9F2D6D2D7C2D0E9434
:10558000053B8E2D9F2D6D2D7C2D0E94053B8E2D74
:105590009F2D6D2D7C2D0E94053B8E2D9F2D6D2DF9
:1055A0007C2D0E94053B8E2D9F2D6D2D7C2D0E9404
:1055B000053B8E2D9F2D6D2D7C2D0E94053B8E2D44
:1055C0009F2D6D2D7C2D0E94053B8E2D9F2D6D2DC9
:1055D0007C2D0E94053B8E2D9F2D6D2D7C2D0E94D4
:1055E000053B8E2D9F2D6D2D7C2D0E94053B8E2D14
:1055F0009F2D6D2D7C2D0E94053B8E2D9F2D6D2D99
:105600007C2D0E94053B8E2D9F2D6D2D7C2D0E94A3
:10561000053B8E2D9F2D6D2D7C2D0E94053B8E2DE3
:105620009F2D6D2D7C2D0E94053B8E2D9F2D6D2D68
:105630007C2D0E94053B8E2D9F2D6D2D7C2D0E9473
:10564000053B8E2D9F2D6D2D7C2D0E94053B8E2DB3
:105650009F2D6D2D7C2D0E94053B8E2D9F2D6D2D38
:105660007C2D0E94053B8E2D9F2D6D2D7C2D0E9443
:10567000053B8E2D9F2D6D2D7C2D0E94053B8E2D83
:105680009F2D6D2D7C2D0E94053B8E2D9F2D6D2D08
:105690007C2D0E94053B8E2D9F2D6D2D7C2D0E9413
:1056A000053B8E2D9F2D6D2D7C2D0E94053B8E2D53
:1056B0009F2D6D2D7C2D0E94053B8E2D9F2D6D2DD8
:1056C0007C2D0E94053B8E2D9F2D6D2D7C2D0E94E3
:1056D000053B8E2D9F2D6D2D7C2D0E94053B8E2D23
:1056E0009F2D6D2D7C2D0E94053B8E2D9F2D6D2DA8
:1056F0007C2D0E94053B8E2D9F2D6D2D7C2D0E94B3
:10570000053B8E2D9F2D6D2D7C2D0E94053B8E2DF2
:105710009F2D6D2D7C2D0E94053B8E2D9F2D6D2D77
:105720007C2D0E94053B8E2D9F2D6D2D7C2D0E9482
:10573000053B8E2D9F2D6D2D7C2D0E94053B8E2DC2
:105740009F2D6D2D7C2D0E94053B8E2D9F2D6D2D47
:105750007C2D0E94053B8E2D9F2D6D2D7C2D0E9452
:10576000053B8E2D9F2D6D2D7C2D0E94053B8E2D92
:105770009F2D6D2D7C2D0E94053B8E2D9F2D6D2D17
:105780007C2D0E94053B8E2D9F2D6D2D7C2D0E9422
:10579000053B8E2D9F2D6D2D7C2D0E94053B8E2D62
:1057A0009F2D6D2D7C2D0E94053B8E2D9F2D6D2DE7
:1057B0007C2D0E94053B8E2D9F2D6D2D7C2D0E94F2
:1057C000053B8E2D9F2D6D2D7C2D0E94053B8E2D32
:1057D0009F2D6D2D7C2D0E94053B8E2D9F2D6D2DB7
:1057E0007C2D0E94053B8E2D9F2D6D2D7C2D0E94C2
:1057F000053B8E2D9F2D6D2D7C2D0E94053B8E2D02
:105800009F2D6D2D7C2D0E94053B8E2D9F2D6D2D86
:105810007C2D0E94053B8E2D9F2D6D2D7C2D0E9491
:10582000053B8E2D9F2D6D2D7C2D0E94053B8E2DD1
:105830009F2D6D2D7C2D0E94053B8E2D9F2D6D2D56
:105840007C2D0E94053B8E2D9F2D6D2D7C2D0E9461
:10585000053B8E2D9F2D6D2D7C2D0E94053B8E2DA1
:105860009F2D6D2D7C2D0E94053B8E2D9F2D6D2D26
:105870007C2D0E94053B8E2D9F2D6D2D7C2D0E9431
:10588000053B8E2D9F2D6D2D7C2D0E94053B8E2D71
:105890009F2D6D2D7C2D0E94053B8E2D9F2D6D2DF6
:1058A0007C2D0E94053B8E2D9F2D6D2D7C2D0E9401
:1058B000053B8E2D9F2D6D2D7C2D0E94053B8E2D41
:1058C0009F2D6D2D7C2D0E94053B8E2D9F2D6D2DC6
:1058D0007C2D0E94053B8E2D9F2D6D2D7C2D0E94D1
:1058E000053B8E2D9F2D6D2D7C2D0E94053B8E2D11
:1058F0009F2D6D2D7C2D0E94053B8E2D9F2D6D2D96
:105900007C2D0E94053B8E2D9F2D6D2D7C2D0E94A0
:10591000053B8E2D9F2D6D2D7C2D0E94053B8E2DE0
:105920009F2D6D2D7C2D0E94053B8E2D9F2D6D2D65
:105930007C2D0E94053B8E2D9F2D6D2D7C2D0E9470
:10594000053B8E2D9F2D6D2D7C2D0E94053B8E2DB0
:105950009F2D6D2D7C2D0E94053B8E2D9F2D6D2D35
:105960007C2D0E94053B8E2D9F2D6D2D7C2D0E9440
:10597000053B8E2D9F2D6D2D7C2D0E94053B8E2D80
:105980009F2D6D2D7C2D0E94053B8E2D9F2D6D2D05
:105990007C2D0E94053B8E2D9F2D6D2D7C2D0E9410
:1059A000053B8E2D9F2D6D2D7C2D0E94053B8E2D50
:1059B0009F2D6D2D7C2D0E94053B8E2D9F2D6D2DD5
:1059C0007C2D0E94053B8E2D9F2D6D2D7C2D0E94E0
:1059D000053B8E2D9F2D6D2D7C2D0E94053B8E2D20
:1059E0009F2D6D2D7C2D0E94053B8E2D9F2D6D2DA5
:1059F0007C2D0E94053B8E2D9F2D6D2D7C2D0E94B0
:105A0000053B8E2D9F2D6D2D7C2D0E94053B8E2DEF
:105A10009F2D6D2D7C2D0E94053B8E2D9F2D6D2D74
:105A20007C2D0E94053B8E2D9F2D6D2D7C2D0E947F
:105A3000053B8E2D9F2D6D2D7C2D0E94053B8E2DBF
:105A40009F2D6D2D7C2D0E94053B8E2D9F2D6D2D44
:105A50007C2D0E94053B8E2D9F2D6D2D7C2D0E944F
:105A6000053B8E2D9F2D6D2D7C2D0E94053B8E2D8F
:105A70009F2D6D2D7C2D0E94053B8E2D9F2D6D2D14
:105A80007C2D0E94053B8E2D9F2D6D2D7C2D0E941F
:105A9000053B8E2D9F2D6D2D7C2D0E94053B8E2D5F
:105AA0009F2D6D2D7C2D0E94053B8E2D9F2D6D2DE4
:105AB0007C2D0E94053B8E2D9F2D6D2D7C2D0E94EF
:105AC000053B8E2D9F2D6D2D7C2D0E94053B8E2D2F
:105AD0009F2D6D2D7C2D0E94053B8E2D9F2D6D2DB4
