:100000000C9462000C948A000C948A000C948A0070
:100010000C948A000C948A000C948A000C948A0038
:100020000C948A000C948A000C948A000C948A0028
:100030000C948A000C948A000C948A000C948A0018
:100040000C94400B0C948A000C949A0C0C948A002B
:100050000C948A000C948A000C948A000C948A00F8
:100060000C948A000C948A000000000024002700F1
:100070002A0000000000250028002B0000000000DE
:1000800023002600290004040404040404040202DA
:100090000202020203030303030301020408102007
:1000A0004080010204081020010204081020000012
:1000B0000007000201000003040600000000000029
:1000C0000000390D11241FBECFEFD8E0DEBFCDBF39
:1000D00011E0A0E0B1E0E2E8FBE102C005900D9282
:1000E000A43AB107D9F712E0A4EAB1E001C01D9229
:1000F000A434B107E1F710E0C4ECD0E004C02297CB
:10010000FE010E94BB0DC23CD107C9F70E94730DCE
:100110000C94BF0D0C940000CF92DF92EF92FF92EF
:100120000F931F938DE061E00E94420C68EB7BE02F
:1001300080E090E00E94880B8DE060E00E94420C1D
:1001400068EB7BE080E090E00E94880B91E3E92E71
:1001500092E0F92E00E011E0C701B8010E94B10D54
:10016000C701B8010E94B10DC701B8010E94B10DCD
:10017000C701B8010E94B10DC701B8010E94B10DBD
:10018000C701B8010E94B10DC701B8010E94B10DAD
:10019000C701B8010E94B10DC701B8010E94B10D9D
:1001A000C701B8010E94B10DC701B8010E94B10D8D
:1001B000C701B8010E94B10DC701B8010E94B10D7D
:1001C000C701B8010E94B10DC701B8010E94B10D6D
:1001D000C701B8010E94B10DC701B8010E94B10D5D
:1001E000C701B8010E94B10DC701B8010E94B10D4D
:1001F000C701B8010E94B10DC701B8010E94B10D3D
:10020000C701B8010E94B10DC701B8010E94B10D2C
:10021000C701B8010E94B10DC701B8010E94B10D1C
:10022000C701B8010E94B10DC701B8010E94B10D0C
:10023000C701B8010E94B10DC701B8010E94B10DFC
:10024000C701B8010E94B10DC701B8010E94B10DEC
:10025000C701B8010E94B10DC701B8010E94B10DDC
:10026000C701B8010E94B10DC701B8010E94B10DCC
:10027000C701B8010E94B10DC701B8010E94B10DBC
:10028000C701B8010E94B10DC701B8010E94B10DAC
:10029000C701B8010E94B10DC701B8010E94B10D9C
:1002A000C701B8010E94B10DC701B8010E94B10D8C
:1002B000C701B8010E94B10DC701B8010E94B10D7C
:1002C000C701B8010E94B10DC701B8010E94B10D6C
:1002D000C701B8010E94B10DC701B8010E94B10D5C
:1002E000C701B8010E94B10DC701B8010E94B10D4C
:1002F000C701B8010E94B10DC701B8010E94B10D3C
:10030000C701B8010E94B10DC701B8010E94B10D2B
:10031000C701B8010E94B10DC701B8010E94B10D1B
:10032000C701B8010E94B10DC701B8010E94B10D0B
:10033000C701B8010E94B10DC701B8010E94B10DFB
:10034000C701B8010E94B10DC701B8010E94B10DEB
:10035000C701B8010E94B10DC701B8010E94B10DDB
:10036000C701B8010E94B10DC701B8010E94B10DCB
:10037000C701B8010E94B10DC701B8010E94B10DBB
:10038000C701B8010E94B10DC701B8010E94B10DAB
:10039000C701B8010E94B10DC701B8010E94B10D9B
:1003A000C701B8010E94B10DC701B8010E94B10D8B
:1003B000C701B8010E94B10DC701B8010E94B10D7B
:1003C000C701B8010E94B10DC701B8010E94B10D6B
:1003D000C701B8010E94B10DC701B8010E94B10D5B
:1003E000C701B8010E94B10DC701B8010E94B10D4B
:1003F000C701B8010E94B10DC701B8010E94B10D3B
:10040000C701B8010E94B10DC701B8010E94B10D2A
:10041000C701B8010E94B10DC701B8010E94B10D1A
:10042000C701B8010E94B10DC701B8010E94B10D0A
:10043000C701B8010E94B10DC701B8010E94B10DFA
:10044000C701B8010E94B10DC701B8010E94B10DEA
:10045000C701B8010E94B10DC701B8010E94B10DDA
:10046000C701B8010E94B10DC701B8010E94B10DCA
:10047000C701B8010E94B10DC701B8010E94B10DBA
:10048000C701B8010E94B10DC701B8010E94B10DAA
:10049000C701B8010E94B10DC701B8010E94B10D9A
:1004A000C701B8010E94B10DC701B8010E94B10D8A
:1004B000C701B8010E94B10DC701B8010E94B10D7A
:1004C000C701B8010E94B10DC701B8010E94B10D6A
:1004D000C701B8010E94B10DC701B8010E94B10D5A
:1004E000C701B8010E94B10DC701B8010E94B10D4A
:1004F000C701B8010E94B10DC701B8010E94B10D3A
:10050000C701B8010E94B10DC701B8010E94B10D29
:10051000C701B8010E94B10DC701B8010E94B10D19
:10052000C701B8010E94B10DC701B8010E94B10D09
:10053000C701B8010E94B10DC701B8010E94B10DF9
:10054000C701B8010E94B10DC701B8010E94B10DE9
:10055000C701B8010E94B10DC701B8010E94B10DD9
:10056000C701B8010E94B10DC701B8010E94B10DC9
:10057000C701B8010E94B10DC701B8010E94B10DB9
:10058000C701B8010E94B10DC701B8010E94B10DA9
:10059000C701B8010E94B10DC701B8010E94B10D99
:1005A000C701B8010E94B10DC701B8010E94B10D89
:1005B000C701B8010E94B10DC701B8010E94B10D79
:1005C000C701B8010E94B10DC701B8010E94B10D69
:1005D000C701B8010E94B10DC701B8010E94B10D59
:1005E000C701B8010E94B10DC701B8010E94B10D49
:1005F000C701B8010E94B10DC701B8010E94B10D39
:10060000C701B8010E94B10DC701B8010E94B10D28
:10061000C701B8010E94B10DC701B8010E94B10D18
:10062000C701B8010E94B10DC701B8010E94B10D08
:10063000C701B8010E94B10DC701B8010E94B10DF8
:10064000C701B8010E94B10DC701B8010E94B10DE8
:10065000C701B8010E94B10DC701B8010E94B10DD8
:10066000C701B8010E94B10DC701B8010E94B10DC8
:10067000C701B8010E94B10DC701B8010E94B10DB8
:10068000C701B8010E94B10DC701B8010E94B10DA8
:10069000C701B8010E94B10DC701B8010E94B10D98
:1006A000C701B8010E94B10DC701B8010E94B10D88
:1006B000C701B8010E94B10DC701B8010E94B10D78
:1006C000C701B8010E94B10DC701B8010E94B10D68
:1006D000C701B8010E94B10DC701B8010E94B10D58
:1006E000C701B8010E94B10DC701B8010E94B10D48
:1006F000C701B8010E94B10DC701B8010E94B10D38
:10070000C701B8010E94B10DC701B8010E94B10D27
:10071000C701B8010E94B10DC701B8010E94B10D17
:10072000C701B8010E94B10DC701B8010E94B10D07
:10073000C701B8010E94B10DC701B8010E94B10DF7
:10074000C701B8010E94B10DC701B8010E94B10DE7
:10075000C701B8010E94B10DC701B8010E94B10DD7
:10076000C701B8010E94B10DC701B8010E94B10DC7
:10077000C701B8010E94B10DC701B8010E94B10DB7
:10078000C701B8010E94B10DD02EC12EC701602F44
:10079000712F0E94B10D8E2D9F2D6D2D7C2D0E94ED
:1007A000B10D8E2D9F2D6D2D7C2D0E94B10D8E2DA6
:1007B0009F2D6D2D7C2D0E94B10D8E2D9F2D6D2DA9
:1007C0007C2D0E94B10D8E2D9F2D6D2D7C2D0E94B4
:1007D000B10D8E2D9F2D6D2D7C2D0E94B10D8E2D76
:1007E0009F2D6D2D7C2D0E94B10D8E2D9F2D6D2D79
:1007F0007C2D0E94B10D8E2D9F2D6D2D7C2D0E9484
:10080000B10D8E2D9F2D6D2D7C2D0E94B10D8E2D45
:100810009F2D6D2D7C2D0E94B10D8E2D9F2D6D2D48
:100820007C2D0E94B10D8E2D9F2D6D2D7C2D0E9453
:10083000B10D8E2D9F2D6D2D7C2D0E94B10D8E2D15
:100840009F2D6D2D7C2D0E94B10D8E2D9F2D6D2D18
:100850007C2D0E94B10D8E2D9F2D6D2D7C2D0E9423
:10086000B10D8E2D9F2D6D2D7C2D0E94B10D8E2DE5
:100870009F2D6D2D7C2D0E94B10D8E2D9F2D6D2DE8
:100880007C2D0E94B10D8E2D9F2D6D2D7C2D0E94F3
:10089000B10D8E2D9F2D6D2D7C2D0E94B10D8E2DB5
:1008A0009F2D6D2D7C2D0E94B10D8E2D9F2D6D2DB8
:1008B0007C2D0E94B10D8E2D9F2D6D2D7C2D0E94C3
:1008C000B10D8E2D9F2D6D2D7C2D0E94B10D8E2D85
:1008D0009F2D6D2D7C2D0E94B10D8E2D9F2D6D2D88
:1008E0007C2D0E94B10D8E2D9F2D6D2D7C2D0E9493
:1008F000B10D8E2D9F2D6D2D7C2D0E94B10D8E2D55
:100900009F2D6D2D7C2D0E94B10D8E2D9F2D6D2D57
:100910007C2D0E94B10D8E2D9F2D6D2D7C2D0E9462
:10092000B10D8E2D9F2D6D2D7C2D0E94B10D8E2D24
:100930009F2D6D2D7C2D0E94B10D8E2D9F2D6D2D27
:100940007C2D0E94B10D8E2D9F2D6D2D7C2D0E9432
:10095000B10D8E2D9F2D6D2D7C2D0E94B10D8E2DF4
:100960009F2D6D2D7C2D0E94B10D8E2D9F2D6D2DF7
:100970007C2D0E94B10D8E2D9F2D6D2D7C2D0E9402
:10098000B10D8E2D9F2D6D2D7C2D0E94B10D8E2DC4
:100990009F2D6D2D7C2D0E94B10D8E2D9F2D6D2DC7
:1009A0007C2D0E94B10D8E2D9F2D6D2D7C2D0E94D2
:1009B000B10D8E2D9F2D6D2D7C2D0E94B10D8E2D94
:1009C0009F2D6D2D7C2D0E94B10D8E2D9F2D6D2D97
:1009D0007C2D0E94B10D8E2D9F2D6D2D7C2D0E94A2
:1009E000B10D8E2D9F2D6D2D7C2D0E94B10D8E2D64
:1009F0009F2D6D2D7C2D0E94B10D8E2D9F2D6D2D67
:100A00007C2D0E94B10D8E2D9F2D6D2D7C2D0E9471
:100A1000B10D8E2D9F2D6D2D7C2D0E94B10D8E2D33
:100A20009F2D6D2D7C2D0E94B10D8E2D9F2D6D2D36
:100A30007C2D0E94B10D8E2D9F2D6D2D7C2D0E9441
:100A4000B10D8E2D9F2D6D2D7C2D0E94B10D8E2D03
:100A50009F2D6D2D7C2D0E94B10D8E2D9F2D6D2D06
:100A60007C2D0E94B10D8E2D9F2D6D2D7C2D0E9411
:100A7000B10D8E2D9F2D6D2D7C2D0E94B10D8E2DD3
:100A80009F2D6D2D7C2D0E94B10D8E2D9F2D6D2DD6
:100A90007C2D0E94B10D8E2D9F2D6D2D7C2D0E94E1
:100AA000B10D8E2D9F2D6D2D7C2D0E94B10D8E2DA3
:100AB0009F2D6D2D7C2D0E94B10D8E2D9F2D6D2DA6
:100AC0007C2D0E94B10D8E2D9F2D6D2D7C2D0E94B1
:100AD000B10D8E2D9F2D6D2D7C2D0E94B10D8E2D73
:100AE0009F2D6D2D7C2D0E94B10D8E2D9F2D6D2D76
:100AF0007C2D0E94B10D8E2D9F2D6D2D7C2D0E9481
:100B0000B10D8E2D9F2D6D2D7C2D0E94B10D8E2D42
:100B10009F2D6D2D7C2D0E94B10D8E2D9F2D6D2D45
:100B20007C2D0E94B10D8E2D9F2D6D2D7C2D0E9450
:100B3000B10D8E2D9F2D6D2D7C2D0E94B10D8E2D12
:100B40009F2D6D2D7C2D0E94B10D8E2D9F2D6D2D15
:100B50007C2D0E94B10D8E2D9F2D6D2D7C2D0E9420
:100B6000B10D8E2D9F2D6D2D7C2D0E94B10D8E2DE2
:100B70009F2D6D2D7C2D0E94B10D8E2D9F2D6D2DE5
:100B80007C2D0E94B10D8E2D9F2D6D2D7C2D0E94F0
:100B9000B10D8E2D9F2D6D2D7C2D0E94B10D8E2DB2
:100BA0009F2D6D2D7C2D0E94B10D8E2D9F2D6D2DB5
:100BB0007C2D0E94B10D8E2D9F2D6D2D7C2D0E94C0
:100BC000B10D8E2D9F2D6D2D7C2D0E94B10D8E2D82
:100BD0009F2D6D2D7C2D0E94B10D8E2D9F2D6D2D85
:100BE0007C2D0E94B10D8E2D9F2D6D2D7C2D0E9490
:100BF000B10D8E2D9F2D6D2D7C2D0E94B10D8E2D52
:100C00009F2D6D2D7C2D0E94B10D8E2D9F2D6D2D54
:100C10007C2D0E94B10D8E2D9F2D6D2D7C2D0E945F
:100C2000B10D8E2D9F2D6D2D7C2D0E94B10D8E2D21
:100C30009F2D6D2D7C2D0E94B10D8E2D9F2D6D2D24
:100C40007C2D0E94B10D8E2D9F2D6D2D7C2D0E942F
:100C5000B10D8E2D9F2D6D2D7C2D0E94B10D8E2DF1
:100C60009F2D6D2D7C2D0E94B10D8E2D9F2D6D2DF4
:100C70007C2D0E94B10D8E2D9F2D6D2D7C2D0E94FF
:100C8000B10D8E2D9F2D6D2D7C2D0E94B10D8E2DC1
:100C90009F2D6D2D7C2D0E94B10D8E2D9F2D6D2DC4
:100CA0007C2D0E94B10D8E2D9F2D6D2D7C2D0E94CF
:100CB000B10D8E2D9F2D6D2D7C2D0E94B10D8E2D91
:100CC0009F2D6D2D7C2D0E94B10D8E2D9F2D6D2D94
:100CD0007C2D0E94B10D8E2D9F2D6D2D7C2D0E949F
:100CE000B10D8E2D9F2D6D2D7C2D0E94B10D8E2D61
:100CF0009F2D6D2D7C2D0E94B10D8E2D9F2D6D2D64
:100D00007C2D0E94B10D8E2D9F2D6D2D7C2D0E946E
:100D1000B10D8E2D9F2D6D2D7C2D0E94B10D8E2D30
:100D20009F2D6D2D7C2D0E94B10D8E2D9F2D6D2D33
:100D30007C2D0E94B10D8E2D9F2D6D2D7C2D0E943E
:100D4000B10D8E2D9F2D6D2D7C2D0E94B10D8E2D00
:100D50009F2D6D2D7C2D0E94B10D8E2D9F2D6D2D03
:100D60007C2D0E94B10D8E2D9F2D6D2D7C2D0E940E
:100D7000B10D8E2D9F2D6D2D7C2D0E94B10D8E2DD0
:100D80009F2D6D2D7C2D0E94B10D8E2D9F2D6D2DD3
:100D90007C2D0E94B10D8E2D9F2D6D2D7C2D0E94DE
:100DA000B10D8E2D9F2D6D2D7C2D0E94B10D8E2DA0
:100DB0009F2D6D2D7C2D0E94B10D8E2D9F2D6D2DA3
:100DC0007C2D0E94B10D8E2D9F2D6D2D7C2D0E94AE
:100DD000B10D8E2D9F2D6D2D7C2D0E94B10D8E2D70
:100DE0009F2D6D2D7C2D0E94B10D8E2D9F2D6D2D73
:100DF0007C2D0E94B10D8E2D9F2D6D2D7C2D0E947E
:100E0000B10D8E2D9F2D6D2D7C2D0E94B10D8E2D3F
:100E10009F2D6D2D7C2D0E94B10D8E2D9F2D6D2D42
:100E20007C2D0E94B10D8E2D9F2D6D2D7C2D0E944D
:100E3000B10D8E2D9F2D6D2D7C2D0E94B10D8E2D0F
:100E40009F2D6D2D7C2D0E94B10D8E2D9F2D6D2D12
:100E50007C2D0E94B10D8E2D9F2D6D2D7C2D0E941D
:100E6000B10D8E2D9F2D6D2D7C2D0E94B10D8E2DDF
:100E70009F2D6D2D7C2D0E94B10D8E2D9F2D6D2DE2
:100E80007C2D0E94B10D8E2D9F2D6D2D7C2D0E94ED
:100E9000B10D8E2D9F2D6D2D7C2D0E94B10D8E2DAF
:100EA0009F2D6D2D7C2D0E94B10D8E2D9F2D6D2DB2
:100EB0007C2D0E94B10D8E2D9F2D6D2D7C2D0E94BD
:100EC000B10D8E2D9F2D6D2D7C2D0E94B10D8E2D7F
:100ED0009F2D6D2D7C2D0E94B10D8E2D9F2D6D2D82
:100EE0007C2D0E94B10D8E2D9F2D6D2D7C2D0E948D
:100EF000B10D8E2D9F2D6D2D7C2D0E94B10D8E2D4F
:100F00009F2D6D2D7C2D0E94B10D8E2D9F2D6D2D51
:100F10007C2D0E94B10D8E2D9F2D6D2D7C2D0E945C
:100F2000B10D8E2D9F2D6D2D7C2D0E94B10D8E2D1E
:100F30009F2D6D2D7C2D0E94B10D8E2D9F2D6D2D21
:100F40007C2D0E94B10D8E2D9F2D6D2D7C2D0E942C
:100F5000B10D8E2D9F2D6D2D7C2D0E94B10D8E2DEE
:100F60009F2D6D2D7C2D0E94B10D8E2D9F2D6D2DF1
:100F70007C2D0E94B10D8E2D9F2D6D2D7C2D0E94FC
:100F8000B10D8E2D9F2D6D2D7C2D0E94B10D8E2DBE
:100F90009F2D6D2D7C2D0E94B10D8E2D9F2D6D2DC1
:100FA0007C2D0E94B10D8E2D9F2D6D2D7C2D0E94CC
:100FB000B10D8E2D9F2D6D2D7C2D0E94B10D8E2D8E
:100FC0009F2D6D2D7C2D0E94B10D8E2D9F2D6D2D91
:100FD0007C2D0E94B10D8E2D9F2D6D2D7C2D0E949C
:100FE000B10D8E2D9F2D6D2D7C2D0E94B10D8E2D5E
:100FF0009F2D6D2D7C2D0E94B10D8E2D9F2D6D2D61
:101000007C2D0E94B10D8E2D9F2D6D2D7C2D0E946B
:10101000B10D8E2D9F2D6D2D7C2D0E94B10D8E2D2D
:101020009F2D6D2D7C2D0E94B10D8E2D9F2D6D2D30
:101030007C2D0E94B10D8E2D9F2D6D2D7C2D0E943B
:10104000B10D8E2D9F2D6D2D7C2D0E94B10D8E2DFD
:101050009F2D6D2D7C2D0E94B10D8E2D9F2D6D2D00
:101060007C2D0E94B10D8E2D9F2D6D2D7C2D0E940B
:10107000B10D8E2D9F2D6D2D7C2D0E94B10D8E2DCD
:101080009F2D6D2D7C2D0E94B10D8E2D9F2D6D2DD0
:101090007C2D0E94B10D8E2D9F2D6D2D7C2D0E94DB
:1010A000B10D8E2D9F2D6D2D7C2D0E94B10D8E2D9D
:1010B0009F2D6D2D7C2D0E94B10D8E2D9F2D6D2DA0
:1010C0007C2D0E94B10D8E2D9F2D6D2D7C2D0E94AB
:1010D000B10D8E2D9F2D6D2D7C2D0E94B10D8E2D6D
:1010E0009F2D6D2D7C2D0E94B10D8E2D9F2D6D2D70
:1010F0007C2D0E94B10D870180E0E82E81E0F82E62
:10110000C801B7010E94B10DC801B7010E94B10D1D
:10111000C801B7010E94B10DC801B7010E94B10D0D
:10112000C801B7010E94B10DC801B7010E94B10DFD
:10113000C801B7010E94B10DC801B7010E94B10DED
:10114000C801B7010E94B10DC801B7010E94B10DDD
:10115000C801B7010E94B10DC801B7010E94B10DCD
:10116000C801B7010E94B10DC801B7010E94B10DBD
:10117000C801B7010E94B10DC801B7010E94B10DAD
:10118000C801B7010E94B10DC801B7010E94B10D9D
:10119000C801B7010E94B10DC801B7010E94B10D8D
:1011A000C801B7010E94B10DC801B7010E94B10D7D
:1011B000C801B7010E94B10DC801B7010E94B10D6D
:1011C000C801B7010E94B10DC801B7010E94B10D5D
:1011D000C801B7010E94B10DC801B7010E94B10D4D
:1011E000C801B7010E94B10DC801B7010E94B10D3D
:1011F000C801B7010E94B10DC801B7010E94B10D2D
:10120000C801B7010E94B10DC801B7010E94B10D1C
:10121000C801B7010E94B10DC801B7010E94B10D0C
:10122000C801B7010E94B10DC801B7010E94B10DFC
:10123000C801B7010E94B10DC801B7010E94B10DEC
:10124000C801B7010E94B10DC801B7010E94B10DDC
:10125000C801B7010E94B10DC801B7010E94B10DCC
:10126000C801B7010E94B10DC801B7010E94B10DBC
:10127000C801B7010E94B10DC801B7010E94B10DAC
:10128000C801B7010E94B10DC801B7010E94B10D9C
:10129000C801B7010E94B10DC801B7010E94B10D8C
:1012A000C801B7010E94B10DC801B7010E94B10D7C
:1012B000C801B7010E94B10DC801B7010E94B10D6C
:1012C000C801B7010E94B10DC801B7010E94B10D5C
:1012D000C801B7010E94B10DC801B7010E94B10D4C
:1012E000C801B7010E94B10DC801B7010E94B10D3C
:1012F000C801B7010E94B10DC801B7010E94B10D2C
:10130000C801B7010E94B10DC801B7010E94B10D1B
:10131000C801B7010E94B10DC801B7010E94B10D0B
:10132000C801B7010E94B10DC801B7010E94B10DFB
:10133000C801B7010E94B10DC801B7010E94B10DEB
:10134000C801B7010E94B10DC801B7010E94B10DDB
:10135000C801B7010E94B10DC801B7010E94B10DCB
:10136000C801B7010E94B10DC801B7010E94B10DBB
:10137000C801B7010E94B10DC801B7010E94B10DAB
:10138000C801B7010E94B10DC801B7010E94B10D9B
:10139000C801B7010E94B10DC801B7010E94B10D8B
:1013A000C801B7010E94B10DC801B7010E94B10D7B
:1013B000C801B7010E94B10DC801B7010E94B10D6B
:1013C000C801B7010E94B10DC801B7010E94B10D5B
:1013D000C801B7010E94B10DC801B7010E94B10D4B
:1013E000C801B7010E94B10DC801B7010E94B10D3B
:1013F000C801B7010E94B10DC801B7010E94B10D2B
:10140000C801B7010E94B10DC801B7010E94B10D1A
:10141000C801B7010E94B10DC801B7010E94B10D0A
:10142000C801B7010E94B10DC801B7010E94B10DFA
:10143000C801B7010E94B10DC801B7010E94B10DEA
:10144000C801B7010E94B10DC801B7010E94B10DDA
:10145000C801B7010E94B10DC801B7010E94B10DCA
:10146000C801B7010E94B10DC801B7010E94B10DBA
:10147000C801B7010E94B10DC801B7010E94B10DAA
:10148000C801B7010E94B10DC801B7010E94B10D9A
:10149000C801B7010E94B10DC801B7010E94B10D8A
:1014A000C801B7010E94B10DC801B7010E94B10D7A
:1014B000C801B7010E94B10DC801B7010E94B10D6A
:1014C000C801B7010E94B10DC801B7010E94B10D5A
:1014D000C801B7010E94B10DC801B7010E94B10D4A
:1014E000C801B7010E94B10DC801B7010E94B10D3A
:1014F000C801B7010E94B10DC801B7010E94B10D2A
:10150000C801B7010E94B10DC801B7010E94B10D19
:10151000C801B7010E94B10DC801B7010E94B10D09
:10152000C801B7010E94B10DC801B7010E94B10DF9
:10153000C801B7010E94B10DC801B7010E94B10DE9
:10154000C801B7010E94B10DC801B7010E94B10DD9
:10155000C801B7010E94B10DC801B7010E94B10DC9
:10156000C801B7010E94B10DC801B7010E94B10DB9
:10157000C801B7010E94B10DC801B7010E94B10DA9
:10158000C801B7010E94B10DC801B7010E94B10D99
:10159000C801B7010E94B10DC801B7010E94B10D89
:1015A000C801B7010E94B10DC801B7010E94B10D79
:1015B000C801B7010E94B10DC801B7010E94B10D69
:1015C000C801B7010E94B10DC801B7010E94B10D59
:1015D000C801B7010E94B10DC801B7010E94B10D49
:1015E000C801B7010E94B10DC801B7010E94B10D39
:1015F000C801B7010E94B10DC801B7010E94B10D29
:10160000C801B7010E94B10DC801B7010E94B10D18
:10161000C801B7010E94B10DC801B7010E94B10D08
:10162000C801B7010E94B10DC801B7010E94B10DF8
:10163000C801B7010E94B10DC801B7010E94B10DE8
:10164000C801B7010E94B10DC801B7010E94B10DD8
:10165000C801B7010E94B10DC801B7010E94B10DC8
:10166000C801B7010E94B10D1F910F91FF90EF903B
:10167000DF90CF9008958DE061E00E941C0C0895EA
:101680001F920F920FB60F9211242F933F938F93B7
:101690009F93AF93BF938091A8019091A901A091CE
:1016A000AA01B091AB013091AC010196A11DB11D11
:1016B000232F2D5F2D3720F02D570196A11DB11D31
:1016C0002093AC018093A8019093A901A093AA0153
:1016D000B093AB018091A4019091A501A091A601C6
:1016E000B091A7010196A11DB11D8093A401909313
:1016F000A501A093A601B093A701BF91AF919F91BF
:101700008F913F912F910F900FBE0F901F901895C2
:101710009B01AC017FB7F8948091A4019091A50141
:10172000A091A601B091A70166B5A89B05C06F3F27
:1017300019F00196A11DB11D7FBFBA2FA92F982FB7
:101740008827860F911DA11DB11D62E0880F991F8A
:10175000AA1FBB1F6A95D1F7BC012DC0FFB7F89433
:101760008091A4019091A501A091A601B091A7013B
:10177000E6B5A89B05C0EF3F19F00196A11DB11D6C
:10178000FFBFBA2FA92F982F88278E0F911DA11D5B
:10179000B11DE2E0880F991FAA1FBB1FEA95D1F780
:1017A000861B970B885E9340C8F221503040404022
:1017B000504068517C4F211531054105510571F6A6
:1017C0000895789484B5826084BD84B5816084BDB9
:1017D00085B5826085BD85B5816085BDEEE6F0E0AA
:1017E000808181608083E1E8F0E010828081826006
:1017F0008083808181608083E0E8F0E08081816087
:101800008083E1EBF0E0808184608083E0EBF0E0B6
:10181000808181608083EAE7F0E08081846080835A
:101820008081826080838081816080838081806804
:1018300080831092C1000895482F50E0CA01865657
:101840009F4FFC0124914A575F4FFA0184918823EE
:10185000C1F0E82FF0E0EE0FFF1FE859FF4FA59110
:10186000B491662341F49FB7F8948C91209582231C
:101870008C939FBF08959FB7F8948C91822B8C9383
:101880009FBF0895482F50E0CA0182559F4FFC0129
:101890002491CA0186569F4FFC0134914A575F4FED
:1018A000FA019491992309F444C0222351F1233081
:1018B00071F0243028F42130A1F0223011F514C049
:1018C0002630B1F02730C1F02430D9F404C0809123
:1018D00080008F7703C0809180008F7D809380008F
:1018E00010C084B58F7702C084B58F7D84BD09C0D8
:1018F0008091B0008F7703C08091B0008F7D80937E
:10190000B000E92FF0E0EE0FFF1FEE58FF4FA5915A
:10191000B491662341F49FB7F8948C91309583235A
:101920008C939FBF08959FB7F8948C91832B8C93D1
:101930009FBF08951F920F920FB60F9211242F93FD
:101940003F934F938F939F93EF93FF934091C600E4
:10195000E0912D02F0912E0231969F012F77307089
:10196000319780912F02909130022817390739F072
:10197000E355FE4F408330932E0220932D02FF91BA
:10198000EF919F918F914F913F912F910F900FBEAB
:101990000F901F901895DC011296ED91FC91139712
:1019A000E058FF4F2191319180819181281B390BA3
:1019B0002F773070C9010895DC011296ED91FC91EA
:1019C0001397EE57FF4F2081318192918291E05819
:1019D000F0408217930719F42FEF3FEF05C0E20F95
:1019E000F31F8081282F30E0C9010895DC01129691
:1019F000ED91FC911397DF01AE57BF4F2D913C91B4
:101A00001197E058FF4F80819181E058F040821794
:101A1000930719F42FEF3FEF0BC0E20FF31F808104
:101A20002F5F3F4F2F7730702D933C93282F30E05E
:101A3000C9010895DC011296ED91FC911397EE57C0
:101A4000FF4F80819181929382930895FC01A0853C
:101A5000B18521898C9190E0022E02C095958795E1
:101A60000A94E2F780FFF6CF0484F585E02D6083C9
:101A7000089585E991E090933202809331028DEAD6
:101A800091E0909334028093330285EC90E0909340
:101A900036028093350284EC90E090933802809374
:101AA000370280EC90E090933A028093390281EC07
:101AB00090E090933C0280933B0286EC90E0909300
:101AC0003E0280933D0284E080933F0283E0809356
:101AD000400287E08093410285E08093420281E0EA
:101AE0008093430208950E94E10B0E943B0B0E94E9
:101AF0008C00FDCF0F931F93CF93DF938C01EB01ED
:101B000009C02196D801ED91FC910190F081E02D62
:101B1000C801099568816623A1F7DF91CF911F91D4
:101B20000F910895EF92FF920F931F93CF93DF933E
:101B30008C017B01EA010CC0D7016D917D01D801B8
:101B4000ED91FC910190F081E02DC801099521975C
:101B5000209791F7DF91CF911F910F91FF90EF9018
:101B60000895DC01ED91FC910280F381E02D09954F
:101B70000895EE0FFF1F0590F491E02D0994F8945D
:021B8000FFCF95
:101B820031323334353637383930616263646566F1
:101B92006768696A6B6C6D6E6F707172737475765B
:101BA2007778797A31323334353637383930616281
:101BB200636465666768696A6B6C6D6E6F7071727B
:101BC200737475767778797A3132333435363738BB
:101BD20039306162636465666768696A6B6C6D6EF1
:101BE2006F707172737475767778797A31323334B3
:101BF2003536373839306162636465666768696AA9
:101C02006B6C6D6E6F707172737475767778797AAA
:101C12000000000000260D7A0D920DCB0CF60CDCB4
:041C22000C1A0D008B
:00000001FF
