:100000000C9462000C948A000C948A000C948A0070
:100010000C948A000C948A000C948A000C948A0038
:100020000C948A000C948A000C948A000C948A0028
:100030000C948A000C948A000C948A000C948A0018
:100040000C94043C0C948A000C945E3D0C948A0041
:100050000C948A000C948A000C948A000C948A00F8
:100060000C948A000C948A000000000024002700F1
:100070002A0000000000250028002B0000000000DE
:1000800023002600290004040404040404040202DA
:100090000202020203030303030301020408102007
:1000A0004080010204081020010204081020000012
:1000B0000007000201000003040600000000000029
:1000C0000000FD3D11241FBECFEFD8E0DEBFCDBF45
:1000D00011E0A0E0B1E0EAE0FDE702C005900D927A
:1000E000A43AB107D9F712E0A4EAB1E001C01D9229
:1000F000A434B107E1F710E0C4ECD0E004C02297CB
:10010000FE010E947F3EC23CD107C9F70E94373EE4
:100110000C94833E0C940000CF92DF92EF92FF92FA
:100120000F931F938DE061E00E94063D68EE73E03F
:1001300080E090E00E944C3C8DE060E00E94063D33
:1001400068EE73E080E090E00E944C3C31E3E32EE7
:1001500032E0F32E00E011E0C701B8010E94753EC5
:10016000C701B8010E94753EC701B8010E94753EE3
:10017000C701B8010E94753EC701B8010E94753ED3
:10018000C701B8010E94753EC701B8010E94753EC3
:10019000C701B8010E94753EC701B8010E94753EB3
:1001A000C701B8010E94753EC701B8010E94753EA3
:1001B000C701B8010E94753EC701B8010E94753E93
:1001C000C701B8010E94753EC701B8010E94753E83
:1001D000C701B8010E94753EC701B8010E94753E73
:1001E000C701B8010E94753EC701B8010E94753E63
:1001F000C701B8010E94753EC701B8010E94753E53
:10020000C701B8010E94753EC701B8010E94753E42
:10021000C701B8010E94753EC701B8010E94753E32
:10022000C701B8010E94753EC701B8010E94753E22
:10023000C701B8010E94753EC701B8010E94753E12
:10024000C701B8010E94753EC701B8010E94753E02
:10025000C701B8010E94753EC701B8010E94753EF2
:10026000C701B8010E94753EC701B8010E94753EE2
:10027000C701B8010E94753EC701B8010E94753ED2
:10028000C701B8010E94753EC701B8010E94753EC2
:10029000C701B8010E94753EC701B8010E94753EB2
:1002A000C701B8010E94753EC701B8010E94753EA2
:1002B000C701B8010E94753EC701B8010E94753E92
:1002C000C701B8010E94753EC701B8010E94753E82
:1002D000C701B8010E94753EC701B8010E94753E72
:1002E000C701B8010E94753EC701B8010E94753E62
:1002F000C701B8010E94753EC701B8010E94753E52
:10030000C701B8010E94753EC701B8010E94753E41
:10031000C701B8010E94753EC701B8010E94753E31
:10032000C701B8010E94753EC701B8010E94753E21
:10033000C701B8010E94753EC701B8010E94753E11
:10034000C701B8010E94753EC701B8010E94753E01
:10035000C701B8010E94753EC701B8010E94753EF1
:10036000C701B8010E94753EC701B8010E94753EE1
:10037000C701B8010E94753EC701B8010E94753ED1
:10038000C701B8010E94753EC701B8010E94753EC1
:10039000C701B8010E94753EC701B8010E94753EB1
:1003A000C701B8010E94753EC701B8010E94753EA1
:1003B000C701B8010E94753EC701B8010E94753E91
:1003C000C701B8010E94753EC701B8010E94753E81
:1003D000C701B8010E94753EC701B8010E94753E71
:1003E000C701B8010E94753EC701B8010E94753E61
:1003F000C701B8010E94753EC701B8010E94753E51
:10040000C701B8010E94753EC701B8010E94753E40
:10041000C701B8010E94753EC701B8010E94753E30
:10042000C701B8010E94753EC701B8010E94753E20
:10043000C701B8010E94753EC701B8010E94753E10
:10044000C701B8010E94753EC701B8010E94753E00
:10045000C701B8010E94753EC701B8010E94753EF0
:10046000C701B8010E94753EC701B8010E94753EE0
:10047000C701B8010E94753EC701B8010E94753ED0
:10048000C701B8010E94753EC701B8010E94753EC0
:10049000C701B8010E94753EC701B8010E94753EB0
:1004A000C701B8010E94753EC701B8010E94753EA0
:1004B000C701B8010E94753EC701B8010E94753E90
:1004C000C701B8010E94753EC701B8010E94753E80
:1004D000C701B8010E94753EC701B8010E94753E70
:1004E000C701B8010E94753EC701B8010E94753E60
:1004F000C701B8010E94753EC701B8010E94753E50
:10050000C701B8010E94753EC701B8010E94753E3F
:10051000C701B8010E94753EC701B8010E94753E2F
:10052000C701B8010E94753EC701B8010E94753E1F
:10053000C701B8010E94753EC701B8010E94753E0F
:10054000C701B8010E94753EC701B8010E94753EFF
:10055000C701B8010E94753EC701B8010E94753EEF
:10056000C701B8010E94753EC701B8010E94753EDF
:10057000C701B8010E94753EC701B8010E94753ECF
:10058000C701B8010E94753EC701B8010E94753EBF
:10059000C701B8010E94753EC701B8010E94753EAF
:1005A000C701B8010E94753EC701B8010E94753E9F
:1005B000C701B8010E94753EC701B8010E94753E8F
:1005C000C701B8010E94753EC701B8010E94753E7F
:1005D000C701B8010E94753EC701B8010E94753E6F
:1005E000C701B8010E94753EC701B8010E94753E5F
:1005F000C701B8010E94753EC701B8010E94753E4F
:10060000C701B8010E94753EC701B8010E94753E3E
:10061000C701B8010E94753EC701B8010E94753E2E
:10062000C701B8010E94753EC701B8010E94753E1E
:10063000C701B8010E94753EC701B8010E94753E0E
:10064000C701B8010E94753EC701B8010E94753EFE
:10065000C701B8010E94753EC701B8010E94753EEE
:10066000C701B8010E94753EC701B8010E94753EDE
:10067000C701B8010E94753EC701B8010E94753ECE
:10068000C701B8010E94753EC701B8010E94753EBE
:10069000C701B8010E94753EC701B8010E94753EAE
:1006A000C701B8010E94753EC701B8010E94753E9E
:1006B000C701B8010E94753EC701B8010E94753E8E
:1006C000C701B8010E94753EC701B8010E94753E7E
:1006D000C701B8010E94753EC701B8010E94753E6E
:1006E000C701B8010E94753EC701B8010E94753E5E
:1006F000C701B8010E94753EC701B8010E94753E4E
:10070000C701B8010E94753EC701B8010E94753E3D
:10071000C701B8010E94753EC701B8010E94753E2D
:10072000C701B8010E94753EC701B8010E94753E1D
:10073000C701B8010E94753EC701B8010E94753E0D
:10074000C701B8010E94753EC701B8010E94753EFD
:10075000C701B8010E94753EC701B8010E94753EED
:10076000C701B8010E94753EC701B8010E94753EDD
:10077000C701B8010E94753EC701B8010E94753ECD
:10078000C701B8010E94753ED02EC12EC701602F4F
:10079000712F0E94753E8E2D9F2D6D2D7C2D0E94F8
:1007A000753E8E2D9F2D6D2D7C2D0E94753E8E2DBC
:1007B0009F2D6D2D7C2D0E94753E8E2D9F2D6D2DB4
:1007C0007C2D0E94753E8E2D9F2D6D2D7C2D0E94BF
:1007D000753E8E2D9F2D6D2D7C2D0E94753E8E2D8C
:1007E0009F2D6D2D7C2D0E94753E8E2D9F2D6D2D84
:1007F0007C2D0E94753E8E2D9F2D6D2D7C2D0E948F
:10080000753E8E2D9F2D6D2D7C2D0E94753E8E2D5B
:100810009F2D6D2D7C2D0E94753E8E2D9F2D6D2D53
:100820007C2D0E94753E8E2D9F2D6D2D7C2D0E945E
:10083000753E8E2D9F2D6D2D7C2D0E94753E8E2D2B
:100840009F2D6D2D7C2D0E94753E8E2D9F2D6D2D23
:100850007C2D0E94753E8E2D9F2D6D2D7C2D0E942E
:10086000753E8E2D9F2D6D2D7C2D0E94753E8E2DFB
:100870009F2D6D2D7C2D0E94753E8E2D9F2D6D2DF3
:100880007C2D0E94753E8E2D9F2D6D2D7C2D0E94FE
:10089000753E8E2D9F2D6D2D7C2D0E94753E8E2DCB
:1008A0009F2D6D2D7C2D0E94753E8E2D9F2D6D2DC3
:1008B0007C2D0E94753E8E2D9F2D6D2D7C2D0E94CE
:1008C000753E8E2D9F2D6D2D7C2D0E94753E8E2D9B
:1008D0009F2D6D2D7C2D0E94753E8E2D9F2D6D2D93
:1008E0007C2D0E94753E8E2D9F2D6D2D7C2D0E949E
:1008F000753E8E2D9F2D6D2D7C2D0E94753E8E2D6B
:100900009F2D6D2D7C2D0E94753E8E2D9F2D6D2D62
:100910007C2D0E94753E8E2D9F2D6D2D7C2D0E946D
:10092000753E8E2D9F2D6D2D7C2D0E94753E8E2D3A
:100930009F2D6D2D7C2D0E94753E8E2D9F2D6D2D32
:100940007C2D0E94753E8E2D9F2D6D2D7C2D0E943D
:10095000753E8E2D9F2D6D2D7C2D0E94753E8E2D0A
:100960009F2D6D2D7C2D0E94753E8E2D9F2D6D2D02
:100970007C2D0E94753E8E2D9F2D6D2D7C2D0E940D
:10098000753E8E2D9F2D6D2D7C2D0E94753E8E2DDA
:100990009F2D6D2D7C2D0E94753E8E2D9F2D6D2DD2
:1009A0007C2D0E94753E8E2D9F2D6D2D7C2D0E94DD
:1009B000753E8E2D9F2D6D2D7C2D0E94753E8E2DAA
:1009C0009F2D6D2D7C2D0E94753E8E2D9F2D6D2DA2
:1009D0007C2D0E94753E8E2D9F2D6D2D7C2D0E94AD
:1009E000753E8E2D9F2D6D2D7C2D0E94753E8E2D7A
:1009F0009F2D6D2D7C2D0E94753E8E2D9F2D6D2D72
:100A00007C2D0E94753E8E2D9F2D6D2D7C2D0E947C
:100A1000753E8E2D9F2D6D2D7C2D0E94753E8E2D49
:100A20009F2D6D2D7C2D0E94753E8E2D9F2D6D2D41
:100A30007C2D0E94753E8E2D9F2D6D2D7C2D0E944C
:100A4000753E8E2D9F2D6D2D7C2D0E94753E8E2D19
:100A50009F2D6D2D7C2D0E94753E8E2D9F2D6D2D11
:100A60007C2D0E94753E8E2D9F2D6D2D7C2D0E941C
:100A7000753E8E2D9F2D6D2D7C2D0E94753E8E2DE9
:100A80009F2D6D2D7C2D0E94753E8E2D9F2D6D2DE1
:100A90007C2D0E94753E8E2D9F2D6D2D7C2D0E94EC
:100AA000753E8E2D9F2D6D2D7C2D0E94753E8E2DB9
:100AB0009F2D6D2D7C2D0E94753E8E2D9F2D6D2DB1
:100AC0007C2D0E94753E8E2D9F2D6D2D7C2D0E94BC
:100AD000753E8E2D9F2D6D2D7C2D0E94753E8E2D89
:100AE0009F2D6D2D7C2D0E94753E8E2D9F2D6D2D81
:100AF0007C2D0E94753E8E2D9F2D6D2D7C2D0E948C
:100B0000753E8E2D9F2D6D2D7C2D0E94753E8E2D58
:100B10009F2D6D2D7C2D0E94753E8E2D9F2D6D2D50
:100B20007C2D0E94753E8E2D9F2D6D2D7C2D0E945B
:100B3000753E8E2D9F2D6D2D7C2D0E94753E8E2D28
:100B40009F2D6D2D7C2D0E94753E8E2D9F2D6D2D20
:100B50007C2D0E94753E8E2D9F2D6D2D7C2D0E942B
:100B6000753E8E2D9F2D6D2D7C2D0E94753E8E2DF8
:100B70009F2D6D2D7C2D0E94753E8E2D9F2D6D2DF0
:100B80007C2D0E94753E8E2D9F2D6D2D7C2D0E94FB
:100B9000753E8E2D9F2D6D2D7C2D0E94753E8E2DC8
:100BA0009F2D6D2D7C2D0E94753E8E2D9F2D6D2DC0
:100BB0007C2D0E94753E8E2D9F2D6D2D7C2D0E94CB
:100BC000753E8E2D9F2D6D2D7C2D0E94753E8E2D98
:100BD0009F2D6D2D7C2D0E94753E8E2D9F2D6D2D90
:100BE0007C2D0E94753E8E2D9F2D6D2D7C2D0E949B
:100BF000753E8E2D9F2D6D2D7C2D0E94753E8E2D68
:100C00009F2D6D2D7C2D0E94753E8E2D9F2D6D2D5F
:100C10007C2D0E94753E8E2D9F2D6D2D7C2D0E946A
:100C2000753E8E2D9F2D6D2D7C2D0E94753E8E2D37
:100C30009F2D6D2D7C2D0E94753E8E2D9F2D6D2D2F
:100C40007C2D0E94753E8E2D9F2D6D2D7C2D0E943A
:100C5000753E8E2D9F2D6D2D7C2D0E94753E8E2D07
:100C60009F2D6D2D7C2D0E94753E8E2D9F2D6D2DFF
:100C70007C2D0E94753E8E2D9F2D6D2D7C2D0E940A
:100C8000753E8E2D9F2D6D2D7C2D0E94753E8E2DD7
:100C90009F2D6D2D7C2D0E94753E8E2D9F2D6D2DCF
:100CA0007C2D0E94753E8E2D9F2D6D2D7C2D0E94DA
:100CB000753E8E2D9F2D6D2D7C2D0E94753E8E2DA7
:100CC0009F2D6D2D7C2D0E94753E8E2D9F2D6D2D9F
:100CD0007C2D0E94753E8E2D9F2D6D2D7C2D0E94AA
:100CE000753E8E2D9F2D6D2D7C2D0E94753E8E2D77
:100CF0009F2D6D2D7C2D0E94753E8E2D9F2D6D2D6F
:100D00007C2D0E94753E8E2D9F2D6D2D7C2D0E9479
:100D1000753E8E2D9F2D6D2D7C2D0E94753E8E2D46
:100D20009F2D6D2D7C2D0E94753E8E2D9F2D6D2D3E
:100D30007C2D0E94753E8E2D9F2D6D2D7C2D0E9449
:100D4000753E8E2D9F2D6D2D7C2D0E94753E8E2D16
:100D50009F2D6D2D7C2D0E94753E8E2D9F2D6D2D0E
:100D60007C2D0E94753E8E2D9F2D6D2D7C2D0E9419
:100D7000753E8E2D9F2D6D2D7C2D0E94753E8E2DE6
:100D80009F2D6D2D7C2D0E94753E8E2D9F2D6D2DDE
:100D90007C2D0E94753E8E2D9F2D6D2D7C2D0E94E9
:100DA000753E8E2D9F2D6D2D7C2D0E94753E8E2DB6
:100DB0009F2D6D2D7C2D0E94753E8E2D9F2D6D2DAE
:100DC0007C2D0E94753E8E2D9F2D6D2D7C2D0E94B9
:100DD000753E8E2D9F2D6D2D7C2D0E94753E8E2D86
:100DE0009F2D6D2D7C2D0E94753E8E2D9F2D6D2D7E
:100DF0007C2D0E94753E8E2D9F2D6D2D7C2D0E9489
:100E0000753E8E2D9F2D6D2D7C2D0E94753E8E2D55
:100E10009F2D6D2D7C2D0E94753E8E2D9F2D6D2D4D
:100E20007C2D0E94753E8E2D9F2D6D2D7C2D0E9458
:100E3000753E8E2D9F2D6D2D7C2D0E94753E8E2D25
:100E40009F2D6D2D7C2D0E94753E8E2D9F2D6D2D1D
:100E50007C2D0E94753E8E2D9F2D6D2D7C2D0E9428
:100E6000753E8E2D9F2D6D2D7C2D0E94753E8E2DF5
:100E70009F2D6D2D7C2D0E94753E8E2D9F2D6D2DED
:100E80007C2D0E94753E8E2D9F2D6D2D7C2D0E94F8
:100E9000753E8E2D9F2D6D2D7C2D0E94753E8E2DC5
:100EA0009F2D6D2D7C2D0E94753E8E2D9F2D6D2DBD
:100EB0007C2D0E94753E8E2D9F2D6D2D7C2D0E94C8
:100EC000753E8E2D9F2D6D2D7C2D0E94753E8E2D95
:100ED0009F2D6D2D7C2D0E94753E8E2D9F2D6D2D8D
:100EE0007C2D0E94753E8E2D9F2D6D2D7C2D0E9498
:100EF000753E8E2D9F2D6D2D7C2D0E94753E8E2D65
:100F00009F2D6D2D7C2D0E94753E8E2D9F2D6D2D5C
:100F10007C2D0E94753E8E2D9F2D6D2D7C2D0E9467
:100F2000753E8E2D9F2D6D2D7C2D0E94753E8E2D34
:100F30009F2D6D2D7C2D0E94753E8E2D9F2D6D2D2C
:100F40007C2D0E94753E8E2D9F2D6D2D7C2D0E9437
:100F5000753E8E2D9F2D6D2D7C2D0E94753E8E2D04
:100F60009F2D6D2D7C2D0E94753E8E2D9F2D6D2DFC
:100F70007C2D0E94753E8E2D9F2D6D2D7C2D0E9407
:100F8000753E8E2D9F2D6D2D7C2D0E94753E8E2DD4
:100F90009F2D6D2D7C2D0E94753E8E2D9F2D6D2DCC
:100FA0007C2D0E94753E8E2D9F2D6D2D7C2D0E94D7
:100FB000753E8E2D9F2D6D2D7C2D0E94753E8E2DA4
:100FC0009F2D6D2D7C2D0E94753E8E2D9F2D6D2D9C
:100FD0007C2D0E94753E8E2D9F2D6D2D7C2D0E94A7
:100FE000753E8E2D9F2D6D2D7C2D0E94753E8E2D74
:100FF0009F2D6D2D7C2D0E94753E8E2D9F2D6D2D6C
:101000007C2D0E94753E8E2D9F2D6D2D7C2D0E9476
:10101000753E8E2D9F2D6D2D7C2D0E94753E8E2D43
:101020009F2D6D2D7C2D0E94753E8E2D9F2D6D2D3B
:101030007C2D0E94753E8E2D9F2D6D2D7C2D0E9446
:10104000753E8E2D9F2D6D2D7C2D0E94753E8E2D13
:101050009F2D6D2D7C2D0E94753E8E2D9F2D6D2D0B
:101060007C2D0E94753E8E2D9F2D6D2D7C2D0E9416
:10107000753E8E2D9F2D6D2D7C2D0E94753E8E2DE3
:101080009F2D6D2D7C2D0E94753E8E2D9F2D6D2DDB
:101090007C2D0E94753E8E2D9F2D6D2D7C2D0E94E6
:1010A000753E8E2D9F2D6D2D7C2D0E94753E8E2DB3
:1010B0009F2D6D2D7C2D0E94753E8E2D9F2D6D2DAB
:1010C0007C2D0E94753E8E2D9F2D6D2D7C2D0E94B6
:1010D000753E8E2D9F2D6D2D7C2D0E94753E8E2D83
:1010E0009F2D6D2D7C2D0E94753E8E2D9F2D6D2D7B
:1010F0007C2D0E94753E870120E0E22E21E0F22E39
:10110000C801B7010E94753EC801B7010E94753E33
:10111000C801B7010E94753EC801B7010E94753E23
:10112000C801B7010E94753EC801B7010E94753E13
:10113000C801B7010E94753EC801B7010E94753E03
:10114000C801B7010E94753EC801B7010E94753EF3
:10115000C801B7010E94753EC801B7010E94753EE3
:10116000C801B7010E94753EC801B7010E94753ED3
:10117000C801B7010E94753EC801B7010E94753EC3
:10118000C801B7010E94753EC801B7010E94753EB3
:10119000C801B7010E94753EC801B7010E94753EA3
:1011A000C801B7010E94753EC801B7010E94753E93
:1011B000C801B7010E94753EC801B7010E94753E83
:1011C000C801B7010E94753EC801B7010E94753E73
:1011D000C801B7010E94753EC801B7010E94753E63
:1011E000C801B7010E94753EC801B7010E94753E53
:1011F000C801B7010E94753EC801B7010E94753E43
:10120000C801B7010E94753EC801B7010E94753E32
:10121000C801B7010E94753EC801B7010E94753E22
:10122000C801B7010E94753EC801B7010E94753E12
:10123000C801B7010E94753EC801B7010E94753E02
:10124000C801B7010E94753EC801B7010E94753EF2
:10125000C801B7010E94753EC801B7010E94753EE2
:10126000C801B7010E94753EC801B7010E94753ED2
:10127000C801B7010E94753EC801B7010E94753EC2
:10128000C801B7010E94753EC801B7010E94753EB2
:10129000C801B7010E94753EC801B7010E94753EA2
:1012A000C801B7010E94753EC801B7010E94753E92
:1012B000C801B7010E94753EC801B7010E94753E82
:1012C000C801B7010E94753EC801B7010E94753E72
:1012D000C801B7010E94753EC801B7010E94753E62
:1012E000C801B7010E94753EC801B7010E94753E52
:1012F000C801B7010E94753EC801B7010E94753E42
:10130000C801B7010E94753EC801B7010E94753E31
:10131000C801B7010E94753EC801B7010E94753E21
:10132000C801B7010E94753EC801B7010E94753E11
:10133000C801B7010E94753EC801B7010E94753E01
:10134000C801B7010E94753EC801B7010E94753EF1
:10135000C801B7010E94753EC801B7010E94753EE1
:10136000C801B7010E94753EC801B7010E94753ED1
:10137000C801B7010E94753EC801B7010E94753EC1
:10138000C801B7010E94753EC801B7010E94753EB1
:10139000C801B7010E94753EC801B7010E94753EA1
:1013A000C801B7010E94753EC801B7010E94753E91
:1013B000C801B7010E94753EC801B7010E94753E81
:1013C000C801B7010E94753EC801B7010E94753E71
:1013D000C801B7010E94753EC801B7010E94753E61
:1013E000C801B7010E94753EC801B7010E94753E51
:1013F000C801B7010E94753EC801B7010E94753E41
:10140000C801B7010E94753EC801B7010E94753E30
:10141000C801B7010E94753EC801B7010E94753E20
:10142000C801B7010E94753EC801B7010E94753E10
:10143000C801B7010E94753EC801B7010E94753E00
:10144000C801B7010E94753EC801B7010E94753EF0
:10145000C801B7010E94753EC801B7010E94753EE0
:10146000C801B7010E94753EC801B7010E94753ED0
:10147000C801B7010E94753EC801B7010E94753EC0
:10148000C801B7010E94753EC801B7010E94753EB0
:10149000C801B7010E94753EC801B7010E94753EA0
:1014A000C801B7010E94753EC801B7010E94753E90
:1014B000C801B7010E94753EC801B7010E94753E80
:1014C000C801B7010E94753EC801B7010E94753E70
:1014D000C801B7010E94753EC801B7010E94753E60
:1014E000C801B7010E94753EC801B7010E94753E50
:1014F000C801B7010E94753EC801B7010E94753E40
:10150000C801B7010E94753EC801B7010E94753E2F
:10151000C801B7010E94753EC801B7010E94753E1F
:10152000C801B7010E94753EC801B7010E94753E0F
:10153000C801B7010E94753EC801B7010E94753EFF
:10154000C801B7010E94753EC801B7010E94753EEF
:10155000C801B7010E94753EC801B7010E94753EDF
:10156000C801B7010E94753EC801B7010E94753ECF
:10157000C801B7010E94753EC801B7010E94753EBF
:10158000C801B7010E94753EC801B7010E94753EAF
:10159000C801B7010E94753EC801B7010E94753E9F
:1015A000C801B7010E94753EC801B7010E94753E8F
:1015B000C801B7010E94753EC801B7010E94753E7F
:1015C000C801B7010E94753EC801B7010E94753E6F
:1015D000C801B7010E94753EC801B7010E94753E5F
:1015E000C801B7010E94753EC801B7010E94753E4F
:1015F000C801B7010E94753EC801B7010E94753E3F
:10160000C801B7010E94753EC801B7010E94753E2E
:10161000C801B7010E94753EC801B7010E94753E1E
:10162000C801B7010E94753EC801B7010E94753E0E
:10163000C801B7010E94753EC801B7010E94753EFE
:10164000C801B7010E94753EC801B7010E94753EEE
:10165000C801B7010E94753EC801B7010E94753EDE
:10166000C801B7010E94753EC801B7010E94753ECE
:10167000C801B7010E94753EC801B7010E94753EBE
:10168000C801B7010E94753EC801B7010E94753EAE
:10169000C801B7010E94753EC801B7010E94753E9E
:1016A000C801B7010E94753EC801B7010E94753E8E
:1016B000C801B7010E94753EC801B7010E94753E7E
:1016C000C801B7010E94753EC801B7010E94753E6E
:1016D000C801B7010E94753EC801B7010E94753E5E
:1016E000C801B7010E94753EC801B7010E94753E4E
:1016F000C801B7010E94753EC801B7010E94753E3E
:10170000C801B7010E94753EC801B7010E94753E2D
:10171000C801B7010E94753EC801B7010E94753E1D
:10172000C801B7010E94753EC801B7010E94753E0D
:10173000C801B7010E94753EC801B7010E94753EFD
:10174000D02EC12E8D2D9C2D6E2D7F2D0E94753E8D
:101750008D2D9C2D6E2D7F2D0E94753E8D2D9C2DE7
:101760006E2D7F2D0E94753E8D2D9C2D6E2D7F2D13
:101770000E94753E8D2D9C2D6E2D7F2D0E94753EF5
:101780008D2D9C2D6E2D7F2D0E94753E8D2D9C2DB7
:101790006E2D7F2D0E94753E8D2D9C2D6E2D7F2DE3
:1017A0000E94753E8D2D9C2D6E2D7F2D0E94753EC5
:1017B0008D2D9C2D6E2D7F2D0E94753E8D2D9C2D87
:1017C0006E2D7F2D0E94753E8D2D9C2D6E2D7F2DB3
:1017D0000E94753E8D2D9C2D6E2D7F2D0E94753E95
:1017E0008D2D9C2D6E2D7F2D0E94753E8D2D9C2D57
:1017F0006E2D7F2D0E94753E8D2D9C2D6E2D7F2D83
:101800000E94753E8D2D9C2D6E2D7F2D0E94753E64
:101810008D2D9C2D6E2D7F2D0E94753E8D2D9C2D26
:101820006E2D7F2D0E94753E8D2D9C2D6E2D7F2D52
:101830000E94753E8D2D9C2D6E2D7F2D0E94753E34
:101840008D2D9C2D6E2D7F2D0E94753E8D2D9C2DF6
:101850006E2D7F2D0E94753E8D2D9C2D6E2D7F2D22
:101860000E94753E8D2D9C2D6E2D7F2D0E94753E04
:101870008D2D9C2D6E2D7F2D0E94753E8D2D9C2DC6
:101880006E2D7F2D0E94753E8D2D9C2D6E2D7F2DF2
:101890000E94753E8D2D9C2D6E2D7F2D0E94753ED4
:1018A0008D2D9C2D6E2D7F2D0E94753E8D2D9C2D96
:1018B0006E2D7F2D0E94753E8D2D9C2D6E2D7F2DC2
:1018C0000E94753E8D2D9C2D6E2D7F2D0E94753EA4
:1018D0008D2D9C2D6E2D7F2D0E94753E8D2D9C2D66
:1018E0006E2D7F2D0E94753E8D2D9C2D6E2D7F2D92
:1018F0000E94753E8D2D9C2D6E2D7F2D0E94753E74
:101900008D2D9C2D6E2D7F2D0E94753E8D2D9C2D35
:101910006E2D7F2D0E94753E8D2D9C2D6E2D7F2D61
:101920000E94753E8D2D9C2D6E2D7F2D0E94753E43
:101930008D2D9C2D6E2D7F2D0E94753E8D2D9C2D05
:101940006E2D7F2D0E94753E8D2D9C2D6E2D7F2D31
:101950000E94753E8D2D9C2D6E2D7F2D0E94753E13
:101960008D2D9C2D6E2D7F2D0E94753E8D2D9C2DD5
:101970006E2D7F2D0E94753E8D2D9C2D6E2D7F2D01
:101980000E94753E8D2D9C2D6E2D7F2D0E94753EE3
:101990008D2D9C2D6E2D7F2D0E94753E8D2D9C2DA5
:1019A0006E2D7F2D0E94753E8D2D9C2D6E2D7F2DD1
:1019B0000E94753E8D2D9C2D6E2D7F2D0E94753EB3
:1019C0008D2D9C2D6E2D7F2D0E94753E8D2D9C2D75
:1019D0006E2D7F2D0E94753E8D2D9C2D6E2D7F2DA1
:1019E0000E94753E8D2D9C2D6E2D7F2D0E94753E83
:1019F0008D2D9C2D6E2D7F2D0E94753E8D2D9C2D45
:101A00006E2D7F2D0E94753E8D2D9C2D6E2D7F2D70
:101A10000E94753E8D2D9C2D6E2D7F2D0E94753E52
:101A20008D2D9C2D6E2D7F2D0E94753E8D2D9C2D14
:101A30006E2D7F2D0E94753E8D2D9C2D6E2D7F2D40
:101A40000E94753E8D2D9C2D6E2D7F2D0E94753E22
:101A50008D2D9C2D6E2D7F2D0E94753E8D2D9C2DE4
:101A60006E2D7F2D0E94753E8D2D9C2D6E2D7F2D10
:101A70000E94753E8D2D9C2D6E2D7F2D0E94753EF2
:101A80008D2D9C2D6E2D7F2D0E94753E8D2D9C2DB4
:101A90006E2D7F2D0E94753E8D2D9C2D6E2D7F2DE0
:101AA0000E94753E8D2D9C2D6E2D7F2D0E94753EC2
:101AB0008D2D9C2D6E2D7F2D0E94753E8D2D9C2D84
:101AC0006E2D7F2D0E94753E8D2D9C2D6E2D7F2DB0
:101AD0000E94753E8D2D9C2D6E2D7F2D0E94753E92
:101AE0008D2D9C2D6E2D7F2D0E94753E8D2D9C2D54
:101AF0006E2D7F2D0E94753E8D2D9C2D6E2D7F2D80
:101B00000E94753E8D2D9C2D6E2D7F2D0E94753E61
:101B10008D2D9C2D6E2D7F2D0E94753E8D2D9C2D23
:101B20006E2D7F2D0E94753E8D2D9C2D6E2D7F2D4F
:101B30000E94753E8D2D9C2D6E2D7F2D0E94753E31
:101B40008D2D9C2D6E2D7F2D0E94753E8D2D9C2DF3
:101B50006E2D7F2D0E94753E8D2D9C2D6E2D7F2D1F
:101B60000E94753E8D2D9C2D6E2D7F2D0E94753E01
:101B70008D2D9C2D6E2D7F2D0E94753E8D2D9C2DC3
:101B80006E2D7F2D0E94753E8D2D9C2D6E2D7F2DEF
:101B90000E94753E8D2D9C2D6E2D7F2D0E94753ED1
:101BA0008D2D9C2D6E2D7F2D0E94753E8D2D9C2D93
:101BB0006E2D7F2D0E94753E8D2D9C2D6E2D7F2DBF
:101BC0000E94753E8D2D9C2D6E2D7F2D0E94753EA1
:101BD0008D2D9C2D6E2D7F2D0E94753E8D2D9C2D63
:101BE0006E2D7F2D0E94753E8D2D9C2D6E2D7F2D8F
:101BF0000E94753E8D2D9C2D6E2D7F2D0E94753E71
:101C00008D2D9C2D6E2D7F2D0E94753E8D2D9C2D32
:101C10006E2D7F2D0E94753E8D2D9C2D6E2D7F2D5E
:101C20000E94753E8D2D9C2D6E2D7F2D0E94753E40
:101C30008D2D9C2D6E2D7F2D0E94753E8D2D9C2D02
:101C40006E2D7F2D0E94753E8D2D9C2D6E2D7F2D2E
:101C50000E94753E8D2D9C2D6E2D7F2D0E94753E10
:101C60008D2D9C2D6E2D7F2D0E94753E8D2D9C2DD2
:101C70006E2D7F2D0E94753E8D2D9C2D6E2D7F2DFE
:101C80000E94753E8D2D9C2D6E2D7F2D0E94753EE0
:101C90008D2D9C2D6E2D7F2D0E94753E8D2D9C2DA2
:101CA0006E2D7F2D0E94753E8D2D9C2D6E2D7F2DCE
:101CB0000E94753E8D2D9C2D6E2D7F2D0E94753EB0
:101CC0008D2D9C2D6E2D7F2D0E94753E8D2D9C2D72
:101CD0006E2D7F2D0E94753E8D2D9C2D6E2D7F2D9E
:101CE0000E94753E8D2D9C2D6E2D7F2D0E94753E80
:101CF0008D2D9C2D6E2D7F2D0E94753E8D2D9C2D42
:101D00006E2D7F2D0E94753E8D2D9C2D6E2D7F2D6D
:101D10000E94753E8D2D9C2D6E2D7F2D0E94753E4F
:101D20008D2D9C2D6E2D7F2D0E94753E8D2D9C2D11
:101D30006E2D7F2D0E94753E8D2D9C2D6E2D7F2D3D
:101D40000E94753E8D2D9C2D6E2D7F2D0E94753E1F
:101D50008D2D9C2D6E2D7F2D0E94753E8D2D9C2DE1
:101D60006E2D7F2D0E94753E8D2D9C2D6E2D7F2D0D
:101D70000E94753E8D2D9C2D6E2D7F2D0E94753EEF
:101D80008D2D9C2D6E2D7F2D0E94753E8D2D9C2DB1
:101D90006E2D7F2D0E94753E8D2D9C2D6E2D7F2DDD
:101DA0000E94753E8D2D9C2D6E2D7F2D0E94753EBF
:101DB0008D2D9C2D6E2D7F2D0E94753E8D2D9C2D81
:101DC0006E2D7F2D0E94753E8D2D9C2D6E2D7F2DAD
:101DD0000E94753E8D2D9C2D6E2D7F2D0E94753E8F
:101DE0008D2D9C2D6E2D7F2D0E94753E8D2D9C2D51
:101DF0006E2D7F2D0E94753E8D2D9C2D6E2D7F2D7D
:101E00000E94753E8D2D9C2D6E2D7F2D0E94753E5E
:101E10008D2D9C2D6E2D7F2D0E94753E8D2D9C2D20
:101E20006E2D7F2D0E94753E8D2D9C2D6E2D7F2D4C
:101E30000E94753E8D2D9C2D6E2D7F2D0E94753E2E
:101E40008D2D9C2D6E2D7F2D0E94753E8D2D9C2DF0
:101E50006E2D7F2D0E94753E8D2D9C2D6E2D7F2D1C
:101E60000E94753E8D2D9C2D6E2D7F2D0E94753EFE
:101E70008D2D9C2D6E2D7F2D0E94753E8D2D9C2DC0
:101E80006E2D7F2D0E94753E8D2D9C2D6E2D7F2DEC
:101E90000E94753E8D2D9C2D6E2D7F2D0E94753ECE
:101EA0008D2D9C2D6E2D7F2D0E94753E8D2D9C2D90
:101EB0006E2D7F2D0E94753E8D2D9C2D6E2D7F2DBC
:101EC0000E94753E8D2D9C2D6E2D7F2D0E94753E9E
:101ED0008D2D9C2D6E2D7F2D0E94753E8D2D9C2D60
:101EE0006E2D7F2D0E94753E8D2D9C2D6E2D7F2D8C
:101EF0000E94753E8D2D9C2D6E2D7F2D0E94753E6E
:101F00008D2D9C2D6E2D7F2D0E94753E8D2D9C2D2F
:101F10006E2D7F2D0E94753E8D2D9C2D6E2D7F2D5B
:101F20000E94753E8D2D9C2D6E2D7F2D0E94753E3D
:101F30008D2D9C2D6E2D7F2D0E94753E8D2D9C2DFF
:101F40006E2D7F2D0E94753E8D2D9C2D6E2D7F2D2B
:101F50000E94753E8D2D9C2D6E2D7F2D0E94753E0D
:101F60008D2D9C2D6E2D7F2D0E94753E8D2D9C2DCF
:101F70006E2D7F2D0E94753E8D2D9C2D6E2D7F2DFB
:101F80000E94753E8D2D9C2D6E2D7F2D0E94753EDD
:101F90008D2D9C2D6E2D7F2D0E94753E8D2D9C2D9F
:101FA0006E2D7F2D0E94753E8D2D9C2D6E2D7F2DCB
:101FB0000E94753E8D2D9C2D6E2D7F2D0E94753EAD
:101FC0008D2D9C2D6E2D7F2D0E94753E8D2D9C2D6F
:101FD0006E2D7F2D0E94753E8D2D9C2D6E2D7F2D9B
:101FE0000E94753E8D2D9C2D6E2D7F2D0E94753E7D
:101FF0008D2D9C2D6E2D7F2D0E94753E8D2D9C2D3F
:102000006E2D7F2D0E94753E8D2D9C2D6E2D7F2D6A
:102010000E94753E8D2D9C2D6E2D7F2D0E94753E4C
:102020008D2D9C2D6E2D7F2D0E94753E8D2D9C2D0E
:102030006E2D7F2D0E94753E8D2D9C2D6E2D7F2D3A
:102040000E94753E8D2D9C2D6E2D7F2D0E94753E1C
:102050008D2D9C2D6E2D7F2D0E94753E8D2D9C2DDE
:102060006E2D7F2D0E94753E8D2D9C2D6E2D7F2D0A
:102070000E94753E8D2D9C2D6E2D7F2D0E94753EEC
:102080008D2D9C2D6E2D7F2D0E94753E8D2D9C2DAE
:102090006E2D7F2D0E94753E8D2D9C2D6E2D7F2DDA
:1020A0000E94753E8D2D9C2D6E2D7F2D0E94753EBC
:1020B00001E312E0C801B7010E94753EC801B701F3
:1020C0000E94753EC801B7010E94753EC801B70164
:1020D0000E94753EC801B7010E94753EC801B70154
:1020E0000E94753EC801B7010E94753EC801B70144
:1020F0000E94753EC801B7010E94753EC801B70134
:102100000E94753EC801B7010E94753EC801B70123
:102110000E94753EC801B7010E94753EC801B70113
:102120000E94753EC801B7010E94753EC801B70103
:102130000E94753EC801B7010E94753EC801B701F3
:102140000E94753EC801B7010E94753EC801B701E3
:102150000E94753EC801B7010E94753EC801B701D3
:102160000E94753EC801B7010E94753EC801B701C3
:102170000E94753EC801B7010E94753EC801B701B3
:102180000E94753EC801B7010E94753EC801B701A3
:102190000E94753EC801B7010E94753EC801B70193
:1021A0000E94753EC801B7010E94753EC801B70183
:1021B0000E94753EC801B7010E94753EC801B70173
:1021C0000E94753EC801B7010E94753EC801B70163
:1021D0000E94753EC801B7010E94753EC801B70153
:1021E0000E94753EC801B7010E94753EC801B70143
:1021F0000E94753EC801B7010E94753EC801B70133
:102200000E94753EC801B7010E94753EC801B70122
:102210000E94753EC801B7010E94753EC801B70112
:102220000E94753EC801B7010E94753EC801B70102
:102230000E94753EC801B7010E94753EC801B701F2
:102240000E94753EC801B7010E94753EC801B701E2
:102250000E94753EC801B7010E94753EC801B701D2
:102260000E94753EC801B7010E94753EC801B701C2
:102270000E94753EC801B7010E94753EC801B701B2
:102280000E94753EC801B7010E94753EC801B701A2
:102290000E94753EC801B7010E94753EC801B70192
:1022A0000E94753EC801B7010E94753EC801B70182
:1022B0000E94753EC801B7010E94753EC801B70172
:1022C0000E94753EC801B7010E94753EC801B70162
:1022D0000E94753EC801B7010E94753EC801B70152
:1022E0000E94753EC801B7010E94753EC801B70142
:1022F0000E94753EC801B7010E94753EC801B70132
:102300000E94753EC801B7010E94753EC801B70121
:102310000E94753EC801B7010E94753EC801B70111
:102320000E94753EC801B7010E94753EC801B70101
:102330000E94753EC801B7010E94753EC801B701F1
:102340000E94753EC801B7010E94753EC801B701E1
:102350000E94753EC801B7010E94753EC801B701D1
:102360000E94753EC801B7010E94753EC801B701C1
:102370000E94753EC801B7010E94753EC801B701B1
:102380000E94753EC801B7010E94753EC801B701A1
:102390000E94753EC801B7010E94753EC801B70191
:1023A0000E94753EC801B7010E94753EC801B70181
:1023B0000E94753EC801B7010E94753EC801B70171
:1023C0000E94753EC801B7010E94753EC801B70161
:1023D0000E94753EC801B7010E94753EC801B70151
:1023E0000E94753EC801B7010E94753EC801B70141
:1023F0000E94753EC801B7010E94753EC801B70131
:102400000E94753EC801B7010E94753EC801B70120
:102410000E94753EC801B7010E94753EC801B70110
:102420000E94753EC801B7010E94753EC801B70100
:102430000E94753EC801B7010E94753EC801B701F0
:102440000E94753EC801B7010E94753EC801B701E0
:102450000E94753EC801B7010E94753EC801B701D0
:102460000E94753EC801B7010E94753EC801B701C0
:102470000E94753EC801B7010E94753EC801B701B0
:102480000E94753EC801B7010E94753EC801B701A0
:102490000E94753EC801B7010E94753EC801B70190
:1024A0000E94753EC801B7010E94753EC801B70180
:1024B0000E94753EC801B7010E94753EC801B70170
:1024C0000E94753EC801B7010E94753EC801B70160
:1024D0000E94753EC801B7010E94753EC801B70150
:1024E0000E94753EC801B7010E94753EC801B70140
:1024F0000E94753EC801B7010E94753EC801B70130
:102500000E94753EC801B7010E94753EC801B7011F
:102510000E94753EC801B7010E94753EC801B7010F
:102520000E94753EC801B7010E94753EC801B701FF
:102530000E94753EC801B7010E94753EC801B701EF
:102540000E94753EC801B7010E94753EC801B701DF
:102550000E94753EC801B7010E94753EC801B701CF
:102560000E94753EC801B7010E94753EC801B701BF
:102570000E94753EC801B7010E94753EC801B701AF
:102580000E94753EC801B7010E94753EC801B7019F
:102590000E94753EC801B7010E94753EC801B7018F
:1025A0000E94753EC801B7010E94753EC801B7017F
:1025B0000E94753EC801B7010E94753EC801B7016F
:1025C0000E94753EC801B7010E94753EC801B7015F
:1025D0000E94753EC801B7010E94753EC801B7014F
:1025E0000E94753EC801B7010E94753EC801B7013F
:1025F0000E94753EC801B7010E94753EC801B7012F
:102600000E94753EC801B7010E94753EC801B7011E
:102610000E94753EC801B7010E94753EC801B7010E
:102620000E94753EC801B7010E94753EC801B701FE
:102630000E94753EC801B7010E94753EC801B701EE
:102640000E94753EC801B7010E94753EC801B701DE
:102650000E94753EC801B7010E94753EC801B701CE
:102660000E94753EC801B7010E94753EC801B701BE
:102670000E94753EC801B7010E94753EC801B701AE
:102680000E94753EC801B7010E94753EC801B7019E
:102690000E94753EC801B7010E94753EC801B7018E
:1026A0000E94753EC801B7010E94753EC801B7017E
:1026B0000E94753EC801B7010E94753EC801B7016E
:1026C0000E94753EC801B7010E94753EC801B7015E
:1026D0000E94753EC801B7010E94753EC801B7014E
:1026E0000E94753EC801B7010E94753EC801B7013E
:1026F0000E94753E780100E011E0C701B8010E9418
:10270000753EC701B8010E94753EC701B8010E941D
:10271000753EC701B8010E94753EC701B8010E940D
:10272000753EC701B8010E94753EC701B8010E94FD
:10273000753EC701B8010E94753EC701B8010E94ED
:10274000753EC701B8010E94753EC701B8010E94DD
:10275000753EC701B8010E94753EC701B8010E94CD
:10276000753EC701B8010E94753EC701B8010E94BD
:10277000753EC701B8010E94753EC701B8010E94AD
:10278000753EC701B8010E94753EC701B8010E949D
:10279000753EC701B8010E94753EC701B8010E948D
:1027A000753EC701B8010E94753EC701B8010E947D
:1027B000753EC701B8010E94753EC701B8010E946D
:1027C000753EC701B8010E94753EC701B8010E945D
:1027D000753EC701B8010E94753EC701B8010E944D
:1027E000753EC701B8010E94753EC701B8010E943D
:1027F000753EC701B8010E94753EC701B8010E942D
:10280000753EC701B8010E94753EC701B8010E941C
:10281000753EC701B8010E94753EC701B8010E940C
:10282000753EC701B8010E94753EC701B8010E94FC
:10283000753EC701B8010E94753EC701B8010E94EC
:10284000753EC701B8010E94753EC701B8010E94DC
:10285000753EC701B8010E94753EC701B8010E94CC
:10286000753EC701B8010E94753EC701B8010E94BC
:10287000753EC701B8010E94753EC701B8010E94AC
:10288000753EC701B8010E94753EC701B8010E949C
:10289000753EC701B8010E94753EC701B8010E948C
:1028A000753EC701B8010E94753EC701B8010E947C
:1028B000753EC701B8010E94753EC701B8010E946C
:1028C000753EC701B8010E94753EC701B8010E945C
:1028D000753EC701B8010E94753EC701B8010E944C
:1028E000753EC701B8010E94753EC701B8010E943C
:1028F000753EC701B8010E94753EC701B8010E942C
:10290000753EC701B8010E94753EC701B8010E941B
:10291000753EC701B8010E94753EC701B8010E940B
:10292000753EC701B8010E94753EC701B8010E94FB
:10293000753EC701B8010E94753EC701B8010E94EB
:10294000753EC701B8010E94753EC701B8010E94DB
:10295000753EC701B8010E94753EC701B8010E94CB
:10296000753EC701B8010E94753EC701B8010E94BB
:10297000753EC701B8010E94753EC701B8010E94AB
:10298000753EC701B8010E94753EC701B8010E949B
:10299000753EC701B8010E94753EC701B8010E948B
:1029A000753EC701B8010E94753EC701B8010E947B
:1029B000753EC701B8010E94753EC701B8010E946B
:1029C000753EC701B8010E94753EC701B8010E945B
:1029D000753EC701B8010E94753EC701B8010E944B
:1029E000753EC701B8010E94753EC701B8010E943B
:1029F000753EC701B8010E94753EC701B8010E942B
:102A0000753EC701B8010E94753EC701B8010E941A
:102A1000753EC701B8010E94753EC701B8010E940A
:102A2000753EC701B8010E94753EC701B8010E94FA
:102A3000753EC701B8010E94753EC701B8010E94EA
:102A4000753EC701B8010E94753EC701B8010E94DA
:102A5000753EC701B8010E94753EC701B8010E94CA
:102A6000753EC701B8010E94753EC701B8010E94BA
:102A7000753EC701B8010E94753EC701B8010E94AA
:102A8000753EC701B8010E94753EC701B8010E949A
:102A9000753EC701B8010E94753EC701B8010E948A
:102AA000753EC701B8010E94753EC701B8010E947A
:102AB000753EC701B8010E94753EC701B8010E946A
:102AC000753EC701B8010E94753EC701B8010E945A
:102AD000753EC701B8010E94753EC701B8010E944A
:102AE000753EC701B8010E94753EC701B8010E943A
:102AF000753EC701B8010E94753EC701B8010E942A
:102B0000753EC701B8010E94753EC701B8010E9419
:102B1000753EC701B8010E94753EC701B8010E9409
:102B2000753EC701B8010E94753EC701B8010E94F9
:102B3000753EC701B8010E94753EC701B8010E94E9
:102B4000753EC701B8010E94753EC701B8010E94D9
:102B5000753EC701B8010E94753EC701B8010E94C9
:102B6000753EC701B8010E94753EC701B8010E94B9
:102B7000753EC701B8010E94753EC701B8010E94A9
:102B8000753EC701B8010E94753EC701B8010E9499
:102B9000753EC701B8010E94753EC701B8010E9489
:102BA000753EC701B8010E94753EC701B8010E9479
:102BB000753EC701B8010E94753EC701B8010E9469
:102BC000753EC701B8010E94753EC701B8010E9459
:102BD000753EC701B8010E94753EC701B8010E9449
:102BE000753EC701B8010E94753EC701B8010E9439
:102BF000753EC701B8010E94753EC701B8010E9429
:102C0000753EC701B8010E94753EC701B8010E9418
:102C1000753EC701B8010E94753EC701B8010E9408
:102C2000753EC701B8010E94753EC701B8010E94F8
:102C3000753EC701B8010E94753EC701B8010E94E8
:102C4000753EC701B8010E94753EC701B8010E94D8
:102C5000753EC701B8010E94753EC701B8010E94C8
:102C6000753EC701B8010E94753EC701B8010E94B8
:102C7000753EC701B8010E94753EC701B8010E94A8
:102C8000753EC701B8010E94753EC701B8010E9498
:102C9000753EC701B8010E94753EC701B8010E9488
:102CA000753EC701B8010E94753EC701B8010E9478
:102CB000753EC701B8010E94753EC701B8010E9468
:102CC000753EC701B8010E94753EC701B8010E9458
:102CD000753EC701B8010E94753EC701B8010E9448
:102CE000753EC701B8010E94753EC701B8010E9438
:102CF000753EC701B8010E94753EC701B8010E9428
:102D0000753EC701B8010E94753EC701B8010E9417
:102D1000753EC701B8010E94753EC701B8010E9407
:102D2000753EC701B8010E94753EC701B8010E94F7
:102D3000753EC701B8010E94753ED02EC12EC70155
:102D4000602F712F0E94753E8E2D9F2D6D2D7C2D35
:102D50000E94753E8E2D9F2D6D2D7C2D0E94753EFF
:102D60008E2D9F2D6D2D7C2D0E94753E8E2D9F2DBD
:102D70006D2D7C2D0E94753E8E2D9F2D6D2D7C2DF1
:102D80000E94753E8E2D9F2D6D2D7C2D0E94753ECF
:102D90008E2D9F2D6D2D7C2D0E94753E8E2D9F2D8D
:102DA0006D2D7C2D0E94753E8E2D9F2D6D2D7C2DC1
:102DB0000E94753E8E2D9F2D6D2D7C2D0E94753E9F
:102DC0008E2D9F2D6D2D7C2D0E94753E8E2D9F2D5D
:102DD0006D2D7C2D0E94753E8E2D9F2D6D2D7C2D91
:102DE0000E94753E8E2D9F2D6D2D7C2D0E94753E6F
:102DF0008E2D9F2D6D2D7C2D0E94753E8E2D9F2D2D
:102E00006D2D7C2D0E94753E8E2D9F2D6D2D7C2D60
:102E10000E94753E8E2D9F2D6D2D7C2D0E94753E3E
:102E20008E2D9F2D6D2D7C2D0E94753E8E2D9F2DFC
:102E30006D2D7C2D0E94753E8E2D9F2D6D2D7C2D30
:102E40000E94753E8E2D9F2D6D2D7C2D0E94753E0E
:102E50008E2D9F2D6D2D7C2D0E94753E8E2D9F2DCC
:102E60006D2D7C2D0E94753E8E2D9F2D6D2D7C2D00
:102E70000E94753E8E2D9F2D6D2D7C2D0E94753EDE
:102E80008E2D9F2D6D2D7C2D0E94753E8E2D9F2D9C
:102E90006D2D7C2D0E94753E8E2D9F2D6D2D7C2DD0
:102EA0000E94753E8E2D9F2D6D2D7C2D0E94753EAE
:102EB0008E2D9F2D6D2D7C2D0E94753E8E2D9F2D6C
:102EC0006D2D7C2D0E94753E8E2D9F2D6D2D7C2DA0
:102ED0000E94753E8E2D9F2D6D2D7C2D0E94753E7E
:102EE0008E2D9F2D6D2D7C2D0E94753E8E2D9F2D3C
:102EF0006D2D7C2D0E94753E8E2D9F2D6D2D7C2D70
:102F00000E94753E8E2D9F2D6D2D7C2D0E94753E4D
:102F10008E2D9F2D6D2D7C2D0E94753E8E2D9F2D0B
:102F20006D2D7C2D0E94753E8E2D9F2D6D2D7C2D3F
:102F30000E94753E8E2D9F2D6D2D7C2D0E94753E1D
:102F40008E2D9F2D6D2D7C2D0E94753E8E2D9F2DDB
:102F50006D2D7C2D0E94753E8E2D9F2D6D2D7C2D0F
:102F60000E94753E8E2D9F2D6D2D7C2D0E94753EED
:102F70008E2D9F2D6D2D7C2D0E94753E8E2D9F2DAB
:102F80006D2D7C2D0E94753E8E2D9F2D6D2D7C2DDF
:102F90000E94753E8E2D9F2D6D2D7C2D0E94753EBD
:102FA0008E2D9F2D6D2D7C2D0E94753E8E2D9F2D7B
:102FB0006D2D7C2D0E94753E8E2D9F2D6D2D7C2DAF
:102FC0000E94753E8E2D9F2D6D2D7C2D0E94753E8D
:102FD0008E2D9F2D6D2D7C2D0E94753E8E2D9F2D4B
:102FE0006D2D7C2D0E94753E8E2D9F2D6D2D7C2D7F
:102FF0000E94753E8E2D9F2D6D2D7C2D0E94753E5D
:103000008E2D9F2D6D2D7C2D0E94753E8E2D9F2D1A
:103010006D2D7C2D0E94753E8E2D9F2D6D2D7C2D4E
:103020000E94753E8E2D9F2D6D2D7C2D0E94753E2C
:103030008E2D9F2D6D2D7C2D0E94753E8E2D9F2DEA
:103040006D2D7C2D0E94753E8E2D9F2D6D2D7C2D1E
:103050000E94753E8E2D9F2D6D2D7C2D0E94753EFC
:103060008E2D9F2D6D2D7C2D0E94753E8E2D9F2DBA
:103070006D2D7C2D0E94753E8E2D9F2D6D2D7C2DEE
:103080000E94753E8E2D9F2D6D2D7C2D0E94753ECC
:103090008E2D9F2D6D2D7C2D0E94753E8E2D9F2D8A
:1030A0006D2D7C2D0E94753E8E2D9F2D6D2D7C2DBE
:1030B0000E94753E8E2D9F2D6D2D7C2D0E94753E9C
:1030C0008E2D9F2D6D2D7C2D0E94753E8E2D9F2D5A
:1030D0006D2D7C2D0E94753E8E2D9F2D6D2D7C2D8E
:1030E0000E94753E8E2D9F2D6D2D7C2D0E94753E6C
:1030F0008E2D9F2D6D2D7C2D0E94753E8E2D9F2D2A
:103100006D2D7C2D0E94753E8E2D9F2D6D2D7C2D5D
:103110000E94753E8E2D9F2D6D2D7C2D0E94753E3B
:103120008E2D9F2D6D2D7C2D0E94753E8E2D9F2DF9
:103130006D2D7C2D0E94753E8E2D9F2D6D2D7C2D2D
:103140000E94753E8E2D9F2D6D2D7C2D0E94753E0B
:103150008E2D9F2D6D2D7C2D0E94753E8E2D9F2DC9
:103160006D2D7C2D0E94753E8E2D9F2D6D2D7C2DFD
:103170000E94753E8E2D9F2D6D2D7C2D0E94753EDB
:103180008E2D9F2D6D2D7C2D0E94753E8E2D9F2D99
:103190006D2D7C2D0E94753E8E2D9F2D6D2D7C2DCD
:1031A0000E94753E8E2D9F2D6D2D7C2D0E94753EAB
:1031B0008E2D9F2D6D2D7C2D0E94753E8E2D9F2D69
:1031C0006D2D7C2D0E94753E8E2D9F2D6D2D7C2D9D
:1031D0000E94753E8E2D9F2D6D2D7C2D0E94753E7B
:1031E0008E2D9F2D6D2D7C2D0E94753E8E2D9F2D39
:1031F0006D2D7C2D0E94753E8E2D9F2D6D2D7C2D6D
:103200000E94753E8E2D9F2D6D2D7C2D0E94753E4A
:103210008E2D9F2D6D2D7C2D0E94753E8E2D9F2D08
:103220006D2D7C2D0E94753E8E2D9F2D6D2D7C2D3C
:103230000E94753E8E2D9F2D6D2D7C2D0E94753E1A
:103240008E2D9F2D6D2D7C2D0E94753E8E2D9F2DD8
:103250006D2D7C2D0E94753E8E2D9F2D6D2D7C2D0C
:103260000E94753E8E2D9F2D6D2D7C2D0E94753EEA
:103270008E2D9F2D6D2D7C2D0E94753E8E2D9F2DA8
:103280006D2D7C2D0E94753E8E2D9F2D6D2D7C2DDC
:103290000E94753E8E2D9F2D6D2D7C2D0E94753EBA
:1032A0008E2D9F2D6D2D7C2D0E94753E8E2D9F2D78
:1032B0006D2D7C2D0E94753E8E2D9F2D6D2D7C2DAC
:1032C0000E94753E8E2D9F2D6D2D7C2D0E94753E8A
:1032D0008E2D9F2D6D2D7C2D0E94753E8E2D9F2D48
:1032E0006D2D7C2D0E94753E8E2D9F2D6D2D7C2D7C
:1032F0000E94753E8E2D9F2D6D2D7C2D0E94753E5A
:103300008E2D9F2D6D2D7C2D0E94753E8E2D9F2D17
:103310006D2D7C2D0E94753E8E2D9F2D6D2D7C2D4B
:103320000E94753E8E2D9F2D6D2D7C2D0E94753E29
:103330008E2D9F2D6D2D7C2D0E94753E8E2D9F2DE7
:103340006D2D7C2D0E94753E8E2D9F2D6D2D7C2D1B
:103350000E94753E8E2D9F2D6D2D7C2D0E94753EF9
:103360008E2D9F2D6D2D7C2D0E94753E8E2D9F2DB7
:103370006D2D7C2D0E94753E8E2D9F2D6D2D7C2DEB
:103380000E94753E8E2D9F2D6D2D7C2D0E94753EC9
:103390008E2D9F2D6D2D7C2D0E94753E8E2D9F2D87
:1033A0006D2D7C2D0E94753E8E2D9F2D6D2D7C2DBB
:1033B0000E94753E8E2D9F2D6D2D7C2D0E94753E99
:1033C0008E2D9F2D6D2D7C2D0E94753E8E2D9F2D57
:1033D0006D2D7C2D0E94753E8E2D9F2D6D2D7C2D8B
:1033E0000E94753E8E2D9F2D6D2D7C2D0E94753E69
:1033F0008E2D9F2D6D2D7C2D0E94753E8E2D9F2D27
:103400006D2D7C2D0E94753E8E2D9F2D6D2D7C2D5A
:103410000E94753E8E2D9F2D6D2D7C2D0E94753E38
:103420008E2D9F2D6D2D7C2D0E94753E8E2D9F2DF6
:103430006D2D7C2D0E94753E8E2D9F2D6D2D7C2D2A
:103440000E94753E8E2D9F2D6D2D7C2D0E94753E08
:103450008E2D9F2D6D2D7C2D0E94753E8E2D9F2DC6
:103460006D2D7C2D0E94753E8E2D9F2D6D2D7C2DFA
:103470000E94753E8E2D9F2D6D2D7C2D0E94753ED8
:103480008E2D9F2D6D2D7C2D0E94753E8E2D9F2D96
:103490006D2D7C2D0E94753E8E2D9F2D6D2D7C2DCA
:1034A0000E94753E8E2D9F2D6D2D7C2D0E94753EA8
:1034B0008E2D9F2D6D2D7C2D0E94753E8E2D9F2D66
:1034C0006D2D7C2D0E94753E8E2D9F2D6D2D7C2D9A
:1034D0000E94753E8E2D9F2D6D2D7C2D0E94753E78
:1034E0008E2D9F2D6D2D7C2D0E94753E8E2D9F2D36
:1034F0006D2D7C2D0E94753E8E2D9F2D6D2D7C2D6A
:103500000E94753E8E2D9F2D6D2D7C2D0E94753E47
:103510008E2D9F2D6D2D7C2D0E94753E8E2D9F2D05
:103520006D2D7C2D0E94753E8E2D9F2D6D2D7C2D39
:103530000E94753E8E2D9F2D6D2D7C2D0E94753E17
:103540008E2D9F2D6D2D7C2D0E94753E8E2D9F2DD5
:103550006D2D7C2D0E94753E8E2D9F2D6D2D7C2D09
:103560000E94753E8E2D9F2D6D2D7C2D0E94753EE7
:103570008E2D9F2D6D2D7C2D0E94753E8E2D9F2DA5
:103580006D2D7C2D0E94753E8E2D9F2D6D2D7C2DD9
:103590000E94753E8E2D9F2D6D2D7C2D0E94753EB7
:1035A0008E2D9F2D6D2D7C2D0E94753E8E2D9F2D75
:1035B0006D2D7C2D0E94753E8E2D9F2D6D2D7C2DA9
:1035C0000E94753E8E2D9F2D6D2D7C2D0E94753E87
:1035D0008E2D9F2D6D2D7C2D0E94753E8E2D9F2D45
:1035E0006D2D7C2D0E94753E8E2D9F2D6D2D7C2D79
:1035F0000E94753E8E2D9F2D6D2D7C2D0E94753E57
:103600008E2D9F2D6D2D7C2D0E94753E8E2D9F2D14
:103610006D2D7C2D0E94753E8E2D9F2D6D2D7C2D48
:103620000E94753E8E2D9F2D6D2D7C2D0E94753E26
:103630008E2D9F2D6D2D7C2D0E94753E8E2D9F2DE4
:103640006D2D7C2D0E94753E8E2D9F2D6D2D7C2D18
:103650000E94753E8E2D9F2D6D2D7C2D0E94753EF6
:103660008E2D9F2D6D2D7C2D0E94753E8E2D9F2DB4
:103670006D2D7C2D0E94753E8E2D9F2D6D2D7C2DE8
:103680000E94753E8E2D9F2D6D2D7C2D0E94753EC6
:103690008E2D9F2D6D2D7C2D0E94753E8E2D9F2D84
:1036A0006D2D7C2D0E94753E870190E0E92E91E002
:1036B000F92EC801B7010E94753EC801B7010E94EA
:1036C000753EC801B7010E94753EC801B7010E944E
:1036D000753EC801B7010E94753EC801B7010E943E
:1036E000753EC801B7010E94753EC801B7010E942E
:1036F000753EC801B7010E94753EC801B7010E941E
:10370000753EC801B7010E94753EC801B7010E940D
:10371000753EC801B7010E94753EC801B7010E94FD
:10372000753EC801B7010E94753EC801B7010E94ED
:10373000753EC801B7010E94753EC801B7010E94DD
:10374000753EC801B7010E94753EC801B7010E94CD
:10375000753EC801B7010E94753EC801B7010E94BD
:10376000753EC801B7010E94753EC801B7010E94AD
:10377000753EC801B7010E94753EC801B7010E949D
:10378000753EC801B7010E94753EC801B7010E948D
:10379000753EC801B7010E94753EC801B7010E947D
:1037A000753EC801B7010E94753EC801B7010E946D
:1037B000753EC801B7010E94753EC801B7010E945D
:1037C000753EC801B7010E94753EC801B7010E944D
:1037D000753EC801B7010E94753EC801B7010E943D
:1037E000753EC801B7010E94753EC801B7010E942D
:1037F000753EC801B7010E94753EC801B7010E941D
:10380000753EC801B7010E94753EC801B7010E940C
:10381000753EC801B7010E94753EC801B7010E94FC
:10382000753EC801B7010E94753EC801B7010E94EC
:10383000753EC801B7010E94753EC801B7010E94DC
:10384000753EC801B7010E94753EC801B7010E94CC
:10385000753EC801B7010E94753EC801B7010E94BC
:10386000753EC801B7010E94753EC801B7010E94AC
:10387000753EC801B7010E94753EC801B7010E949C
:10388000753EC801B7010E94753EC801B7010E948C
:10389000753EC801B7010E94753EC801B7010E947C
:1038A000753EC801B7010E94753EC801B7010E946C
:1038B000753EC801B7010E94753EC801B7010E945C
:1038C000753EC801B7010E94753EC801B7010E944C
:1038D000753EC801B7010E94753EC801B7010E943C
:1038E000753EC801B7010E94753EC801B7010E942C
:1038F000753EC801B7010E94753EC801B7010E941C
:10390000753EC801B7010E94753EC801B7010E940B
:10391000753EC801B7010E94753EC801B7010E94FB
:10392000753EC801B7010E94753EC801B7010E94EB
:10393000753EC801B7010E94753EC801B7010E94DB
:10394000753EC801B7010E94753EC801B7010E94CB
:10395000753EC801B7010E94753EC801B7010E94BB
:10396000753EC801B7010E94753EC801B7010E94AB
:10397000753EC801B7010E94753EC801B7010E949B
:10398000753EC801B7010E94753EC801B7010E948B
:10399000753EC801B7010E94753EC801B7010E947B
:1039A000753EC801B7010E94753EC801B7010E946B
:1039B000753EC801B7010E94753EC801B7010E945B
:1039C000753EC801B7010E94753EC801B7010E944B
:1039D000753EC801B7010E94753EC801B7010E943B
:1039E000753EC801B7010E94753EC801B7010E942B
:1039F000753EC801B7010E94753EC801B7010E941B
:103A0000753EC801B7010E94753EC801B7010E940A
:103A1000753EC801B7010E94753EC801B7010E94FA
:103A2000753EC801B7010E94753EC801B7010E94EA
:103A3000753EC801B7010E94753EC801B7010E94DA
:103A4000753EC801B7010E94753EC801B7010E94CA
:103A5000753EC801B7010E94753EC801B7010E94BA
:103A6000753EC801B7010E94753EC801B7010E94AA
:103A7000753EC801B7010E94753EC801B7010E949A
:103A8000753EC801B7010E94753EC801B7010E948A
:103A9000753EC801B7010E94753EC801B7010E947A
:103AA000753EC801B7010E94753EC801B7010E946A
:103AB000753EC801B7010E94753EC801B7010E945A
:103AC000753EC801B7010E94753EC801B7010E944A
:103AD000753EC801B7010E94753EC801B7010E943A
:103AE000753EC801B7010E94753EC801B7010E942A
:103AF000753EC801B7010E94753EC801B7010E941A
:103B0000753EC801B7010E94753EC801B7010E9409
:103B1000753EC801B7010E94753EC801B7010E94F9
:103B2000753EC801B7010E94753EC801B7010E94E9
:103B3000753EC801B7010E94753EC801B7010E94D9
:103B4000753EC801B7010E94753EC801B7010E94C9
:103B5000753EC801B7010E94753EC801B7010E94B9
:103B6000753EC801B7010E94753EC801B7010E94A9
:103B7000753EC801B7010E94753EC801B7010E9499
:103B8000753EC801B7010E94753EC801B7010E9489
:103B9000753EC801B7010E94753EC801B7010E9479
:103BA000753EC801B7010E94753EC801B7010E9469
:103BB000753EC801B7010E94753EC801B7010E9459
:103BC000753EC801B7010E94753EC801B7010E9449
:103BD000753EC801B7010E94753EC801B7010E9439
:103BE000753EC801B7010E94753EC801B7010E9429
:103BF000753EC801B7010E94753EC801B7010E9419
:103C0000753EC801B7010E94753EC801B7010E9408
:103C1000753EC801B7010E94753EC801B7010E94F8
:103C2000753EC801B7010E94753EC801B7010E94E8
:103C3000753EC801B7010E94753EC801B7010E94D8
:103C4000753EC801B7010E94753EC801B7010E94C8
:103C5000753EC801B7010E94753EC801B7010E94B8
:103C6000753EC801B7010E94753EC801B7010E94A8
:103C7000753EC801B7010E94753EC801B7010E9498
:103C8000753EC801B7010E94753EC801B7010E9488
:103C9000753EC801B7010E94753EC801B7010E9478
:103CA000753EC801B7010E94753EC801B7010E9468
:103CB000753EC801B7010E94753EC801B7010E9458
:103CC000753EC801B7010E94753EC801B7010E9448
:103CD000753EC801B7010E94753EC801B7010E9438
:103CE000753EC801B7010E94753EC801B7010E9428
:103CF000753ED02EC12E8D2D9C2D6E2D7F2D0E94B8
:103D0000753E8D2D9C2D6E2D7F2D0E94753E8D2D27
:103D10009C2D6E2D7F2D0E94753E8D2D9C2D6E2D20
:103D20007F2D0E94753E8D2D9C2D6E2D7F2D0E9426
:103D3000753E8D2D9C2D6E2D7F2D0E94753E8D2DF7
:103D40009C2D6E2D7F2D0E94753E8D2D9C2D6E2DF0
:103D50007F2D0E94753E8D2D9C2D6E2D7F2D0E94F6
:103D6000753E8D2D9C2D6E2D7F2D0E94753E8D2DC7
:103D70009C2D6E2D7F2D0E94753E8D2D9C2D6E2DC0
:103D80007F2D0E94753E8D2D9C2D6E2D7F2D0E94C6
:103D9000753E8D2D9C2D6E2D7F2D0E94753E8D2D97
:103DA0009C2D6E2D7F2D0E94753E8D2D9C2D6E2D90
:103DB0007F2D0E94753E8D2D9C2D6E2D7F2D0E9496
:103DC000753E8D2D9C2D6E2D7F2D0E94753E8D2D67
:103DD0009C2D6E2D7F2D0E94753E8D2D9C2D6E2D60
:103DE0007F2D0E94753E8D2D9C2D6E2D7F2D0E9466
:103DF000753E8D2D9C2D6E2D7F2D0E94753E8D2D37
:103E00009C2D6E2D7F2D0E94753E8D2D9C2D6E2D2F
:103E10007F2D0E94753E8D2D9C2D6E2D7F2D0E9435
:103E2000753E8D2D9C2D6E2D7F2D0E94753E8D2D06
:103E30009C2D6E2D7F2D0E94753E8D2D9C2D6E2DFF
:103E40007F2D0E94753E8D2D9C2D6E2D7F2D0E9405
:103E5000753E8D2D9C2D6E2D7F2D0E94753E8D2DD6
:103E60009C2D6E2D7F2D0E94753E8D2D9C2D6E2DCF
:103E70007F2D0E94753E8D2D9C2D6E2D7F2D0E94D5
:103E8000753E8D2D9C2D6E2D7F2D0E94753E8D2DA6
:103E90009C2D6E2D7F2D0E94753E8D2D9C2D6E2D9F
:103EA0007F2D0E94753E8D2D9C2D6E2D7F2D0E94A5
:103EB000753E8D2D9C2D6E2D7F2D0E94753E8D2D76
:103EC0009C2D6E2D7F2D0E94753E8D2D9C2D6E2D6F
:103ED0007F2D0E94753E8D2D9C2D6E2D7F2D0E9475
:103EE000753E8D2D9C2D6E2D7F2D0E94753E8D2D46
:103EF0009C2D6E2D7F2D0E94753E8D2D9C2D6E2D3F
:103F00007F2D0E94753E8D2D9C2D6E2D7F2D0E9444
:103F1000753E8D2D9C2D6E2D7F2D0E94753E8D2D15
:103F20009C2D6E2D7F2D0E94753E8D2D9C2D6E2D0E
:103F30007F2D0E94753E8D2D9C2D6E2D7F2D0E9414
:103F4000753E8D2D9C2D6E2D7F2D0E94753E8D2DE5
:103F50009C2D6E2D7F2D0E94753E8D2D9C2D6E2DDE
:103F60007F2D0E94753E8D2D9C2D6E2D7F2D0E94E4
:103F7000753E8D2D9C2D6E2D7F2D0E94753E8D2DB5
:103F80009C2D6E2D7F2D0E94753E8D2D9C2D6E2DAE
:103F90007F2D0E94753E8D2D9C2D6E2D7F2D0E94B4
:103FA000753E8D2D9C2D6E2D7F2D0E94753E8D2D85
:103FB0009C2D6E2D7F2D0E94753E8D2D9C2D6E2D7E
:103FC0007F2D0E94753E8D2D9C2D6E2D7F2D0E9484
:103FD000753E8D2D9C2D6E2D7F2D0E94753E8D2D55
:103FE0009C2D6E2D7F2D0E94753E8D2D9C2D6E2D4E
:103FF0007F2D0E94753E8D2D9C2D6E2D7F2D0E9454
:10400000753E8D2D9C2D6E2D7F2D0E94753E8D2D24
:104010009C2D6E2D7F2D0E94753E8D2D9C2D6E2D1D
:104020007F2D0E94753E8D2D9C2D6E2D7F2D0E9423
:10403000753E8D2D9C2D6E2D7F2D0E94753E8D2DF4
:104040009C2D6E2D7F2D0E94753E8D2D9C2D6E2DED
:104050007F2D0E94753E8D2D9C2D6E2D7F2D0E94F3
:10406000753E8D2D9C2D6E2D7F2D0E94753E8D2DC4
:104070009C2D6E2D7F2D0E94753E8D2D9C2D6E2DBD
:104080007F2D0E94753E8D2D9C2D6E2D7F2D0E94C3
:10409000753E8D2D9C2D6E2D7F2D0E94753E8D2D94
:1040A0009C2D6E2D7F2D0E94753E8D2D9C2D6E2D8D
:1040B0007F2D0E94753E8D2D9C2D6E2D7F2D0E9493
:1040C000753E8D2D9C2D6E2D7F2D0E94753E8D2D64
:1040D0009C2D6E2D7F2D0E94753E8D2D9C2D6E2D5D
:1040E0007F2D0E94753E8D2D9C2D6E2D7F2D0E9463
:1040F000753E8D2D9C2D6E2D7F2D0E94753E8D2D34
:104100009C2D6E2D7F2D0E94753E8D2D9C2D6E2D2C
:104110007F2D0E94753E8D2D9C2D6E2D7F2D0E9432
:10412000753E8D2D9C2D6E2D7F2D0E94753E8D2D03
:104130009C2D6E2D7F2D0E94753E8D2D9C2D6E2DFC
:104140007F2D0E94753E8D2D9C2D6E2D7F2D0E9402
:10415000753E8D2D9C2D6E2D7F2D0E94753E8D2DD3
:104160009C2D6E2D7F2D0E94753E8D2D9C2D6E2DCC
:104170007F2D0E94753E8D2D9C2D6E2D7F2D0E94D2
:10418000753E8D2D9C2D6E2D7F2D0E94753E8D2DA3
:104190009C2D6E2D7F2D0E94753E8D2D9C2D6E2D9C
:1041A0007F2D0E94753E8D2D9C2D6E2D7F2D0E94A2
:1041B000753E8D2D9C2D6E2D7F2D0E94753E8D2D73
:1041C0009C2D6E2D7F2D0E94753E8D2D9C2D6E2D6C
:1041D0007F2D0E94753E8D2D9C2D6E2D7F2D0E9472
:1041E000753E8D2D9C2D6E2D7F2D0E94753E8D2D43
:1041F0009C2D6E2D7F2D0E94753E8D2D9C2D6E2D3C
:104200007F2D0E94753E8D2D9C2D6E2D7F2D0E9441
:10421000753E8D2D9C2D6E2D7F2D0E94753E8D2D12
:104220009C2D6E2D7F2D0E94753E8D2D9C2D6E2D0B
:104230007F2D0E94753E8D2D9C2D6E2D7F2D0E9411
:10424000753E8D2D9C2D6E2D7F2D0E94753E8D2DE2
:104250009C2D6E2D7F2D0E94753E8D2D9C2D6E2DDB
:104260007F2D0E94753E8D2D9C2D6E2D7F2D0E94E1
:10427000753E8D2D9C2D6E2D7F2D0E94753E8D2DB2
:104280009C2D6E2D7F2D0E94753E8D2D9C2D6E2DAB
:104290007F2D0E94753E8D2D9C2D6E2D7F2D0E94B1
:1042A000753E8D2D9C2D6E2D7F2D0E94753E8D2D82
:1042B0009C2D6E2D7F2D0E94753E8D2D9C2D6E2D7B
:1042C0007F2D0E94753E8D2D9C2D6E2D7F2D0E9481
:1042D000753E8D2D9C2D6E2D7F2D0E94753E8D2D52
:1042E0009C2D6E2D7F2D0E94753E8D2D9C2D6E2D4B
:1042F0007F2D0E94753E8D2D9C2D6E2D7F2D0E9451
:10430000753E8D2D9C2D6E2D7F2D0E94753E8D2D21
:104310009C2D6E2D7F2D0E94753E8D2D9C2D6E2D1A
:104320007F2D0E94753E8D2D9C2D6E2D7F2D0E9420
:10433000753E8D2D9C2D6E2D7F2D0E94753E8D2DF1
:104340009C2D6E2D7F2D0E94753E8D2D9C2D6E2DEA
:104350007F2D0E94753E8D2D9C2D6E2D7F2D0E94F0
:10436000753E8D2D9C2D6E2D7F2D0E94753E8D2DC1
:104370009C2D6E2D7F2D0E94753E8D2D9C2D6E2DBA
:104380007F2D0E94753E8D2D9C2D6E2D7F2D0E94C0
:10439000753E8D2D9C2D6E2D7F2D0E94753E8D2D91
:1043A0009C2D6E2D7F2D0E94753E8D2D9C2D6E2D8A
:1043B0007F2D0E94753E8D2D9C2D6E2D7F2D0E9490
:1043C000753E8D2D9C2D6E2D7F2D0E94753E8D2D61
:1043D0009C2D6E2D7F2D0E94753E8D2D9C2D6E2D5A
:1043E0007F2D0E94753E8D2D9C2D6E2D7F2D0E9460
:1043F000753E8D2D9C2D6E2D7F2D0E94753E8D2D31
:104400009C2D6E2D7F2D0E94753E8D2D9C2D6E2D29
:104410007F2D0E94753E8D2D9C2D6E2D7F2D0E942F
:10442000753E8D2D9C2D6E2D7F2D0E94753E8D2D00
:104430009C2D6E2D7F2D0E94753E8D2D9C2D6E2DF9
:104440007F2D0E94753E8D2D9C2D6E2D7F2D0E94FF
:10445000753E8D2D9C2D6E2D7F2D0E94753E8D2DD0
:104460009C2D6E2D7F2D0E94753E8D2D9C2D6E2DC9
:104470007F2D0E94753E8D2D9C2D6E2D7F2D0E94CF
:10448000753E8D2D9C2D6E2D7F2D0E94753E8D2DA0
:104490009C2D6E2D7F2D0E94753E8D2D9C2D6E2D99
:1044A0007F2D0E94753E8D2D9C2D6E2D7F2D0E949F
:1044B000753E8D2D9C2D6E2D7F2D0E94753E8D2D70
:1044C0009C2D6E2D7F2D0E94753E8D2D9C2D6E2D69
:1044D0007F2D0E94753E8D2D9C2D6E2D7F2D0E946F
:1044E000753E8D2D9C2D6E2D7F2D0E94753E8D2D40
:1044F0009C2D6E2D7F2D0E94753E8D2D9C2D6E2D39
:104500007F2D0E94753E8D2D9C2D6E2D7F2D0E943E
:10451000753E8D2D9C2D6E2D7F2D0E94753E8D2D0F
:104520009C2D6E2D7F2D0E94753E8D2D9C2D6E2D08
:104530007F2D0E94753E8D2D9C2D6E2D7F2D0E940E
:10454000753E8D2D9C2D6E2D7F2D0E94753E8D2DDF
:104550009C2D6E2D7F2D0E94753E8D2D9C2D6E2DD8
:104560007F2D0E94753E8D2D9C2D6E2D7F2D0E94DE
:10457000753E8D2D9C2D6E2D7F2D0E94753E8D2DAF
:104580009C2D6E2D7F2D0E94753E8D2D9C2D6E2DA8
:104590007F2D0E94753E8D2D9C2D6E2D7F2D0E94AE
:1045A000753E8D2D9C2D6E2D7F2D0E94753E8D2D7F
:1045B0009C2D6E2D7F2D0E94753E8D2D9C2D6E2D78
:1045C0007F2D0E94753E8D2D9C2D6E2D7F2D0E947E
:1045D000753E8D2D9C2D6E2D7F2D0E94753E8D2D4F
:1045E0009C2D6E2D7F2D0E94753E8D2D9C2D6E2D48
:1045F0007F2D0E94753E8D2D9C2D6E2D7F2D0E944E
:10460000753E8D2D9C2D6E2D7F2D0E94753E8D2D1E
:104610009C2D6E2D7F2D0E94753E8D2D9C2D6E2D17
:104620007F2D0E94753E8D2D9C2D6E2D7F2D0E941D
:10463000753E8D2D9C2D6E2D7F2D0E94753E8D2DEE
:104640009C2D6E2D7F2D0E94753E8D2D9C2D6E2DE7
:104650007F2D0E94753E8D2D9C2D6E2D7F2D0E94ED
:10466000753E01E312E0C801B7010E94753EC80122
:10467000B7010E94753EC801B7010E94753EC8018E
:10468000B7010E94753EC801B7010E94753EC8017E
:10469000B7010E94753EC801B7010E94753EC8016E
:1046A000B7010E94753EC801B7010E94753EC8015E
:1046B000B7010E94753EC801B7010E94753EC8014E
:1046C000B7010E94753EC801B7010E94753EC8013E
:1046D000B7010E94753EC801B7010E94753EC8012E
:1046E000B7010E94753EC801B7010E94753EC8011E
:1046F000B7010E94753EC801B7010E94753EC8010E
:10470000B7010E94753EC801B7010E94753EC801FD
:10471000B7010E94753EC801B7010E94753EC801ED
:10472000B7010E94753EC801B7010E94753EC801DD
:10473000B7010E94753EC801B7010E94753EC801CD
:10474000B7010E94753EC801B7010E94753EC801BD
:10475000B7010E94753EC801B7010E94753EC801AD
:10476000B7010E94753EC801B7010E94753EC8019D
:10477000B7010E94753EC801B7010E94753EC8018D
:10478000B7010E94753EC801B7010E94753EC8017D
:10479000B7010E94753EC801B7010E94753EC8016D
:1047A000B7010E94753EC801B7010E94753EC8015D
:1047B000B7010E94753EC801B7010E94753EC8014D
:1047C000B7010E94753EC801B7010E94753EC8013D
:1047D000B7010E94753EC801B7010E94753EC8012D
:1047E000B7010E94753EC801B7010E94753EC8011D
:1047F000B7010E94753EC801B7010E94753EC8010D
:10480000B7010E94753EC801B7010E94753EC801FC
:10481000B7010E94753EC801B7010E94753EC801EC
:10482000B7010E94753EC801B7010E94753EC801DC
:10483000B7010E94753EC801B7010E94753EC801CC
:10484000B7010E94753EC801B7010E94753EC801BC
:10485000B7010E94753EC801B7010E94753EC801AC
:10486000B7010E94753EC801B7010E94753EC8019C
:10487000B7010E94753EC801B7010E94753EC8018C
:10488000B7010E94753EC801B7010E94753EC8017C
:10489000B7010E94753EC801B7010E94753EC8016C
:1048A000B7010E94753EC801B7010E94753EC8015C
:1048B000B7010E94753EC801B7010E94753EC8014C
:1048C000B7010E94753EC801B7010E94753EC8013C
:1048D000B7010E94753EC801B7010E94753EC8012C
:1048E000B7010E94753EC801B7010E94753EC8011C
:1048F000B7010E94753EC801B7010E94753EC8010C
:10490000B7010E94753EC801B7010E94753EC801FB
:10491000B7010E94753EC801B7010E94753EC801EB
:10492000B7010E94753EC801B7010E94753EC801DB
:10493000B7010E94753EC801B7010E94753EC801CB
:10494000B7010E94753EC801B7010E94753EC801BB
:10495000B7010E94753EC801B7010E94753EC801AB
:10496000B7010E94753EC801B7010E94753EC8019B
:10497000B7010E94753EC801B7010E94753EC8018B
:10498000B7010E94753EC801B7010E94753EC8017B
:10499000B7010E94753EC801B7010E94753EC8016B
:1049A000B7010E94753EC801B7010E94753EC8015B
:1049B000B7010E94753EC801B7010E94753EC8014B
:1049C000B7010E94753EC801B7010E94753EC8013B
:1049D000B7010E94753EC801B7010E94753EC8012B
:1049E000B7010E94753EC801B7010E94753EC8011B
:1049F000B7010E94753EC801B7010E94753EC8010B
:104A0000B7010E94753EC801B7010E94753EC801FA
:104A1000B7010E94753EC801B7010E94753EC801EA
:104A2000B7010E94753EC801B7010E94753EC801DA
:104A3000B7010E94753EC801B7010E94753EC801CA
:104A4000B7010E94753EC801B7010E94753EC801BA
:104A5000B7010E94753EC801B7010E94753EC801AA
:104A6000B7010E94753EC801B7010E94753EC8019A
:104A7000B7010E94753EC801B7010E94753EC8018A
:104A8000B7010E94753EC801B7010E94753EC8017A
:104A9000B7010E94753EC801B7010E94753EC8016A
:104AA000B7010E94753EC801B7010E94753EC8015A
:104AB000B7010E94753EC801B7010E94753EC8014A
:104AC000B7010E94753EC801B7010E94753EC8013A
:104AD000B7010E94753EC801B7010E94753EC8012A
:104AE000B7010E94753EC801B7010E94753EC8011A
:104AF000B7010E94753EC801B7010E94753EC8010A
:104B0000B7010E94753EC801B7010E94753EC801F9
:104B1000B7010E94753EC801B7010E94753EC801E9
:104B2000B7010E94753EC801B7010E94753EC801D9
:104B3000B7010E94753EC801B7010E94753EC801C9
:104B4000B7010E94753EC801B7010E94753EC801B9
:104B5000B7010E94753EC801B7010E94753EC801A9
:104B6000B7010E94753EC801B7010E94753EC80199
:104B7000B7010E94753EC801B7010E94753EC80189
:104B8000B7010E94753EC801B7010E94753EC80179
:104B9000B7010E94753EC801B7010E94753EC80169
:104BA000B7010E94753EC801B7010E94753EC80159
:104BB000B7010E94753EC801B7010E94753EC80149
:104BC000B7010E94753EC801B7010E94753EC80139
:104BD000B7010E94753EC801B7010E94753EC80129
:104BE000B7010E94753EC801B7010E94753EC80119
:104BF000B7010E94753EC801B7010E94753EC80109
:104C0000B7010E94753EC801B7010E94753EC801F8
:104C1000B7010E94753EC801B7010E94753EC801E8
:104C2000B7010E94753EC801B7010E94753EC801D8
:104C3000B7010E94753EC801B7010E94753EC801C8
:104C4000B7010E94753EC801B7010E94753EC801B8
:104C5000B7010E94753EC801B7010E94753EC801A8
:104C6000B7010E94753EC801B7010E94753EC80198
:104C7000B7010E94753EC801B7010E94753EC80188
:104C8000B7010E94753EC801B7010E94753EC80178
:104C9000B7010E94753EC801B7010E94753EC80168
:104CA000B7010E94753E780100E011E0C701B8012C
:104CB0000E94753EC701B8010E94753EC701B80148
:104CC0000E94753EC701B8010E94753EC701B80138
:104CD0000E94753EC701B8010E94753EC701B80128
:104CE0000E94753EC701B8010E94753EC701B80118
:104CF0000E94753EC701B8010E94753EC701B80108
:104D00000E94753EC701B8010E94753EC701B801F7
:104D10000E94753EC701B8010E94753EC701B801E7
:104D20000E94753EC701B8010E94753EC701B801D7
:104D30000E94753EC701B8010E94753EC701B801C7
:104D40000E94753EC701B8010E94753EC701B801B7
:104D50000E94753EC701B8010E94753EC701B801A7
:104D60000E94753EC701B8010E94753EC701B80197
:104D70000E94753EC701B8010E94753EC701B80187
:104D80000E94753EC701B8010E94753EC701B80177
:104D90000E94753EC701B8010E94753EC701B80167
:104DA0000E94753EC701B8010E94753EC701B80157
:104DB0000E94753EC701B8010E94753EC701B80147
:104DC0000E94753EC701B8010E94753EC701B80137
:104DD0000E94753EC701B8010E94753EC701B80127
:104DE0000E94753EC701B8010E94753EC701B80117
:104DF0000E94753EC701B8010E94753EC701B80107
:104E00000E94753EC701B8010E94753EC701B801F6
:104E10000E94753EC701B8010E94753EC701B801E6
:104E20000E94753EC701B8010E94753EC701B801D6
:104E30000E94753EC701B8010E94753EC701B801C6
:104E40000E94753EC701B8010E94753EC701B801B6
:104E50000E94753EC701B8010E94753EC701B801A6
:104E60000E94753EC701B8010E94753EC701B80196
:104E70000E94753EC701B8010E94753EC701B80186
:104E80000E94753EC701B8010E94753EC701B80176
:104E90000E94753EC701B8010E94753EC701B80166
:104EA0000E94753EC701B8010E94753EC701B80156
:104EB0000E94753EC701B8010E94753EC701B80146
:104EC0000E94753EC701B8010E94753EC701B80136
:104ED0000E94753EC701B8010E94753EC701B80126
:104EE0000E94753EC701B8010E94753EC701B80116
:104EF0000E94753EC701B8010E94753EC701B80106
:104F00000E94753EC701B8010E94753EC701B801F5
:104F10000E94753EC701B8010E94753EC701B801E5
:104F20000E94753EC701B8010E94753EC701B801D5
:104F30000E94753EC701B8010E94753EC701B801C5
:104F40000E94753EC701B8010E94753EC701B801B5
:104F50000E94753EC701B8010E94753EC701B801A5
:104F60000E94753EC701B8010E94753EC701B80195
:104F70000E94753EC701B8010E94753EC701B80185
:104F80000E94753EC701B8010E94753EC701B80175
:104F90000E94753EC701B8010E94753EC701B80165
:104FA0000E94753EC701B8010E94753EC701B80155
:104FB0000E94753EC701B8010E94753EC701B80145
:104FC0000E94753EC701B8010E94753EC701B80135
:104FD0000E94753EC701B8010E94753EC701B80125
:104FE0000E94753EC701B8010E94753EC701B80115
:104FF0000E94753EC701B8010E94753EC701B80105
:105000000E94753EC701B8010E94753EC701B801F4
:105010000E94753EC701B8010E94753EC701B801E4
:105020000E94753EC701B8010E94753EC701B801D4
:105030000E94753EC701B8010E94753EC701B801C4
:105040000E94753EC701B8010E94753EC701B801B4
:105050000E94753EC701B8010E94753EC701B801A4
:105060000E94753EC701B8010E94753EC701B80194
:105070000E94753EC701B8010E94753EC701B80184
:105080000E94753EC701B8010E94753EC701B80174
:105090000E94753EC701B8010E94753EC701B80164
:1050A0000E94753EC701B8010E94753EC701B80154
:1050B0000E94753EC701B8010E94753EC701B80144
:1050C0000E94753EC701B8010E94753EC701B80134
:1050D0000E94753EC701B8010E94753EC701B80124
:1050E0000E94753EC701B8010E94753EC701B80114
:1050F0000E94753EC701B8010E94753EC701B80104
:105100000E94753EC701B8010E94753EC701B801F3
:105110000E94753EC701B8010E94753EC701B801E3
:105120000E94753EC701B8010E94753EC701B801D3
:105130000E94753EC701B8010E94753EC701B801C3
:105140000E94753EC701B8010E94753EC701B801B3
:105150000E94753EC701B8010E94753EC701B801A3
:105160000E94753EC701B8010E94753EC701B80193
:105170000E94753EC701B8010E94753EC701B80183
:105180000E94753EC701B8010E94753EC701B80173
:105190000E94753EC701B8010E94753EC701B80163
:1051A0000E94753EC701B8010E94753EC701B80153
:1051B0000E94753EC701B8010E94753EC701B80143
:1051C0000E94753EC701B8010E94753EC701B80133
:1051D0000E94753EC701B8010E94753EC701B80123
:1051E0000E94753EC701B8010E94753EC701B80113
:1051F0000E94753EC701B8010E94753EC701B80103
:105200000E94753EC701B8010E94753EC701B801F2
:105210000E94753EC701B8010E94753EC701B801E2
:105220000E94753EC701B8010E94753EC701B801D2
:105230000E94753EC701B8010E94753EC701B801C2
:105240000E94753EC701B8010E94753EC701B801B2
:105250000E94753EC701B8010E94753EC701B801A2
:105260000E94753EC701B8010E94753EC701B80192
:105270000E94753EC701B8010E94753EC701B80182
:105280000E94753EC701B8010E94753EC701B80172
:105290000E94753EC701B8010E94753EC701B80162
:1052A0000E94753EC701B8010E94753EC701B80152
:1052B0000E94753EC701B8010E94753EC701B80142
:1052C0000E94753EC701B8010E94753EC701B80132
:1052D0000E94753EC701B8010E94753EC701B80122
:1052E0000E94753EC701B8010E94753ED02EC12EA6
:1052F000C701602F712F0E94753E8E2D9F2D6D2D41
:105300007C2D0E94753E8E2D9F2D6D2D7C2D0E9433
:10531000753E8E2D9F2D6D2D7C2D0E94753E8E2D00
:105320009F2D6D2D7C2D0E94753E8E2D9F2D6D2DF8
:105330007C2D0E94753E8E2D9F2D6D2D7C2D0E9403
:10534000753E8E2D9F2D6D2D7C2D0E94753E8E2DD0
:105350009F2D6D2D7C2D0E94753E8E2D9F2D6D2DC8
:105360007C2D0E94753E8E2D9F2D6D2D7C2D0E94D3
:10537000753E8E2D9F2D6D2D7C2D0E94753E8E2DA0
:105380009F2D6D2D7C2D0E94753E8E2D9F2D6D2D98
:105390007C2D0E94753E8E2D9F2D6D2D7C2D0E94A3
:1053A000753E8E2D9F2D6D2D7C2D0E94753E8E2D70
:1053B0009F2D6D2D7C2D0E94753E8E2D9F2D6D2D68
:1053C0007C2D0E94753E8E2D9F2D6D2D7C2D0E9473
:1053D000753E8E2D9F2D6D2D7C2D0E94753E8E2D40
:1053E0009F2D6D2D7C2D0E94753E8E2D9F2D6D2D38
:1053F0007C2D0E94753E8E2D9F2D6D2D7C2D0E9443
:10540000753E8E2D9F2D6D2D7C2D0E94753E8E2D0F
:105410009F2D6D2D7C2D0E94753E8E2D9F2D6D2D07
:105420007C2D0E94753E8E2D9F2D6D2D7C2D0E9412
:10543000753E8E2D9F2D6D2D7C2D0E94753E8E2DDF
:105440009F2D6D2D7C2D0E94753E8E2D9F2D6D2DD7
:105450007C2D0E94753E8E2D9F2D6D2D7C2D0E94E2
:10546000753E8E2D9F2D6D2D7C2D0E94753E8E2DAF
:105470009F2D6D2D7C2D0E94753E8E2D9F2D6D2DA7
:105480007C2D0E94753E8E2D9F2D6D2D7C2D0E94B2
:10549000753E8E2D9F2D6D2D7C2D0E94753E8E2D7F
:1054A0009F2D6D2D7C2D0E94753E8E2D9F2D6D2D77
:1054B0007C2D0E94753E8E2D9F2D6D2D7C2D0E9482
:1054C000753E8E2D9F2D6D2D7C2D0E94753E8E2D4F
:1054D0009F2D6D2D7C2D0E94753E8E2D9F2D6D2D47
:1054E0007C2D0E94753E8E2D9F2D6D2D7C2D0E9452
:1054F000753E8E2D9F2D6D2D7C2D0E94753E8E2D1F
:105500009F2D6D2D7C2D0E94753E8E2D9F2D6D2D16
:105510007C2D0E94753E8E2D9F2D6D2D7C2D0E9421
:10552000753E8E2D9F2D6D2D7C2D0E94753E8E2DEE
:105530009F2D6D2D7C2D0E94753E8E2D9F2D6D2DE6
:105540007C2D0E94753E8E2D9F2D6D2D7C2D0E94F1
:10555000753E8E2D9F2D6D2D7C2D0E94753E8E2DBE
:105560009F2D6D2D7C2D0E94753E8E2D9F2D6D2DB6
:105570007C2D0E94753E8E2D9F2D6D2D7C2D0E94C1
:10558000753E8E2D9F2D6D2D7C2D0E94753E8E2D8E
:105590009F2D6D2D7C2D0E94753E8E2D9F2D6D2D86
:1055A0007C2D0E94753E8E2D9F2D6D2D7C2D0E9491
:1055B000753E8E2D9F2D6D2D7C2D0E94753E8E2D5E
:1055C0009F2D6D2D7C2D0E94753E8E2D9F2D6D2D56
:1055D0007C2D0E94753E8E2D9F2D6D2D7C2D0E9461
:1055E000753E8E2D9F2D6D2D7C2D0E94753E8E2D2E
:1055F0009F2D6D2D7C2D0E94753E8E2D9F2D6D2D26
:105600007C2D0E94753E8E2D9F2D6D2D7C2D0E9430
:10561000753E8E2D9F2D6D2D7C2D0E94753E8E2DFD
:105620009F2D6D2D7C2D0E94753E8E2D9F2D6D2DF5
:105630007C2D0E94753E8E2D9F2D6D2D7C2D0E9400
:10564000753E8E2D9F2D6D2D7C2D0E94753E8E2DCD
:105650009F2D6D2D7C2D0E94753E8E2D9F2D6D2DC5
:105660007C2D0E94753E8E2D9F2D6D2D7C2D0E94D0
:10567000753E8E2D9F2D6D2D7C2D0E94753E8E2D9D
:105680009F2D6D2D7C2D0E94753E8E2D9F2D6D2D95
:105690007C2D0E94753E8E2D9F2D6D2D7C2D0E94A0
:1056A000753E8E2D9F2D6D2D7C2D0E94753E8E2D6D
:1056B0009F2D6D2D7C2D0E94753E8E2D9F2D6D2D65
:1056C0007C2D0E94753E8E2D9F2D6D2D7C2D0E9470
:1056D000753E8E2D9F2D6D2D7C2D0E94753E8E2D3D
:1056E0009F2D6D2D7C2D0E94753E8E2D9F2D6D2D35
:1056F0007C2D0E94753E8E2D9F2D6D2D7C2D0E9440
:10570000753E8E2D9F2D6D2D7C2D0E94753E8E2D0C
:105710009F2D6D2D7C2D0E94753E8E2D9F2D6D2D04
:105720007C2D0E94753E8E2D9F2D6D2D7C2D0E940F
:10573000753E8E2D9F2D6D2D7C2D0E94753E8E2DDC
:105740009F2D6D2D7C2D0E94753E8E2D9F2D6D2DD4
:105750007C2D0E94753E8E2D9F2D6D2D7C2D0E94DF
:10576000753E8E2D9F2D6D2D7C2D0E94753E8E2DAC
:105770009F2D6D2D7C2D0E94753E8E2D9F2D6D2DA4
:105780007C2D0E94753E8E2D9F2D6D2D7C2D0E94AF
:10579000753E8E2D9F2D6D2D7C2D0E94753E8E2D7C
:1057A0009F2D6D2D7C2D0E94753E8E2D9F2D6D2D74
:1057B0007C2D0E94753E8E2D9F2D6D2D7C2D0E947F
:1057C000753E8E2D9F2D6D2D7C2D0E94753E8E2D4C
:1057D0009F2D6D2D7C2D0E94753E8E2D9F2D6D2D44
:1057E0007C2D0E94753E8E2D9F2D6D2D7C2D0E944F
:1057F000753E8E2D9F2D6D2D7C2D0E94753E8E2D1C
:105800009F2D6D2D7C2D0E94753E8E2D9F2D6D2D13
:105810007C2D0E94753E8E2D9F2D6D2D7C2D0E941E
:10582000753E8E2D9F2D6D2D7C2D0E94753E8E2DEB
:105830009F2D6D2D7C2D0E94753E8E2D9F2D6D2DE3
:105840007C2D0E94753E8E2D9F2D6D2D7C2D0E94EE
:10585000753E8E2D9F2D6D2D7C2D0E94753E8E2DBB
:105860009F2D6D2D7C2D0E94753E8E2D9F2D6D2DB3
:105870007C2D0E94753E8E2D9F2D6D2D7C2D0E94BE
:10588000753E8E2D9F2D6D2D7C2D0E94753E8E2D8B
:105890009F2D6D2D7C2D0E94753E8E2D9F2D6D2D83
:1058A0007C2D0E94753E8E2D9F2D6D2D7C2D0E948E
:1058B000753E8E2D9F2D6D2D7C2D0E94753E8E2D5B
:1058C0009F2D6D2D7C2D0E94753E8E2D9F2D6D2D53
:1058D0007C2D0E94753E8E2D9F2D6D2D7C2D0E945E
:1058E000753E8E2D9F2D6D2D7C2D0E94753E8E2D2B
:1058F0009F2D6D2D7C2D0E94753E8E2D9F2D6D2D23
:105900007C2D0E94753E8E2D9F2D6D2D7C2D0E942D
:10591000753E8E2D9F2D6D2D7C2D0E94753E8E2DFA
:105920009F2D6D2D7C2D0E94753E8E2D9F2D6D2DF2
:105930007C2D0E94753E8E2D9F2D6D2D7C2D0E94FD
:10594000753E8E2D9F2D6D2D7C2D0E94753E8E2DCA
:105950009F2D6D2D7C2D0E94753E8E2D9F2D6D2DC2
:105960007C2D0E94753E8E2D9F2D6D2D7C2D0E94CD
:10597000753E8E2D9F2D6D2D7C2D0E94753E8E2D9A
:105980009F2D6D2D7C2D0E94753E8E2D9F2D6D2D92
:105990007C2D0E94753E8E2D9F2D6D2D7C2D0E949D
:1059A000753E8E2D9F2D6D2D7C2D0E94753E8E2D6A
:1059B0009F2D6D2D7C2D0E94753E8E2D9F2D6D2D62
:1059C0007C2D0E94753E8E2D9F2D6D2D7C2D0E946D
:1059D000753E8E2D9F2D6D2D7C2D0E94753E8E2D3A
:1059E0009F2D6D2D7C2D0E94753E8E2D9F2D6D2D32
:1059F0007C2D0E94753E8E2D9F2D6D2D7C2D0E943D
:105A0000753E8E2D9F2D6D2D7C2D0E94753E8E2D09
:105A10009F2D6D2D7C2D0E94753E8E2D9F2D6D2D01
:105A20007C2D0E94753E8E2D9F2D6D2D7C2D0E940C
:105A3000753E8E2D9F2D6D2D7C2D0E94753E8E2DD9
:105A40009F2D6D2D7C2D0E94753E8E2D9F2D6D2DD1
:105A50007C2D0E94753E8E2D9F2D6D2D7C2D0E94DC
:105A6000753E8E2D9F2D6D2D7C2D0E94753E8E2DA9
:105A70009F2D6D2D7C2D0E94753E8E2D9F2D6D2DA1
:105A80007C2D0E94753E8E2D9F2D6D2D7C2D0E94AC
:105A9000753E8E2D9F2D6D2D7C2D0E94753E8E2D79
:105AA0009F2D6D2D7C2D0E94753E8E2D9F2D6D2D71
:105AB0007C2D0E94753E8E2D9F2D6D2D7C2D0E947C
:105AC000753E8E2D9F2D6D2D7C2D0E94753E8E2D49
:105AD0009F2D6D2D7C2D0E94753E8E2D9F2D6D2D41
