:100000000C9462000C948A000C948A000C948A0070
:100010000C948A000C948A000C948A000C948A0038
:100020000C948A000C948A000C948A000C948A0028
:100030000C948A000C948A000C948A000C948A0018
:100040000C94A6330C948A000C9416350C945D35F0
:100050000C948A000C948A000C948A000C948A00F8
:100060000C948A000C948A000000000024002700F1
:100070002A0000000000250028002B0000000000DE
:1000800023002600290004040404040404040202DA
:100090000202020203030303030301020408102007
:1000A0004080010204081020010204081020000012
:1000B0000007000201000003040600000000000029
:1000C00000003D3611241FBECFEFD8E0DEBFCDBF0C
:1000D00011E0A0E0B1E0EAECFDE602C005900D926F
:1000E000A23AB107D9F712E0A2EAB1E001C01D922D
:1000F000A235B107E1F710E0C4ECD0E004C02297CC
:10010000FE010E94DF36C23CD107C9F70E948D363E
:100110000C94E3360C940000CF92DF92EF92FF92A2
:100120000F931F938DE061E00E94C13468EE73E08D
:1001300080E090E00E94EE338DE060E00E94C134E8
:1001400068EE73E080E090E00E94EE3333E3E32E4C
:1001500032E0F32E00E011E0C701B8010E94DA3668
:10016000C701B8010E94DA36C701B8010E94DA3629
:10017000C701B8010E94DA36C701B8010E94DA3619
:10018000C701B8010E94DA36C701B8010E94DA3609
:10019000C701B8010E94DA36C701B8010E94DA36F9
:1001A000C701B8010E94DA36C701B8010E94DA36E9
:1001B000C701B8010E94DA36C701B8010E94DA36D9
:1001C000C701B8010E94DA36C701B8010E94DA36C9
:1001D000C701B8010E94DA36C701B8010E94DA36B9
:1001E000C701B8010E94DA36C701B8010E94DA36A9
:1001F000C701B8010E94DA36C701B8010E94DA3699
:10020000C701B8010E94DA36C701B8010E94DA3688
:10021000C701B8010E94DA36C701B8010E94DA3678
:10022000C701B8010E94DA36C701B8010E94DA3668
:10023000C701B8010E94DA36C701B8010E94DA3658
:10024000C701B8010E94DA36C701B8010E94DA3648
:10025000C701B8010E94DA36C701B8010E94DA3638
:10026000C701B8010E94DA36C701B8010E94DA3628
:10027000C701B8010E94DA36C701B8010E94DA3618
:10028000C701B8010E94DA36C701B8010E94DA3608
:10029000C701B8010E94DA36C701B8010E94DA36F8
:1002A000C701B8010E94DA36C701B8010E94DA36E8
:1002B000C701B8010E94DA36C701B8010E94DA36D8
:1002C000C701B8010E94DA36C701B8010E94DA36C8
:1002D000C701B8010E94DA36C701B8010E94DA36B8
:1002E000C701B8010E94DA36C701B8010E94DA36A8
:1002F000C701B8010E94DA36C701B8010E94DA3698
:10030000C701B8010E94DA36C701B8010E94DA3687
:10031000C701B8010E94DA36C701B8010E94DA3677
:10032000C701B8010E94DA36C701B8010E94DA3667
:10033000C701B8010E94DA36C701B8010E94DA3657
:10034000C701B8010E94DA36C701B8010E94DA3647
:10035000C701B8010E94DA36C701B8010E94DA3637
:10036000C701B8010E94DA36C701B8010E94DA3627
:10037000C701B8010E94DA36C701B8010E94DA3617
:10038000C701B8010E94DA36C701B8010E94DA3607
:10039000C701B8010E94DA36C701B8010E94DA36F7
:1003A000C701B8010E94DA36C701B8010E94DA36E7
:1003B000C701B8010E94DA36C701B8010E94DA36D7
:1003C000C701B8010E94DA36C701B8010E94DA36C7
:1003D000C701B8010E94DA36C701B8010E94DA36B7
:1003E000C701B8010E94DA36C701B8010E94DA36A7
:1003F000C701B8010E94DA36C701B8010E94DA3697
:10040000C701B8010E94DA36C701B8010E94DA3686
:10041000C701B8010E94DA36C701B8010E94DA3676
:10042000C701B8010E94DA36C701B8010E94DA3666
:10043000C701B8010E94DA36C701B8010E94DA3656
:10044000C701B8010E94DA36C701B8010E94DA3646
:10045000C701B8010E94DA36C701B8010E94DA3636
:10046000C701B8010E94DA36C701B8010E94DA3626
:10047000C701B8010E94DA36C701B8010E94DA3616
:10048000C701B8010E94DA36C701B8010E94DA3606
:10049000C701B8010E94DA36C701B8010E94DA36F6
:1004A000C701B8010E94DA36C701B8010E94DA36E6
:1004B000C701B8010E94DA36C701B8010E94DA36D6
:1004C000C701B8010E94DA36C701B8010E94DA36C6
:1004D000C701B8010E94DA36C701B8010E94DA36B6
:1004E000C701B8010E94DA36C701B8010E94DA36A6
:1004F000C701B8010E94DA36C701B8010E94DA3696
:10050000C701B8010E94DA36C701B8010E94DA3685
:10051000C701B8010E94DA36C701B8010E94DA3675
:10052000C701B8010E94DA36C701B8010E94DA3665
:10053000C701B8010E94DA36C701B8010E94DA3655
:10054000C701B8010E94DA36C701B8010E94DA3645
:10055000C701B8010E94DA36C701B8010E94DA3635
:10056000C701B8010E94DA36C701B8010E94DA3625
:10057000C701B8010E94DA36C701B8010E94DA3615
:10058000C701B8010E94DA36C701B8010E94DA3605
:10059000C701B8010E94DA36C701B8010E94DA36F5
:1005A000C701B8010E94DA36C701B8010E94DA36E5
:1005B000C701B8010E94DA36C701B8010E94DA36D5
:1005C000C701B8010E94DA36C701B8010E94DA36C5
:1005D000C701B8010E94DA36C701B8010E94DA36B5
:1005E000C701B8010E94DA36C701B8010E94DA36A5
:1005F000C701B8010E94DA36C701B8010E94DA3695
:10060000C701B8010E94DA36C701B8010E94DA3684
:10061000C701B8010E94DA36C701B8010E94DA3674
:10062000C701B8010E94DA36C701B8010E94DA3664
:10063000C701B8010E94DA36C701B8010E94DA3654
:10064000C701B8010E94DA36C701B8010E94DA3644
:10065000C701B8010E94DA36C701B8010E94DA3634
:10066000C701B8010E94DA36C701B8010E94DA3624
:10067000C701B8010E94DA36C701B8010E94DA3614
:10068000C701B8010E94DA36C701B8010E94DA3604
:10069000C701B8010E94DA36C701B8010E94DA36F4
:1006A000C701B8010E94DA36C701B8010E94DA36E4
:1006B000C701B8010E94DA36C701B8010E94DA36D4
:1006C000C701B8010E94DA36C701B8010E94DA36C4
:1006D000C701B8010E94DA36C701B8010E94DA36B4
:1006E000C701B8010E94DA36C701B8010E94DA36A4
:1006F000C701B8010E94DA36C701B8010E94DA3694
:10070000C701B8010E94DA36C701B8010E94DA3683
:10071000C701B8010E94DA36C701B8010E94DA3673
:10072000C701B8010E94DA36C701B8010E94DA3663
:10073000C701B8010E94DA36C701B8010E94DA3653
:10074000C701B8010E94DA36C701B8010E94DA3643
:10075000C701B8010E94DA36C701B8010E94DA3633
:10076000C701B8010E94DA36C701B8010E94DA3623
:10077000C701B8010E94DA36C701B8010E94DA3613
:10078000C701B8010E94DA36D02EC12EC701602FF2
:10079000712F0E94DA368E2D9F2D6D2D7C2D0E949B
:1007A000DA368E2D9F2D6D2D7C2D0E94DA368E2D02
:1007B0009F2D6D2D7C2D0E94DA368E2D9F2D6D2D57
:1007C0007C2D0E94DA368E2D9F2D6D2D7C2D0E9462
:1007D000DA368E2D9F2D6D2D7C2D0E94DA368E2DD2
:1007E0009F2D6D2D7C2D0E94DA368E2D9F2D6D2D27
:1007F0007C2D0E94DA368E2D9F2D6D2D7C2D0E9432
:10080000DA368E2D9F2D6D2D7C2D0E94DA368E2DA1
:100810009F2D6D2D7C2D0E94DA368E2D9F2D6D2DF6
:100820007C2D0E94DA368E2D9F2D6D2D7C2D0E9401
:10083000DA368E2D9F2D6D2D7C2D0E94DA368E2D71
:100840009F2D6D2D7C2D0E94DA368E2D9F2D6D2DC6
:100850007C2D0E94DA368E2D9F2D6D2D7C2D0E94D1
:10086000DA368E2D9F2D6D2D7C2D0E94DA368E2D41
:100870009F2D6D2D7C2D0E94DA368E2D9F2D6D2D96
:100880007C2D0E94DA368E2D9F2D6D2D7C2D0E94A1
:10089000DA368E2D9F2D6D2D7C2D0E94DA368E2D11
:1008A0009F2D6D2D7C2D0E94DA368E2D9F2D6D2D66
:1008B0007C2D0E94DA368E2D9F2D6D2D7C2D0E9471
:1008C000DA368E2D9F2D6D2D7C2D0E94DA368E2DE1
:1008D0009F2D6D2D7C2D0E94DA368E2D9F2D6D2D36
:1008E0007C2D0E94DA368E2D9F2D6D2D7C2D0E9441
:1008F000DA368E2D9F2D6D2D7C2D0E94DA368E2DB1
:100900009F2D6D2D7C2D0E94DA368E2D9F2D6D2D05
:100910007C2D0E94DA368E2D9F2D6D2D7C2D0E9410
:10092000DA368E2D9F2D6D2D7C2D0E94DA368E2D80
:100930009F2D6D2D7C2D0E94DA368E2D9F2D6D2DD5
:100940007C2D0E94DA368E2D9F2D6D2D7C2D0E94E0
:10095000DA368E2D9F2D6D2D7C2D0E94DA368E2D50
:100960009F2D6D2D7C2D0E94DA368E2D9F2D6D2DA5
:100970007C2D0E94DA368E2D9F2D6D2D7C2D0E94B0
:10098000DA368E2D9F2D6D2D7C2D0E94DA368E2D20
:100990009F2D6D2D7C2D0E94DA368E2D9F2D6D2D75
:1009A0007C2D0E94DA368E2D9F2D6D2D7C2D0E9480
:1009B000DA368E2D9F2D6D2D7C2D0E94DA368E2DF0
:1009C0009F2D6D2D7C2D0E94DA368E2D9F2D6D2D45
:1009D0007C2D0E94DA368E2D9F2D6D2D7C2D0E9450
:1009E000DA368E2D9F2D6D2D7C2D0E94DA368E2DC0
:1009F0009F2D6D2D7C2D0E94DA368E2D9F2D6D2D15
:100A00007C2D0E94DA368E2D9F2D6D2D7C2D0E941F
:100A1000DA368E2D9F2D6D2D7C2D0E94DA368E2D8F
:100A20009F2D6D2D7C2D0E94DA368E2D9F2D6D2DE4
:100A30007C2D0E94DA368E2D9F2D6D2D7C2D0E94EF
:100A4000DA368E2D9F2D6D2D7C2D0E94DA368E2D5F
:100A50009F2D6D2D7C2D0E94DA368E2D9F2D6D2DB4
:100A60007C2D0E94DA368E2D9F2D6D2D7C2D0E94BF
:100A7000DA368E2D9F2D6D2D7C2D0E94DA368E2D2F
:100A80009F2D6D2D7C2D0E94DA368E2D9F2D6D2D84
:100A90007C2D0E94DA368E2D9F2D6D2D7C2D0E948F
:100AA000DA368E2D9F2D6D2D7C2D0E94DA368E2DFF
:100AB0009F2D6D2D7C2D0E94DA368E2D9F2D6D2D54
:100AC0007C2D0E94DA368E2D9F2D6D2D7C2D0E945F
:100AD000DA368E2D9F2D6D2D7C2D0E94DA368E2DCF
:100AE0009F2D6D2D7C2D0E94DA368E2D9F2D6D2D24
:100AF0007C2D0E94DA368E2D9F2D6D2D7C2D0E942F
:100B0000DA368E2D9F2D6D2D7C2D0E94DA368E2D9E
:100B10009F2D6D2D7C2D0E94DA368E2D9F2D6D2DF3
:100B20007C2D0E94DA368E2D9F2D6D2D7C2D0E94FE
:100B3000DA368E2D9F2D6D2D7C2D0E94DA368E2D6E
:100B40009F2D6D2D7C2D0E94DA368E2D9F2D6D2DC3
:100B50007C2D0E94DA368E2D9F2D6D2D7C2D0E94CE
:100B6000DA368E2D9F2D6D2D7C2D0E94DA368E2D3E
:100B70009F2D6D2D7C2D0E94DA368E2D9F2D6D2D93
:100B80007C2D0E94DA368E2D9F2D6D2D7C2D0E949E
:100B9000DA368E2D9F2D6D2D7C2D0E94DA368E2D0E
:100BA0009F2D6D2D7C2D0E94DA368E2D9F2D6D2D63
:100BB0007C2D0E94DA368E2D9F2D6D2D7C2D0E946E
:100BC000DA368E2D9F2D6D2D7C2D0E94DA368E2DDE
:100BD0009F2D6D2D7C2D0E94DA368E2D9F2D6D2D33
:100BE0007C2D0E94DA368E2D9F2D6D2D7C2D0E943E
:100BF000DA368E2D9F2D6D2D7C2D0E94DA368E2DAE
:100C00009F2D6D2D7C2D0E94DA368E2D9F2D6D2D02
:100C10007C2D0E94DA368E2D9F2D6D2D7C2D0E940D
:100C2000DA368E2D9F2D6D2D7C2D0E94DA368E2D7D
:100C30009F2D6D2D7C2D0E94DA368E2D9F2D6D2DD2
:100C40007C2D0E94DA368E2D9F2D6D2D7C2D0E94DD
:100C5000DA368E2D9F2D6D2D7C2D0E94DA368E2D4D
:100C60009F2D6D2D7C2D0E94DA368E2D9F2D6D2DA2
:100C70007C2D0E94DA368E2D9F2D6D2D7C2D0E94AD
:100C8000DA368E2D9F2D6D2D7C2D0E94DA368E2D1D
:100C90009F2D6D2D7C2D0E94DA368E2D9F2D6D2D72
:100CA0007C2D0E94DA368E2D9F2D6D2D7C2D0E947D
:100CB000DA368E2D9F2D6D2D7C2D0E94DA368E2DED
:100CC0009F2D6D2D7C2D0E94DA368E2D9F2D6D2D42
:100CD0007C2D0E94DA368E2D9F2D6D2D7C2D0E944D
:100CE000DA368E2D9F2D6D2D7C2D0E94DA368E2DBD
:100CF0009F2D6D2D7C2D0E94DA368E2D9F2D6D2D12
:100D00007C2D0E94DA368E2D9F2D6D2D7C2D0E941C
:100D1000DA368E2D9F2D6D2D7C2D0E94DA368E2D8C
:100D20009F2D6D2D7C2D0E94DA368E2D9F2D6D2DE1
:100D30007C2D0E94DA368E2D9F2D6D2D7C2D0E94EC
:100D4000DA368E2D9F2D6D2D7C2D0E94DA368E2D5C
:100D50009F2D6D2D7C2D0E94DA368E2D9F2D6D2DB1
:100D60007C2D0E94DA368E2D9F2D6D2D7C2D0E94BC
:100D7000DA368E2D9F2D6D2D7C2D0E94DA368E2D2C
:100D80009F2D6D2D7C2D0E94DA368E2D9F2D6D2D81
:100D90007C2D0E94DA368E2D9F2D6D2D7C2D0E948C
:100DA000DA368E2D9F2D6D2D7C2D0E94DA368E2DFC
:100DB0009F2D6D2D7C2D0E94DA368E2D9F2D6D2D51
:100DC0007C2D0E94DA368E2D9F2D6D2D7C2D0E945C
:100DD000DA368E2D9F2D6D2D7C2D0E94DA368E2DCC
:100DE0009F2D6D2D7C2D0E94DA368E2D9F2D6D2D21
:100DF0007C2D0E94DA368E2D9F2D6D2D7C2D0E942C
:100E0000DA368E2D9F2D6D2D7C2D0E94DA368E2D9B
:100E10009F2D6D2D7C2D0E94DA368E2D9F2D6D2DF0
:100E20007C2D0E94DA368E2D9F2D6D2D7C2D0E94FB
:100E3000DA368E2D9F2D6D2D7C2D0E94DA368E2D6B
:100E40009F2D6D2D7C2D0E94DA368E2D9F2D6D2DC0
:100E50007C2D0E94DA368E2D9F2D6D2D7C2D0E94CB
:100E6000DA368E2D9F2D6D2D7C2D0E94DA368E2D3B
:100E70009F2D6D2D7C2D0E94DA368E2D9F2D6D2D90
:100E80007C2D0E94DA368E2D9F2D6D2D7C2D0E949B
:100E9000DA368E2D9F2D6D2D7C2D0E94DA368E2D0B
:100EA0009F2D6D2D7C2D0E94DA368E2D9F2D6D2D60
:100EB0007C2D0E94DA368E2D9F2D6D2D7C2D0E946B
:100EC000DA368E2D9F2D6D2D7C2D0E94DA368E2DDB
:100ED0009F2D6D2D7C2D0E94DA368E2D9F2D6D2D30
:100EE0007C2D0E94DA368E2D9F2D6D2D7C2D0E943B
:100EF000DA368E2D9F2D6D2D7C2D0E94DA368E2DAB
:100F00009F2D6D2D7C2D0E94DA368E2D9F2D6D2DFF
:100F10007C2D0E94DA368E2D9F2D6D2D7C2D0E940A
:100F2000DA368E2D9F2D6D2D7C2D0E94DA368E2D7A
:100F30009F2D6D2D7C2D0E94DA368E2D9F2D6D2DCF
:100F40007C2D0E94DA368E2D9F2D6D2D7C2D0E94DA
:100F5000DA368E2D9F2D6D2D7C2D0E94DA368E2D4A
:100F60009F2D6D2D7C2D0E94DA368E2D9F2D6D2D9F
:100F70007C2D0E94DA368E2D9F2D6D2D7C2D0E94AA
:100F8000DA368E2D9F2D6D2D7C2D0E94DA368E2D1A
:100F90009F2D6D2D7C2D0E94DA368E2D9F2D6D2D6F
:100FA0007C2D0E94DA368E2D9F2D6D2D7C2D0E947A
:100FB000DA368E2D9F2D6D2D7C2D0E94DA368E2DEA
:100FC0009F2D6D2D7C2D0E94DA368E2D9F2D6D2D3F
:100FD0007C2D0E94DA368E2D9F2D6D2D7C2D0E944A
:100FE000DA368E2D9F2D6D2D7C2D0E94DA368E2DBA
:100FF0009F2D6D2D7C2D0E94DA368E2D9F2D6D2D0F
:101000007C2D0E94DA368E2D9F2D6D2D7C2D0E9419
:10101000DA368E2D9F2D6D2D7C2D0E94DA368E2D89
:101020009F2D6D2D7C2D0E94DA368E2D9F2D6D2DDE
:101030007C2D0E94DA368E2D9F2D6D2D7C2D0E94E9
:10104000DA368E2D9F2D6D2D7C2D0E94DA368E2D59
:101050009F2D6D2D7C2D0E94DA368E2D9F2D6D2DAE
:101060007C2D0E94DA368E2D9F2D6D2D7C2D0E94B9
:10107000DA368E2D9F2D6D2D7C2D0E94DA368E2D29
:101080009F2D6D2D7C2D0E94DA368E2D9F2D6D2D7E
:101090007C2D0E94DA368E2D9F2D6D2D7C2D0E9489
:1010A000DA368E2D9F2D6D2D7C2D0E94DA368E2DF9
:1010B0009F2D6D2D7C2D0E94DA368E2D9F2D6D2D4E
:1010C0007C2D0E94DA368E2D9F2D6D2D7C2D0E9459
:1010D000DA368E2D9F2D6D2D7C2D0E94DA368E2DC9
:1010E0009F2D6D2D7C2D0E94DA368E2D9F2D6D2D1E
:1010F0007C2D0E94DA36870120E0E22E21E0F22EDC
:10110000C801B7010E94DA36C801B7010E94DA3679
:10111000C801B7010E94DA36C801B7010E94DA3669
:10112000C801B7010E94DA36C801B7010E94DA3659
:10113000C801B7010E94DA36C801B7010E94DA3649
:10114000C801B7010E94DA36C801B7010E94DA3639
:10115000C801B7010E94DA36C801B7010E94DA3629
:10116000C801B7010E94DA36C801B7010E94DA3619
:10117000C801B7010E94DA36C801B7010E94DA3609
:10118000C801B7010E94DA36C801B7010E94DA36F9
:10119000C801B7010E94DA36C801B7010E94DA36E9
:1011A000C801B7010E94DA36C801B7010E94DA36D9
:1011B000C801B7010E94DA36C801B7010E94DA36C9
:1011C000C801B7010E94DA36C801B7010E94DA36B9
:1011D000C801B7010E94DA36C801B7010E94DA36A9
:1011E000C801B7010E94DA36C801B7010E94DA3699
:1011F000C801B7010E94DA36C801B7010E94DA3689
:10120000C801B7010E94DA36C801B7010E94DA3678
:10121000C801B7010E94DA36C801B7010E94DA3668
:10122000C801B7010E94DA36C801B7010E94DA3658
:10123000C801B7010E94DA36C801B7010E94DA3648
:10124000C801B7010E94DA36C801B7010E94DA3638
:10125000C801B7010E94DA36C801B7010E94DA3628
:10126000C801B7010E94DA36C801B7010E94DA3618
:10127000C801B7010E94DA36C801B7010E94DA3608
:10128000C801B7010E94DA36C801B7010E94DA36F8
:10129000C801B7010E94DA36C801B7010E94DA36E8
:1012A000C801B7010E94DA36C801B7010E94DA36D8
:1012B000C801B7010E94DA36C801B7010E94DA36C8
:1012C000C801B7010E94DA36C801B7010E94DA36B8
:1012D000C801B7010E94DA36C801B7010E94DA36A8
:1012E000C801B7010E94DA36C801B7010E94DA3698
:1012F000C801B7010E94DA36C801B7010E94DA3688
:10130000C801B7010E94DA36C801B7010E94DA3677
:10131000C801B7010E94DA36C801B7010E94DA3667
:10132000C801B7010E94DA36C801B7010E94DA3657
:10133000C801B7010E94DA36C801B7010E94DA3647
:10134000C801B7010E94DA36C801B7010E94DA3637
:10135000C801B7010E94DA36C801B7010E94DA3627
:10136000C801B7010E94DA36C801B7010E94DA3617
:10137000C801B7010E94DA36C801B7010E94DA3607
:10138000C801B7010E94DA36C801B7010E94DA36F7
:10139000C801B7010E94DA36C801B7010E94DA36E7
:1013A000C801B7010E94DA36C801B7010E94DA36D7
:1013B000C801B7010E94DA36C801B7010E94DA36C7
:1013C000C801B7010E94DA36C801B7010E94DA36B7
:1013D000C801B7010E94DA36C801B7010E94DA36A7
:1013E000C801B7010E94DA36C801B7010E94DA3697
:1013F000C801B7010E94DA36C801B7010E94DA3687
:10140000C801B7010E94DA36C801B7010E94DA3676
:10141000C801B7010E94DA36C801B7010E94DA3666
:10142000C801B7010E94DA36C801B7010E94DA3656
:10143000C801B7010E94DA36C801B7010E94DA3646
:10144000C801B7010E94DA36C801B7010E94DA3636
:10145000C801B7010E94DA36C801B7010E94DA3626
:10146000C801B7010E94DA36C801B7010E94DA3616
:10147000C801B7010E94DA36C801B7010E94DA3606
:10148000C801B7010E94DA36C801B7010E94DA36F6
:10149000C801B7010E94DA36C801B7010E94DA36E6
:1014A000C801B7010E94DA36C801B7010E94DA36D6
:1014B000C801B7010E94DA36C801B7010E94DA36C6
:1014C000C801B7010E94DA36C801B7010E94DA36B6
:1014D000C801B7010E94DA36C801B7010E94DA36A6
:1014E000C801B7010E94DA36C801B7010E94DA3696
:1014F000C801B7010E94DA36C801B7010E94DA3686
:10150000C801B7010E94DA36C801B7010E94DA3675
:10151000C801B7010E94DA36C801B7010E94DA3665
:10152000C801B7010E94DA36C801B7010E94DA3655
:10153000C801B7010E94DA36C801B7010E94DA3645
:10154000C801B7010E94DA36C801B7010E94DA3635
:10155000C801B7010E94DA36C801B7010E94DA3625
:10156000C801B7010E94DA36C801B7010E94DA3615
:10157000C801B7010E94DA36C801B7010E94DA3605
:10158000C801B7010E94DA36C801B7010E94DA36F5
:10159000C801B7010E94DA36C801B7010E94DA36E5
:1015A000C801B7010E94DA36C801B7010E94DA36D5
:1015B000C801B7010E94DA36C801B7010E94DA36C5
:1015C000C801B7010E94DA36C801B7010E94DA36B5
:1015D000C801B7010E94DA36C801B7010E94DA36A5
:1015E000C801B7010E94DA36C801B7010E94DA3695
:1015F000C801B7010E94DA36C801B7010E94DA3685
:10160000C801B7010E94DA36C801B7010E94DA3674
:10161000C801B7010E94DA36C801B7010E94DA3664
:10162000C801B7010E94DA36C801B7010E94DA3654
:10163000C801B7010E94DA36C801B7010E94DA3644
:10164000C801B7010E94DA36C801B7010E94DA3634
:10165000C801B7010E94DA36C801B7010E94DA3624
:10166000C801B7010E94DA36C801B7010E94DA3614
:10167000C801B7010E94DA36C801B7010E94DA3604
:10168000C801B7010E94DA36C801B7010E94DA36F4
:10169000C801B7010E94DA36C801B7010E94DA36E4
:1016A000C801B7010E94DA36C801B7010E94DA36D4
:1016B000C801B7010E94DA36C801B7010E94DA36C4
:1016C000C801B7010E94DA36C801B7010E94DA36B4
:1016D000C801B7010E94DA36C801B7010E94DA36A4
:1016E000C801B7010E94DA36C801B7010E94DA3694
:1016F000C801B7010E94DA36C801B7010E94DA3684
:10170000C801B7010E94DA36C801B7010E94DA3673
:10171000C801B7010E94DA36C801B7010E94DA3663
:10172000C801B7010E94DA36C801B7010E94DA3653
:10173000C801B7010E94DA36C801B7010E94DA3643
:10174000D02EC12E8D2D9C2D6E2D7F2D0E94DA3630
:101750008D2D9C2D6E2D7F2D0E94DA368D2D9C2D8A
:101760006E2D7F2D0E94DA368D2D9C2D6E2D7F2DB6
:101770000E94DA368D2D9C2D6E2D7F2D0E94DA363B
:101780008D2D9C2D6E2D7F2D0E94DA368D2D9C2D5A
:101790006E2D7F2D0E94DA368D2D9C2D6E2D7F2D86
:1017A0000E94DA368D2D9C2D6E2D7F2D0E94DA360B
:1017B0008D2D9C2D6E2D7F2D0E94DA368D2D9C2D2A
:1017C0006E2D7F2D0E94DA368D2D9C2D6E2D7F2D56
:1017D0000E94DA368D2D9C2D6E2D7F2D0E94DA36DB
:1017E0008D2D9C2D6E2D7F2D0E94DA368D2D9C2DFA
:1017F0006E2D7F2D0E94DA368D2D9C2D6E2D7F2D26
:101800000E94DA368D2D9C2D6E2D7F2D0E94DA36AA
:101810008D2D9C2D6E2D7F2D0E94DA368D2D9C2DC9
:101820006E2D7F2D0E94DA368D2D9C2D6E2D7F2DF5
:101830000E94DA368D2D9C2D6E2D7F2D0E94DA367A
:101840008D2D9C2D6E2D7F2D0E94DA368D2D9C2D99
:101850006E2D7F2D0E94DA368D2D9C2D6E2D7F2DC5
:101860000E94DA368D2D9C2D6E2D7F2D0E94DA364A
:101870008D2D9C2D6E2D7F2D0E94DA368D2D9C2D69
:101880006E2D7F2D0E94DA368D2D9C2D6E2D7F2D95
:101890000E94DA368D2D9C2D6E2D7F2D0E94DA361A
:1018A0008D2D9C2D6E2D7F2D0E94DA368D2D9C2D39
:1018B0006E2D7F2D0E94DA368D2D9C2D6E2D7F2D65
:1018C0000E94DA368D2D9C2D6E2D7F2D0E94DA36EA
:1018D0008D2D9C2D6E2D7F2D0E94DA368D2D9C2D09
:1018E0006E2D7F2D0E94DA368D2D9C2D6E2D7F2D35
:1018F0000E94DA368D2D9C2D6E2D7F2D0E94DA36BA
:101900008D2D9C2D6E2D7F2D0E94DA368D2D9C2DD8
:101910006E2D7F2D0E94DA368D2D9C2D6E2D7F2D04
:101920000E94DA368D2D9C2D6E2D7F2D0E94DA3689
:101930008D2D9C2D6E2D7F2D0E94DA368D2D9C2DA8
:101940006E2D7F2D0E94DA368D2D9C2D6E2D7F2DD4
:101950000E94DA368D2D9C2D6E2D7F2D0E94DA3659
:101960008D2D9C2D6E2D7F2D0E94DA368D2D9C2D78
:101970006E2D7F2D0E94DA368D2D9C2D6E2D7F2DA4
:101980000E94DA368D2D9C2D6E2D7F2D0E94DA3629
:101990008D2D9C2D6E2D7F2D0E94DA368D2D9C2D48
:1019A0006E2D7F2D0E94DA368D2D9C2D6E2D7F2D74
:1019B0000E94DA368D2D9C2D6E2D7F2D0E94DA36F9
:1019C0008D2D9C2D6E2D7F2D0E94DA368D2D9C2D18
:1019D0006E2D7F2D0E94DA368D2D9C2D6E2D7F2D44
:1019E0000E94DA368D2D9C2D6E2D7F2D0E94DA36C9
:1019F0008D2D9C2D6E2D7F2D0E94DA368D2D9C2DE8
:101A00006E2D7F2D0E94DA368D2D9C2D6E2D7F2D13
:101A10000E94DA368D2D9C2D6E2D7F2D0E94DA3698
:101A20008D2D9C2D6E2D7F2D0E94DA368D2D9C2DB7
:101A30006E2D7F2D0E94DA368D2D9C2D6E2D7F2DE3
:101A40000E94DA368D2D9C2D6E2D7F2D0E94DA3668
:101A50008D2D9C2D6E2D7F2D0E94DA368D2D9C2D87
:101A60006E2D7F2D0E94DA368D2D9C2D6E2D7F2DB3
:101A70000E94DA368D2D9C2D6E2D7F2D0E94DA3638
:101A80008D2D9C2D6E2D7F2D0E94DA368D2D9C2D57
:101A90006E2D7F2D0E94DA368D2D9C2D6E2D7F2D83
:101AA0000E94DA368D2D9C2D6E2D7F2D0E94DA3608
:101AB0008D2D9C2D6E2D7F2D0E94DA368D2D9C2D27
:101AC0006E2D7F2D0E94DA368D2D9C2D6E2D7F2D53
:101AD0000E94DA368D2D9C2D6E2D7F2D0E94DA36D8
:101AE0008D2D9C2D6E2D7F2D0E94DA368D2D9C2DF7
:101AF0006E2D7F2D0E94DA368D2D9C2D6E2D7F2D23
:101B00000E94DA368D2D9C2D6E2D7F2D0E94DA36A7
:101B10008D2D9C2D6E2D7F2D0E94DA368D2D9C2DC6
:101B20006E2D7F2D0E94DA368D2D9C2D6E2D7F2DF2
:101B30000E94DA368D2D9C2D6E2D7F2D0E94DA3677
:101B40008D2D9C2D6E2D7F2D0E94DA368D2D9C2D96
:101B50006E2D7F2D0E94DA368D2D9C2D6E2D7F2DC2
:101B60000E94DA368D2D9C2D6E2D7F2D0E94DA3647
:101B70008D2D9C2D6E2D7F2D0E94DA368D2D9C2D66
:101B80006E2D7F2D0E94DA368D2D9C2D6E2D7F2D92
:101B90000E94DA368D2D9C2D6E2D7F2D0E94DA3617
:101BA0008D2D9C2D6E2D7F2D0E94DA368D2D9C2D36
:101BB0006E2D7F2D0E94DA368D2D9C2D6E2D7F2D62
:101BC0000E94DA368D2D9C2D6E2D7F2D0E94DA36E7
:101BD0008D2D9C2D6E2D7F2D0E94DA368D2D9C2D06
:101BE0006E2D7F2D0E94DA368D2D9C2D6E2D7F2D32
:101BF0000E94DA368D2D9C2D6E2D7F2D0E94DA36B7
:101C00008D2D9C2D6E2D7F2D0E94DA368D2D9C2DD5
:101C10006E2D7F2D0E94DA368D2D9C2D6E2D7F2D01
:101C20000E94DA368D2D9C2D6E2D7F2D0E94DA3686
:101C30008D2D9C2D6E2D7F2D0E94DA368D2D9C2DA5
:101C40006E2D7F2D0E94DA368D2D9C2D6E2D7F2DD1
:101C50000E94DA368D2D9C2D6E2D7F2D0E94DA3656
:101C60008D2D9C2D6E2D7F2D0E94DA368D2D9C2D75
:101C70006E2D7F2D0E94DA368D2D9C2D6E2D7F2DA1
:101C80000E94DA368D2D9C2D6E2D7F2D0E94DA3626
:101C90008D2D9C2D6E2D7F2D0E94DA368D2D9C2D45
:101CA0006E2D7F2D0E94DA368D2D9C2D6E2D7F2D71
:101CB0000E94DA368D2D9C2D6E2D7F2D0E94DA36F6
:101CC0008D2D9C2D6E2D7F2D0E94DA368D2D9C2D15
:101CD0006E2D7F2D0E94DA368D2D9C2D6E2D7F2D41
:101CE0000E94DA368D2D9C2D6E2D7F2D0E94DA36C6
:101CF0008D2D9C2D6E2D7F2D0E94DA368D2D9C2DE5
:101D00006E2D7F2D0E94DA368D2D9C2D6E2D7F2D10
:101D10000E94DA368D2D9C2D6E2D7F2D0E94DA3695
:101D20008D2D9C2D6E2D7F2D0E94DA368D2D9C2DB4
:101D30006E2D7F2D0E94DA368D2D9C2D6E2D7F2DE0
:101D40000E94DA368D2D9C2D6E2D7F2D0E94DA3665
:101D50008D2D9C2D6E2D7F2D0E94DA368D2D9C2D84
:101D60006E2D7F2D0E94DA368D2D9C2D6E2D7F2DB0
:101D70000E94DA368D2D9C2D6E2D7F2D0E94DA3635
:101D80008D2D9C2D6E2D7F2D0E94DA368D2D9C2D54
:101D90006E2D7F2D0E94DA368D2D9C2D6E2D7F2D80
:101DA0000E94DA368D2D9C2D6E2D7F2D0E94DA3605
:101DB0008D2D9C2D6E2D7F2D0E94DA368D2D9C2D24
:101DC0006E2D7F2D0E94DA368D2D9C2D6E2D7F2D50
:101DD0000E94DA368D2D9C2D6E2D7F2D0E94DA36D5
:101DE0008D2D9C2D6E2D7F2D0E94DA368D2D9C2DF4
:101DF0006E2D7F2D0E94DA368D2D9C2D6E2D7F2D20
:101E00000E94DA368D2D9C2D6E2D7F2D0E94DA36A4
:101E10008D2D9C2D6E2D7F2D0E94DA368D2D9C2DC3
:101E20006E2D7F2D0E94DA368D2D9C2D6E2D7F2DEF
:101E30000E94DA368D2D9C2D6E2D7F2D0E94DA3674
:101E40008D2D9C2D6E2D7F2D0E94DA368D2D9C2D93
:101E50006E2D7F2D0E94DA368D2D9C2D6E2D7F2DBF
:101E60000E94DA368D2D9C2D6E2D7F2D0E94DA3644
:101E70008D2D9C2D6E2D7F2D0E94DA368D2D9C2D63
:101E80006E2D7F2D0E94DA368D2D9C2D6E2D7F2D8F
:101E90000E94DA368D2D9C2D6E2D7F2D0E94DA3614
:101EA0008D2D9C2D6E2D7F2D0E94DA368D2D9C2D33
:101EB0006E2D7F2D0E94DA368D2D9C2D6E2D7F2D5F
:101EC0000E94DA368D2D9C2D6E2D7F2D0E94DA36E4
:101ED0008D2D9C2D6E2D7F2D0E94DA368D2D9C2D03
:101EE0006E2D7F2D0E94DA368D2D9C2D6E2D7F2D2F
:101EF0000E94DA368D2D9C2D6E2D7F2D0E94DA36B4
:101F00008D2D9C2D6E2D7F2D0E94DA368D2D9C2DD2
:101F10006E2D7F2D0E94DA368D2D9C2D6E2D7F2DFE
:101F20000E94DA368D2D9C2D6E2D7F2D0E94DA3683
:101F30008D2D9C2D6E2D7F2D0E94DA368D2D9C2DA2
:101F40006E2D7F2D0E94DA368D2D9C2D6E2D7F2DCE
:101F50000E94DA368D2D9C2D6E2D7F2D0E94DA3653
:101F60008D2D9C2D6E2D7F2D0E94DA368D2D9C2D72
:101F70006E2D7F2D0E94DA368D2D9C2D6E2D7F2D9E
:101F80000E94DA368D2D9C2D6E2D7F2D0E94DA3623
:101F90008D2D9C2D6E2D7F2D0E94DA368D2D9C2D42
:101FA0006E2D7F2D0E94DA368D2D9C2D6E2D7F2D6E
:101FB0000E94DA368D2D9C2D6E2D7F2D0E94DA36F3
:101FC0008D2D9C2D6E2D7F2D0E94DA368D2D9C2D12
:101FD0006E2D7F2D0E94DA368D2D9C2D6E2D7F2D3E
:101FE0000E94DA368D2D9C2D6E2D7F2D0E94DA36C3
:101FF0008D2D9C2D6E2D7F2D0E94DA368D2D9C2DE2
:102000006E2D7F2D0E94DA368D2D9C2D6E2D7F2D0D
:102010000E94DA368D2D9C2D6E2D7F2D0E94DA3692
:102020008D2D9C2D6E2D7F2D0E94DA368D2D9C2DB1
:102030006E2D7F2D0E94DA368D2D9C2D6E2D7F2DDD
:102040000E94DA368D2D9C2D6E2D7F2D0E94DA3662
:102050008D2D9C2D6E2D7F2D0E94DA368D2D9C2D81
:102060006E2D7F2D0E94DA368D2D9C2D6E2D7F2DAD
:102070000E94DA368D2D9C2D6E2D7F2D0E94DA3632
:102080008D2D9C2D6E2D7F2D0E94DA368D2D9C2D51
:102090006E2D7F2D0E94DA368D2D9C2D6E2D7F2D7D
:1020A0000E94DA368D2D9C2D6E2D7F2D0E94DA3602
:1020B00003E312E0C801B7010E94DA36C801B70194
:1020C0000E94DA36C801B7010E94DA36C801B701AA
:1020D0000E94DA36C801B7010E94DA36C801B7019A
:1020E0000E94DA36C801B7010E94DA36C801B7018A
:1020F0000E94DA36C801B7010E94DA36C801B7017A
:102100000E94DA36C801B7010E94DA36C801B70169
:102110000E94DA36C801B7010E94DA36C801B70159
:102120000E94DA36C801B7010E94DA36C801B70149
:102130000E94DA36C801B7010E94DA36C801B70139
:102140000E94DA36C801B7010E94DA36C801B70129
:102150000E94DA36C801B7010E94DA36C801B70119
:102160000E94DA36C801B7010E94DA36C801B70109
:102170000E94DA36C801B7010E94DA36C801B701F9
:102180000E94DA36C801B7010E94DA36C801B701E9
:102190000E94DA36C801B7010E94DA36C801B701D9
:1021A0000E94DA36C801B7010E94DA36C801B701C9
:1021B0000E94DA36C801B7010E94DA36C801B701B9
:1021C0000E94DA36C801B7010E94DA36C801B701A9
:1021D0000E94DA36C801B7010E94DA36C801B70199
:1021E0000E94DA36C801B7010E94DA36C801B70189
:1021F0000E94DA36C801B7010E94DA36C801B70179
:102200000E94DA36C801B7010E94DA36C801B70168
:102210000E94DA36C801B7010E94DA36C801B70158
:102220000E94DA36C801B7010E94DA36C801B70148
:102230000E94DA36C801B7010E94DA36C801B70138
:102240000E94DA36C801B7010E94DA36C801B70128
:102250000E94DA36C801B7010E94DA36C801B70118
:102260000E94DA36C801B7010E94DA36C801B70108
:102270000E94DA36C801B7010E94DA36C801B701F8
:102280000E94DA36C801B7010E94DA36C801B701E8
:102290000E94DA36C801B7010E94DA36C801B701D8
:1022A0000E94DA36C801B7010E94DA36C801B701C8
:1022B0000E94DA36C801B7010E94DA36C801B701B8
:1022C0000E94DA36C801B7010E94DA36C801B701A8
:1022D0000E94DA36C801B7010E94DA36C801B70198
:1022E0000E94DA36C801B7010E94DA36C801B70188
:1022F0000E94DA36C801B7010E94DA36C801B70178
:102300000E94DA36C801B7010E94DA36C801B70167
:102310000E94DA36C801B7010E94DA36C801B70157
:102320000E94DA36C801B7010E94DA36C801B70147
:102330000E94DA36C801B7010E94DA36C801B70137
:102340000E94DA36C801B7010E94DA36C801B70127
:102350000E94DA36C801B7010E94DA36C801B70117
:102360000E94DA36C801B7010E94DA36C801B70107
:102370000E94DA36C801B7010E94DA36C801B701F7
:102380000E94DA36C801B7010E94DA36C801B701E7
:102390000E94DA36C801B7010E94DA36C801B701D7
:1023A0000E94DA36C801B7010E94DA36C801B701C7
:1023B0000E94DA36C801B7010E94DA36C801B701B7
:1023C0000E94DA36C801B7010E94DA36C801B701A7
:1023D0000E94DA36C801B7010E94DA36C801B70197
:1023E0000E94DA36C801B7010E94DA36C801B70187
:1023F0000E94DA36C801B7010E94DA36C801B70177
:102400000E94DA36C801B7010E94DA36C801B70166
:102410000E94DA36C801B7010E94DA36C801B70156
:102420000E94DA36C801B7010E94DA36C801B70146
:102430000E94DA36C801B7010E94DA36C801B70136
:102440000E94DA36C801B7010E94DA36C801B70126
:102450000E94DA36C801B7010E94DA36C801B70116
:102460000E94DA36C801B7010E94DA36C801B70106
:102470000E94DA36C801B7010E94DA36C801B701F6
:102480000E94DA36C801B7010E94DA36C801B701E6
:102490000E94DA36C801B7010E94DA36C801B701D6
:1024A0000E94DA36C801B7010E94DA36C801B701C6
:1024B0000E94DA36C801B7010E94DA36C801B701B6
:1024C0000E94DA36C801B7010E94DA36C801B701A6
:1024D0000E94DA36C801B7010E94DA36C801B70196
:1024E0000E94DA36C801B7010E94DA36C801B70186
:1024F0000E94DA36C801B7010E94DA36C801B70176
:102500000E94DA36C801B7010E94DA36C801B70165
:102510000E94DA36C801B7010E94DA36C801B70155
:102520000E94DA36C801B7010E94DA36C801B70145
:102530000E94DA36C801B7010E94DA36C801B70135
:102540000E94DA36C801B7010E94DA36C801B70125
:102550000E94DA36C801B7010E94DA36C801B70115
:102560000E94DA36C801B7010E94DA36C801B70105
:102570000E94DA36C801B7010E94DA36C801B701F5
:102580000E94DA36C801B7010E94DA36C801B701E5
:102590000E94DA36C801B7010E94DA36C801B701D5
:1025A0000E94DA36C801B7010E94DA36C801B701C5
:1025B0000E94DA36C801B7010E94DA36C801B701B5
:1025C0000E94DA36C801B7010E94DA36C801B701A5
:1025D0000E94DA36C801B7010E94DA36C801B70195
:1025E0000E94DA36C801B7010E94DA36C801B70185
:1025F0000E94DA36C801B7010E94DA36C801B70175
:102600000E94DA36C801B7010E94DA36C801B70164
:102610000E94DA36C801B7010E94DA36C801B70154
:102620000E94DA36C801B7010E94DA36C801B70144
:102630000E94DA36C801B7010E94DA36C801B70134
:102640000E94DA36C801B7010E94DA36C801B70124
:102650000E94DA36C801B7010E94DA36C801B70114
:102660000E94DA36C801B7010E94DA36C801B70104
:102670000E94DA36C801B7010E94DA36C801B701F4
:102680000E94DA36C801B7010E94DA36C801B701E4
:102690000E94DA36C801B7010E94DA36C801B701D4
:1026A0000E94DA36C801B7010E94DA36C801B701C4
:1026B0000E94DA36C801B7010E94DA36C801B701B4
:1026C0000E94DA36C801B7010E94DA36C801B701A4
:1026D0000E94DA36C801B7010E94DA36C801B70194
:1026E0000E94DA36C801B7010E94DA36C801B70184
:1026F0000E94DA36780100E011E0C701B8010E94BB
:10270000DA36C701B8010E94DA36C701B8010E9463
:10271000DA36C701B8010E94DA36C701B8010E9453
:10272000DA36C701B8010E94DA36C701B8010E9443
:10273000DA36C701B8010E94DA36C701B8010E9433
:10274000DA36C701B8010E94DA36C701B8010E9423
:10275000DA36C701B8010E94DA36C701B8010E9413
:10276000DA36C701B8010E94DA36C701B8010E9403
:10277000DA36C701B8010E94DA36C701B8010E94F3
:10278000DA36C701B8010E94DA36C701B8010E94E3
:10279000DA36C701B8010E94DA36C701B8010E94D3
:1027A000DA36C701B8010E94DA36C701B8010E94C3
:1027B000DA36C701B8010E94DA36C701B8010E94B3
:1027C000DA36C701B8010E94DA36C701B8010E94A3
:1027D000DA36C701B8010E94DA36C701B8010E9493
:1027E000DA36C701B8010E94DA36C701B8010E9483
:1027F000DA36C701B8010E94DA36C701B8010E9473
:10280000DA36C701B8010E94DA36C701B8010E9462
:10281000DA36C701B8010E94DA36C701B8010E9452
:10282000DA36C701B8010E94DA36C701B8010E9442
:10283000DA36C701B8010E94DA36C701B8010E9432
:10284000DA36C701B8010E94DA36C701B8010E9422
:10285000DA36C701B8010E94DA36C701B8010E9412
:10286000DA36C701B8010E94DA36C701B8010E9402
:10287000DA36C701B8010E94DA36C701B8010E94F2
:10288000DA36C701B8010E94DA36C701B8010E94E2
:10289000DA36C701B8010E94DA36C701B8010E94D2
:1028A000DA36C701B8010E94DA36C701B8010E94C2
:1028B000DA36C701B8010E94DA36C701B8010E94B2
:1028C000DA36C701B8010E94DA36C701B8010E94A2
:1028D000DA36C701B8010E94DA36C701B8010E9492
:1028E000DA36C701B8010E94DA36C701B8010E9482
:1028F000DA36C701B8010E94DA36C701B8010E9472
:10290000DA36C701B8010E94DA36C701B8010E9461
:10291000DA36C701B8010E94DA36C701B8010E9451
:10292000DA36C701B8010E94DA36C701B8010E9441
:10293000DA36C701B8010E94DA36C701B8010E9431
:10294000DA36C701B8010E94DA36C701B8010E9421
:10295000DA36C701B8010E94DA36C701B8010E9411
:10296000DA36C701B8010E94DA36C701B8010E9401
:10297000DA36C701B8010E94DA36C701B8010E94F1
:10298000DA36C701B8010E94DA36C701B8010E94E1
:10299000DA36C701B8010E94DA36C701B8010E94D1
:1029A000DA36C701B8010E94DA36C701B8010E94C1
:1029B000DA36C701B8010E94DA36C701B8010E94B1
:1029C000DA36C701B8010E94DA36C701B8010E94A1
:1029D000DA36C701B8010E94DA36C701B8010E9491
:1029E000DA36C701B8010E94DA36C701B8010E9481
:1029F000DA36C701B8010E94DA36C701B8010E9471
:102A0000DA36C701B8010E94DA36C701B8010E9460
:102A1000DA36C701B8010E94DA36C701B8010E9450
:102A2000DA36C701B8010E94DA36C701B8010E9440
:102A3000DA36C701B8010E94DA36C701B8010E9430
:102A4000DA36C701B8010E94DA36C701B8010E9420
:102A5000DA36C701B8010E94DA36C701B8010E9410
:102A6000DA36C701B8010E94DA36C701B8010E9400
:102A7000DA36C701B8010E94DA36C701B8010E94F0
:102A8000DA36C701B8010E94DA36C701B8010E94E0
:102A9000DA36C701B8010E94DA36C701B8010E94D0
:102AA000DA36C701B8010E94DA36C701B8010E94C0
:102AB000DA36C701B8010E94DA36C701B8010E94B0
:102AC000DA36C701B8010E94DA36C701B8010E94A0
:102AD000DA36C701B8010E94DA36C701B8010E9490
:102AE000DA36C701B8010E94DA36C701B8010E9480
:102AF000DA36C701B8010E94DA36C701B8010E9470
:102B0000DA36C701B8010E94DA36C701B8010E945F
:102B1000DA36C701B8010E94DA36C701B8010E944F
:102B2000DA36C701B8010E94DA36C701B8010E943F
:102B3000DA36C701B8010E94DA36C701B8010E942F
:102B4000DA36C701B8010E94DA36C701B8010E941F
:102B5000DA36C701B8010E94DA36C701B8010E940F
:102B6000DA36C701B8010E94DA36C701B8010E94FF
:102B7000DA36C701B8010E94DA36C701B8010E94EF
:102B8000DA36C701B8010E94DA36C701B8010E94DF
:102B9000DA36C701B8010E94DA36C701B8010E94CF
:102BA000DA36C701B8010E94DA36C701B8010E94BF
:102BB000DA36C701B8010E94DA36C701B8010E94AF
:102BC000DA36C701B8010E94DA36C701B8010E949F
:102BD000DA36C701B8010E94DA36C701B8010E948F
:102BE000DA36C701B8010E94DA36C701B8010E947F
:102BF000DA36C701B8010E94DA36C701B8010E946F
:102C0000DA36C701B8010E94DA36C701B8010E945E
:102C1000DA36C701B8010E94DA36C701B8010E944E
:102C2000DA36C701B8010E94DA36C701B8010E943E
:102C3000DA36C701B8010E94DA36C701B8010E942E
:102C4000DA36C701B8010E94DA36C701B8010E941E
:102C5000DA36C701B8010E94DA36C701B8010E940E
:102C6000DA36C701B8010E94DA36C701B8010E94FE
:102C7000DA36C701B8010E94DA36C701B8010E94EE
:102C8000DA36C701B8010E94DA36C701B8010E94DE
:102C9000DA36C701B8010E94DA36C701B8010E94CE
:102CA000DA36C701B8010E94DA36C701B8010E94BE
:102CB000DA36C701B8010E94DA36C701B8010E94AE
:102CC000DA36C701B8010E94DA36C701B8010E949E
:102CD000DA36C701B8010E94DA36C701B8010E948E
:102CE000DA36C701B8010E94DA36C701B8010E947E
:102CF000DA36C701B8010E94DA36C701B8010E946E
:102D0000DA36C701B8010E94DA36C701B8010E945D
:102D1000DA36C701B8010E94DA36C701B8010E944D
:102D2000DA36C701B8010E94DA36C701B8010E943D
:102D3000DA36C701B8010E94DA36D02EC12EC7019B
:102D4000602F712F0E94DA368E2D9F2D6D2D7C2DD8
:102D50000E94DA368E2D9F2D6D2D7C2D0E94DA3645
:102D60008E2D9F2D6D2D7C2D0E94DA368E2D9F2D60
:102D70006D2D7C2D0E94DA368E2D9F2D6D2D7C2D94
:102D80000E94DA368E2D9F2D6D2D7C2D0E94DA3615
:102D90008E2D9F2D6D2D7C2D0E94DA368E2D9F2D30
:102DA0006D2D7C2D0E94DA368E2D9F2D6D2D7C2D64
:102DB0000E94DA368E2D9F2D6D2D7C2D0E94DA36E5
:102DC0008E2D9F2D6D2D7C2D0E94DA368E2D9F2D00
:102DD0006D2D7C2D0E94DA368E2D9F2D6D2D7C2D34
:102DE0000E94DA368E2D9F2D6D2D7C2D0E94DA36B5
:102DF0008E2D9F2D6D2D7C2D0E94DA368E2D9F2DD0
:102E00006D2D7C2D0E94DA368E2D9F2D6D2D7C2D03
:102E10000E94DA368E2D9F2D6D2D7C2D0E94DA3684
:102E20008E2D9F2D6D2D7C2D0E94DA368E2D9F2D9F
:102E30006D2D7C2D0E94DA368E2D9F2D6D2D7C2DD3
:102E40000E94DA368E2D9F2D6D2D7C2D0E94DA3654
:102E50008E2D9F2D6D2D7C2D0E94DA368E2D9F2D6F
:102E60006D2D7C2D0E94DA368E2D9F2D6D2D7C2DA3
:102E70000E94DA368E2D9F2D6D2D7C2D0E94DA3624
:102E80008E2D9F2D6D2D7C2D0E94DA368E2D9F2D3F
:102E90006D2D7C2D0E94DA368E2D9F2D6D2D7C2D73
:102EA0000E94DA368E2D9F2D6D2D7C2D0E94DA36F4
:102EB0008E2D9F2D6D2D7C2D0E94DA368E2D9F2D0F
:102EC0006D2D7C2D0E94DA368E2D9F2D6D2D7C2D43
:102ED0000E94DA368E2D9F2D6D2D7C2D0E94DA36C4
:102EE0008E2D9F2D6D2D7C2D0E94DA368E2D9F2DDF
:102EF0006D2D7C2D0E94DA368E2D9F2D6D2D7C2D13
:102F00000E94DA368E2D9F2D6D2D7C2D0E94DA3693
:102F10008E2D9F2D6D2D7C2D0E94DA368E2D9F2DAE
:102F20006D2D7C2D0E94DA368E2D9F2D6D2D7C2DE2
:102F30000E94DA368E2D9F2D6D2D7C2D0E94DA3663
:102F40008E2D9F2D6D2D7C2D0E94DA368E2D9F2D7E
:102F50006D2D7C2D0E94DA368E2D9F2D6D2D7C2DB2
:102F60000E94DA368E2D9F2D6D2D7C2D0E94DA3633
:102F70008E2D9F2D6D2D7C2D0E94DA368E2D9F2D4E
:102F80006D2D7C2D0E94DA368E2D9F2D6D2D7C2D82
:102F90000E94DA368E2D9F2D6D2D7C2D0E94DA3603
:102FA0008E2D9F2D6D2D7C2D0E94DA368E2D9F2D1E
:102FB0006D2D7C2D0E94DA368E2D9F2D6D2D7C2D52
:102FC0000E94DA368E2D9F2D6D2D7C2D0E94DA36D3
:102FD0008E2D9F2D6D2D7C2D0E94DA368E2D9F2DEE
:102FE0006D2D7C2D0E94DA368E2D9F2D6D2D7C2D22
:102FF0000E94DA368E2D9F2D6D2D7C2D0E94DA36A3
:103000008E2D9F2D6D2D7C2D0E94DA368E2D9F2DBD
:103010006D2D7C2D0E94DA368E2D9F2D6D2D7C2DF1
:103020000E94DA368E2D9F2D6D2D7C2D0E94DA3672
:103030008E2D9F2D6D2D7C2D0E94DA368E2D9F2D8D
:103040006D2D7C2D0E94DA368E2D9F2D6D2D7C2DC1
:103050000E94DA368E2D9F2D6D2D7C2D0E94DA3642
:103060008E2D9F2D6D2D7C2D0E94DA368E2D9F2D5D
:103070006D2D7C2D0E94DA368E2D9F2D6D2D7C2D91
:103080000E94DA368E2D9F2D6D2D7C2D0E94DA3612
:103090008E2D9F2D6D2D7C2D0E94DA368E2D9F2D2D
:1030A0006D2D7C2D0E94DA368E2D9F2D6D2D7C2D61
:1030B0000E94DA368E2D9F2D6D2D7C2D0E94DA36E2
:1030C0008E2D9F2D6D2D7C2D0E94DA368E2D9F2DFD
:1030D0006D2D7C2D0E94DA368E2D9F2D6D2D7C2D31
:1030E0000E94DA368E2D9F2D6D2D7C2D0E94DA36B2
:1030F0008E2D9F2D6D2D7C2D0E94DA368E2D9F2DCD
:103100006D2D7C2D0E94DA368E2D9F2D6D2D7C2D00
:103110000E94DA368E2D9F2D6D2D7C2D0E94DA3681
:103120008E2D9F2D6D2D7C2D0E94DA368E2D9F2D9C
:103130006D2D7C2D0E94DA368E2D9F2D6D2D7C2DD0
:103140000E94DA368E2D9F2D6D2D7C2D0E94DA3651
:103150008E2D9F2D6D2D7C2D0E94DA368E2D9F2D6C
:103160006D2D7C2D0E94DA368E2D9F2D6D2D7C2DA0
:103170000E94DA368E2D9F2D6D2D7C2D0E94DA3621
:103180008E2D9F2D6D2D7C2D0E94DA368E2D9F2D3C
:103190006D2D7C2D0E94DA368E2D9F2D6D2D7C2D70
:1031A0000E94DA368E2D9F2D6D2D7C2D0E94DA36F1
:1031B0008E2D9F2D6D2D7C2D0E94DA368E2D9F2D0C
:1031C0006D2D7C2D0E94DA368E2D9F2D6D2D7C2D40
:1031D0000E94DA368E2D9F2D6D2D7C2D0E94DA36C1
:1031E0008E2D9F2D6D2D7C2D0E94DA368E2D9F2DDC
:1031F0006D2D7C2D0E94DA368E2D9F2D6D2D7C2D10
:103200000E94DA368E2D9F2D6D2D7C2D0E94DA3690
:103210008E2D9F2D6D2D7C2D0E94DA368E2D9F2DAB
:103220006D2D7C2D0E94DA368E2D9F2D6D2D7C2DDF
:103230000E94DA368E2D9F2D6D2D7C2D0E94DA3660
:103240008E2D9F2D6D2D7C2D0E94DA368E2D9F2D7B
:103250006D2D7C2D0E94DA368E2D9F2D6D2D7C2DAF
:103260000E94DA368E2D9F2D6D2D7C2D0E94DA3630
:103270008E2D9F2D6D2D7C2D0E94DA368E2D9F2D4B
:103280006D2D7C2D0E94DA368E2D9F2D6D2D7C2D7F
:103290000E94DA368E2D9F2D6D2D7C2D0E94DA3600
:1032A0008E2D9F2D6D2D7C2D0E94DA368E2D9F2D1B
:1032B0006D2D7C2D0E94DA368E2D9F2D6D2D7C2D4F
:1032C0000E94DA368E2D9F2D6D2D7C2D0E94DA36D0
:1032D0008E2D9F2D6D2D7C2D0E94DA368E2D9F2DEB
:1032E0006D2D7C2D0E94DA368E2D9F2D6D2D7C2D1F
:1032F0000E94DA368E2D9F2D6D2D7C2D0E94DA36A0
:103300008E2D9F2D6D2D7C2D0E94DA368E2D9F2DBA
:103310006D2D7C2D0E94DA368E2D9F2D6D2D7C2DEE
:103320000E94DA368E2D9F2D6D2D7C2D0E94DA366F
:103330008E2D9F2D6D2D7C2D0E94DA368E2D9F2D8A
:103340006D2D7C2D0E94DA368E2D9F2D6D2D7C2DBE
:103350000E94DA368E2D9F2D6D2D7C2D0E94DA363F
:103360008E2D9F2D6D2D7C2D0E94DA368E2D9F2D5A
:103370006D2D7C2D0E94DA368E2D9F2D6D2D7C2D8E
:103380000E94DA368E2D9F2D6D2D7C2D0E94DA360F
:103390008E2D9F2D6D2D7C2D0E94DA368E2D9F2D2A
:1033A0006D2D7C2D0E94DA368E2D9F2D6D2D7C2D5E
:1033B0000E94DA368E2D9F2D6D2D7C2D0E94DA36DF
:1033C0008E2D9F2D6D2D7C2D0E94DA368E2D9F2DFA
:1033D0006D2D7C2D0E94DA368E2D9F2D6D2D7C2D2E
:1033E0000E94DA368E2D9F2D6D2D7C2D0E94DA36AF
:1033F0008E2D9F2D6D2D7C2D0E94DA368E2D9F2DCA
:103400006D2D7C2D0E94DA368E2D9F2D6D2D7C2DFD
:103410000E94DA368E2D9F2D6D2D7C2D0E94DA367E
:103420008E2D9F2D6D2D7C2D0E94DA368E2D9F2D99
:103430006D2D7C2D0E94DA368E2D9F2D6D2D7C2DCD
:103440000E94DA368E2D9F2D6D2D7C2D0E94DA364E
:103450008E2D9F2D6D2D7C2D0E94DA368E2D9F2D69
:103460006D2D7C2D0E94DA368E2D9F2D6D2D7C2D9D
:103470000E94DA368E2D9F2D6D2D7C2D0E94DA361E
:103480008E2D9F2D6D2D7C2D0E94DA368E2D9F2D39
:103490006D2D7C2D0E94DA368E2D9F2D6D2D7C2D6D
:1034A0000E94DA368E2D9F2D6D2D7C2D0E94DA36EE
:1034B0008E2D9F2D6D2D7C2D0E94DA368E2D9F2D09
:1034C0006D2D7C2D0E94DA368E2D9F2D6D2D7C2D3D
:1034D0000E94DA368E2D9F2D6D2D7C2D0E94DA36BE
:1034E0008E2D9F2D6D2D7C2D0E94DA368E2D9F2DD9
:1034F0006D2D7C2D0E94DA368E2D9F2D6D2D7C2D0D
:103500000E94DA368E2D9F2D6D2D7C2D0E94DA368D
:103510008E2D9F2D6D2D7C2D0E94DA368E2D9F2DA8
:103520006D2D7C2D0E94DA368E2D9F2D6D2D7C2DDC
:103530000E94DA368E2D9F2D6D2D7C2D0E94DA365D
:103540008E2D9F2D6D2D7C2D0E94DA368E2D9F2D78
:103550006D2D7C2D0E94DA368E2D9F2D6D2D7C2DAC
:103560000E94DA368E2D9F2D6D2D7C2D0E94DA362D
:103570008E2D9F2D6D2D7C2D0E94DA368E2D9F2D48
:103580006D2D7C2D0E94DA368E2D9F2D6D2D7C2D7C
:103590000E94DA368E2D9F2D6D2D7C2D0E94DA36FD
:1035A0008E2D9F2D6D2D7C2D0E94DA368E2D9F2D18
:1035B0006D2D7C2D0E94DA368E2D9F2D6D2D7C2D4C
:1035C0000E94DA368E2D9F2D6D2D7C2D0E94DA36CD
:1035D0008E2D9F2D6D2D7C2D0E94DA368E2D9F2DE8
:1035E0006D2D7C2D0E94DA368E2D9F2D6D2D7C2D1C
:1035F0000E94DA368E2D9F2D6D2D7C2D0E94DA369D
:103600008E2D9F2D6D2D7C2D0E94DA368E2D9F2DB7
:103610006D2D7C2D0E94DA368E2D9F2D6D2D7C2DEB
:103620000E94DA368E2D9F2D6D2D7C2D0E94DA366C
:103630008E2D9F2D6D2D7C2D0E94DA368E2D9F2D87
:103640006D2D7C2D0E94DA368E2D9F2D6D2D7C2DBB
:103650000E94DA368E2D9F2D6D2D7C2D0E94DA363C
:103660008E2D9F2D6D2D7C2D0E94DA368E2D9F2D57
:103670006D2D7C2D0E94DA368E2D9F2D6D2D7C2D8B
:103680000E94DA368E2D9F2D6D2D7C2D0E94DA360C
:103690008E2D9F2D6D2D7C2D0E94DA368E2D9F2D27
:1036A0006D2D7C2D0E94DA36870190E0E92E91E0A5
:1036B000F92EC801B7010E94DA36C801B7010E948D
:1036C000DA36C801B7010E94DA36C801B7010E9494
:1036D000DA36C801B7010E94DA36C801B7010E9484
:1036E000DA36C801B7010E94DA36C801B7010E9474
:1036F000DA36C801B7010E94DA36C801B7010E9464
:10370000DA36C801B7010E94DA36C801B7010E9453
:10371000DA36C801B7010E94DA36C801B7010E9443
:10372000DA36C801B7010E94DA36C801B7010E9433
:10373000DA36C801B7010E94DA36C801B7010E9423
:10374000DA36C801B7010E94DA36C801B7010E9413
:10375000DA36C801B7010E94DA36C801B7010E9403
:10376000DA36C801B7010E94DA36C801B7010E94F3
:10377000DA36C801B7010E94DA36C801B7010E94E3
:10378000DA36C801B7010E94DA36C801B7010E94D3
:10379000DA36C801B7010E94DA36C801B7010E94C3
:1037A000DA36C801B7010E94DA36C801B7010E94B3
:1037B000DA36C801B7010E94DA36C801B7010E94A3
:1037C000DA36C801B7010E94DA36C801B7010E9493
:1037D000DA36C801B7010E94DA36C801B7010E9483
:1037E000DA36C801B7010E94DA36C801B7010E9473
:1037F000DA36C801B7010E94DA36C801B7010E9463
:10380000DA36C801B7010E94DA36C801B7010E9452
:10381000DA36C801B7010E94DA36C801B7010E9442
:10382000DA36C801B7010E94DA36C801B7010E9432
:10383000DA36C801B7010E94DA36C801B7010E9422
:10384000DA36C801B7010E94DA36C801B7010E9412
:10385000DA36C801B7010E94DA36C801B7010E9402
:10386000DA36C801B7010E94DA36C801B7010E94F2
:10387000DA36C801B7010E94DA36C801B7010E94E2
:10388000DA36C801B7010E94DA36C801B7010E94D2
:10389000DA36C801B7010E94DA36C801B7010E94C2
:1038A000DA36C801B7010E94DA36C801B7010E94B2
:1038B000DA36C801B7010E94DA36C801B7010E94A2
:1038C000DA36C801B7010E94DA36C801B7010E9492
:1038D000DA36C801B7010E94DA36C801B7010E9482
:1038E000DA36C801B7010E94DA36C801B7010E9472
:1038F000DA36C801B7010E94DA36C801B7010E9462
:10390000DA36C801B7010E94DA36C801B7010E9451
:10391000DA36C801B7010E94DA36C801B7010E9441
:10392000DA36C801B7010E94DA36C801B7010E9431
:10393000DA36C801B7010E94DA36C801B7010E9421
:10394000DA36C801B7010E94DA36C801B7010E9411
:10395000DA36C801B7010E94DA36C801B7010E9401
:10396000DA36C801B7010E94DA36C801B7010E94F1
:10397000DA36C801B7010E94DA36C801B7010E94E1
:10398000DA36C801B7010E94DA36C801B7010E94D1
:10399000DA36C801B7010E94DA36C801B7010E94C1
:1039A000DA36C801B7010E94DA36C801B7010E94B1
:1039B000DA36C801B7010E94DA36C801B7010E94A1
:1039C000DA36C801B7010E94DA36C801B7010E9491
:1039D000DA36C801B7010E94DA36C801B7010E9481
:1039E000DA36C801B7010E94DA36C801B7010E9471
:1039F000DA36C801B7010E94DA36C801B7010E9461
:103A0000DA36C801B7010E94DA36C801B7010E9450
:103A1000DA36C801B7010E94DA36C801B7010E9440
:103A2000DA36C801B7010E94DA36C801B7010E9430
:103A3000DA36C801B7010E94DA36C801B7010E9420
:103A4000DA36C801B7010E94DA36C801B7010E9410
:103A5000DA36C801B7010E94DA36C801B7010E9400
:103A6000DA36C801B7010E94DA36C801B7010E94F0
:103A7000DA36C801B7010E94DA36C801B7010E94E0
:103A8000DA36C801B7010E94DA36C801B7010E94D0
:103A9000DA36C801B7010E94DA36C801B7010E94C0
:103AA000DA36C801B7010E94DA36C801B7010E94B0
:103AB000DA36C801B7010E94DA36C801B7010E94A0
:103AC000DA36C801B7010E94DA36C801B7010E9490
:103AD000DA36C801B7010E94DA36C801B7010E9480
:103AE000DA36C801B7010E94DA36C801B7010E9470
:103AF000DA36C801B7010E94DA36C801B7010E9460
:103B0000DA36C801B7010E94DA36C801B7010E944F
:103B1000DA36C801B7010E94DA36C801B7010E943F
:103B2000DA36C801B7010E94DA36C801B7010E942F
:103B3000DA36C801B7010E94DA36C801B7010E941F
:103B4000DA36C801B7010E94DA36C801B7010E940F
:103B5000DA36C801B7010E94DA36C801B7010E94FF
:103B6000DA36C801B7010E94DA36C801B7010E94EF
:103B7000DA36C801B7010E94DA36C801B7010E94DF
:103B8000DA36C801B7010E94DA36C801B7010E94CF
:103B9000DA36C801B7010E94DA36C801B7010E94BF
:103BA000DA36C801B7010E94DA36C801B7010E94AF
:103BB000DA36C801B7010E94DA36C801B7010E949F
:103BC000DA36C801B7010E94DA36C801B7010E948F
:103BD000DA36C801B7010E94DA36C801B7010E947F
:103BE000DA36C801B7010E94DA36C801B7010E946F
:103BF000DA36C801B7010E94DA36C801B7010E945F
:103C0000DA36C801B7010E94DA36C801B7010E944E
:103C1000DA36C801B7010E94DA36C801B7010E943E
:103C2000DA36C801B7010E94DA36C801B7010E942E
:103C3000DA36C801B7010E94DA36C801B7010E941E
:103C4000DA36C801B7010E94DA36C801B7010E940E
:103C5000DA36C801B7010E94DA36C801B7010E94FE
:103C6000DA36C801B7010E94DA36C801B7010E94EE
:103C7000DA36C801B7010E94DA36C801B7010E94DE
:103C8000DA36C801B7010E94DA36C801B7010E94CE
:103C9000DA36C801B7010E94DA36C801B7010E94BE
:103CA000DA36C801B7010E94DA36C801B7010E94AE
:103CB000DA36C801B7010E94DA36C801B7010E949E
:103CC000DA36C801B7010E94DA36C801B7010E948E
:103CD000DA36C801B7010E94DA36C801B7010E947E
:103CE000DA36C801B7010E94DA36C801B7010E946E
:103CF000DA36D02EC12E8D2D9C2D6E2D7F2D0E945B
:103D0000DA368D2D9C2D6E2D7F2D0E94DA368D2D6D
:103D10009C2D6E2D7F2D0E94DA368D2D9C2D6E2DC3
:103D20007F2D0E94DA368D2D9C2D6E2D7F2D0E94C9
:103D3000DA368D2D9C2D6E2D7F2D0E94DA368D2D3D
:103D40009C2D6E2D7F2D0E94DA368D2D9C2D6E2D93
:103D50007F2D0E94DA368D2D9C2D6E2D7F2D0E9499
:103D6000DA368D2D9C2D6E2D7F2D0E94DA368D2D0D
:103D70009C2D6E2D7F2D0E94DA368D2D9C2D6E2D63
:103D80007F2D0E94DA368D2D9C2D6E2D7F2D0E9469
:103D9000DA368D2D9C2D6E2D7F2D0E94DA368D2DDD
:103DA0009C2D6E2D7F2D0E94DA368D2D9C2D6E2D33
:103DB0007F2D0E94DA368D2D9C2D6E2D7F2D0E9439
:103DC000DA368D2D9C2D6E2D7F2D0E94DA368D2DAD
:103DD0009C2D6E2D7F2D0E94DA368D2D9C2D6E2D03
:103DE0007F2D0E94DA368D2D9C2D6E2D7F2D0E9409
:103DF000DA368D2D9C2D6E2D7F2D0E94DA368D2D7D
:103E00009C2D6E2D7F2D0E94DA368D2D9C2D6E2DD2
:103E10007F2D0E94DA368D2D9C2D6E2D7F2D0E94D8
:103E2000DA368D2D9C2D6E2D7F2D0E94DA368D2D4C
:103E30009C2D6E2D7F2D0E94DA368D2D9C2D6E2DA2
:103E40007F2D0E94DA368D2D9C2D6E2D7F2D0E94A8
:103E5000DA368D2D9C2D6E2D7F2D0E94DA368D2D1C
:103E60009C2D6E2D7F2D0E94DA368D2D9C2D6E2D72
:103E70007F2D0E94DA368D2D9C2D6E2D7F2D0E9478
:103E8000DA368D2D9C2D6E2D7F2D0E94DA368D2DEC
:103E90009C2D6E2D7F2D0E94DA368D2D9C2D6E2D42
:103EA0007F2D0E94DA368D2D9C2D6E2D7F2D0E9448
:103EB000DA368D2D9C2D6E2D7F2D0E94DA368D2DBC
:103EC0009C2D6E2D7F2D0E94DA368D2D9C2D6E2D12
:103ED0007F2D0E94DA368D2D9C2D6E2D7F2D0E9418
:103EE000DA368D2D9C2D6E2D7F2D0E94DA368D2D8C
:103EF0009C2D6E2D7F2D0E94DA368D2D9C2D6E2DE2
:103F00007F2D0E94DA368D2D9C2D6E2D7F2D0E94E7
:103F1000DA368D2D9C2D6E2D7F2D0E94DA368D2D5B
:103F20009C2D6E2D7F2D0E94DA368D2D9C2D6E2DB1
:103F30007F2D0E94DA368D2D9C2D6E2D7F2D0E94B7
:103F4000DA368D2D9C2D6E2D7F2D0E94DA368D2D2B
:103F50009C2D6E2D7F2D0E94DA368D2D9C2D6E2D81
:103F60007F2D0E94DA368D2D9C2D6E2D7F2D0E9487
:103F7000DA368D2D9C2D6E2D7F2D0E94DA368D2DFB
:103F80009C2D6E2D7F2D0E94DA368D2D9C2D6E2D51
:103F90007F2D0E94DA368D2D9C2D6E2D7F2D0E9457
:103FA000DA368D2D9C2D6E2D7F2D0E94DA368D2DCB
:103FB0009C2D6E2D7F2D0E94DA368D2D9C2D6E2D21
:103FC0007F2D0E94DA368D2D9C2D6E2D7F2D0E9427
:103FD000DA368D2D9C2D6E2D7F2D0E94DA368D2D9B
:103FE0009C2D6E2D7F2D0E94DA368D2D9C2D6E2DF1
:103FF0007F2D0E94DA368D2D9C2D6E2D7F2D0E94F7
:10400000DA368D2D9C2D6E2D7F2D0E94DA368D2D6A
:104010009C2D6E2D7F2D0E94DA368D2D9C2D6E2DC0
:104020007F2D0E94DA368D2D9C2D6E2D7F2D0E94C6
:10403000DA368D2D9C2D6E2D7F2D0E94DA368D2D3A
:104040009C2D6E2D7F2D0E94DA368D2D9C2D6E2D90
:104050007F2D0E94DA368D2D9C2D6E2D7F2D0E9496
:10406000DA368D2D9C2D6E2D7F2D0E94DA368D2D0A
:104070009C2D6E2D7F2D0E94DA368D2D9C2D6E2D60
:104080007F2D0E94DA368D2D9C2D6E2D7F2D0E9466
:10409000DA368D2D9C2D6E2D7F2D0E94DA368D2DDA
:1040A0009C2D6E2D7F2D0E94DA368D2D9C2D6E2D30
:1040B0007F2D0E94DA368D2D9C2D6E2D7F2D0E9436
:1040C000DA368D2D9C2D6E2D7F2D0E94DA368D2DAA
:1040D0009C2D6E2D7F2D0E94DA368D2D9C2D6E2D00
:1040E0007F2D0E94DA368D2D9C2D6E2D7F2D0E9406
:1040F000DA368D2D9C2D6E2D7F2D0E94DA368D2D7A
:104100009C2D6E2D7F2D0E94DA368D2D9C2D6E2DCF
:104110007F2D0E94DA368D2D9C2D6E2D7F2D0E94D5
:10412000DA368D2D9C2D6E2D7F2D0E94DA368D2D49
:104130009C2D6E2D7F2D0E94DA368D2D9C2D6E2D9F
:104140007F2D0E94DA368D2D9C2D6E2D7F2D0E94A5
:10415000DA368D2D9C2D6E2D7F2D0E94DA368D2D19
:104160009C2D6E2D7F2D0E94DA368D2D9C2D6E2D6F
:104170007F2D0E94DA368D2D9C2D6E2D7F2D0E9475
:10418000DA368D2D9C2D6E2D7F2D0E94DA368D2DE9
:104190009C2D6E2D7F2D0E94DA368D2D9C2D6E2D3F
:1041A0007F2D0E94DA368D2D9C2D6E2D7F2D0E9445
:1041B000DA368D2D9C2D6E2D7F2D0E94DA368D2DB9
:1041C0009C2D6E2D7F2D0E94DA368D2D9C2D6E2D0F
:1041D0007F2D0E94DA368D2D9C2D6E2D7F2D0E9415
:1041E000DA368D2D9C2D6E2D7F2D0E94DA368D2D89
:1041F0009C2D6E2D7F2D0E94DA368D2D9C2D6E2DDF
:104200007F2D0E94DA368D2D9C2D6E2D7F2D0E94E4
:10421000DA368D2D9C2D6E2D7F2D0E94DA368D2D58
:104220009C2D6E2D7F2D0E94DA368D2D9C2D6E2DAE
:104230007F2D0E94DA368D2D9C2D6E2D7F2D0E94B4
:10424000DA368D2D9C2D6E2D7F2D0E94DA368D2D28
:104250009C2D6E2D7F2D0E94DA368D2D9C2D6E2D7E
:104260007F2D0E94DA368D2D9C2D6E2D7F2D0E9484
:10427000DA368D2D9C2D6E2D7F2D0E94DA368D2DF8
:104280009C2D6E2D7F2D0E94DA368D2D9C2D6E2D4E
:104290007F2D0E94DA368D2D9C2D6E2D7F2D0E9454
:1042A000DA368D2D9C2D6E2D7F2D0E94DA368D2DC8
:1042B0009C2D6E2D7F2D0E94DA368D2D9C2D6E2D1E
:1042C0007F2D0E94DA368D2D9C2D6E2D7F2D0E9424
:1042D000DA368D2D9C2D6E2D7F2D0E94DA368D2D98
:1042E0009C2D6E2D7F2D0E94DA368D2D9C2D6E2DEE
:1042F0007F2D0E94DA368D2D9C2D6E2D7F2D0E94F4
:10430000DA368D2D9C2D6E2D7F2D0E94DA368D2D67
:104310009C2D6E2D7F2D0E94DA368D2D9C2D6E2DBD
:104320007F2D0E94DA368D2D9C2D6E2D7F2D0E94C3
:10433000DA368D2D9C2D6E2D7F2D0E94DA368D2D37
:104340009C2D6E2D7F2D0E94DA368D2D9C2D6E2D8D
:104350007F2D0E94DA368D2D9C2D6E2D7F2D0E9493
:10436000DA368D2D9C2D6E2D7F2D0E94DA368D2D07
:104370009C2D6E2D7F2D0E94DA368D2D9C2D6E2D5D
:104380007F2D0E94DA368D2D9C2D6E2D7F2D0E9463
:10439000DA368D2D9C2D6E2D7F2D0E94DA368D2DD7
:1043A0009C2D6E2D7F2D0E94DA368D2D9C2D6E2D2D
:1043B0007F2D0E94DA368D2D9C2D6E2D7F2D0E9433
:1043C000DA368D2D9C2D6E2D7F2D0E94DA368D2DA7
:1043D0009C2D6E2D7F2D0E94DA368D2D9C2D6E2DFD
:1043E0007F2D0E94DA368D2D9C2D6E2D7F2D0E9403
:1043F000DA368D2D9C2D6E2D7F2D0E94DA368D2D77
:104400009C2D6E2D7F2D0E94DA368D2D9C2D6E2DCC
:104410007F2D0E94DA368D2D9C2D6E2D7F2D0E94D2
:10442000DA368D2D9C2D6E2D7F2D0E94DA368D2D46
:104430009C2D6E2D7F2D0E94DA368D2D9C2D6E2D9C
:104440007F2D0E94DA368D2D9C2D6E2D7F2D0E94A2
:10445000DA368D2D9C2D6E2D7F2D0E94DA368D2D16
:104460009C2D6E2D7F2D0E94DA368D2D9C2D6E2D6C
:104470007F2D0E94DA368D2D9C2D6E2D7F2D0E9472
:10448000DA368D2D9C2D6E2D7F2D0E94DA368D2DE6
:104490009C2D6E2D7F2D0E94DA368D2D9C2D6E2D3C
:1044A0007F2D0E94DA368D2D9C2D6E2D7F2D0E9442
:1044B000DA368D2D9C2D6E2D7F2D0E94DA368D2DB6
:1044C0009C2D6E2D7F2D0E94DA368D2D9C2D6E2D0C
:1044D0007F2D0E94DA368D2D9C2D6E2D7F2D0E9412
:1044E000DA368D2D9C2D6E2D7F2D0E94DA368D2D86
:1044F0009C2D6E2D7F2D0E94DA368D2D9C2D6E2DDC
:104500007F2D0E94DA368D2D9C2D6E2D7F2D0E94E1
:10451000DA368D2D9C2D6E2D7F2D0E94DA368D2D55
:104520009C2D6E2D7F2D0E94DA368D2D9C2D6E2DAB
:104530007F2D0E94DA368D2D9C2D6E2D7F2D0E94B1
:10454000DA368D2D9C2D6E2D7F2D0E94DA368D2D25
:104550009C2D6E2D7F2D0E94DA368D2D9C2D6E2D7B
:104560007F2D0E94DA368D2D9C2D6E2D7F2D0E9481
:10457000DA368D2D9C2D6E2D7F2D0E94DA368D2DF5
:104580009C2D6E2D7F2D0E94DA368D2D9C2D6E2D4B
:104590007F2D0E94DA368D2D9C2D6E2D7F2D0E9451
:1045A000DA368D2D9C2D6E2D7F2D0E94DA368D2DC5
:1045B0009C2D6E2D7F2D0E94DA368D2D9C2D6E2D1B
:1045C0007F2D0E94DA368D2D9C2D6E2D7F2D0E9421
:1045D000DA368D2D9C2D6E2D7F2D0E94DA368D2D95
:1045E0009C2D6E2D7F2D0E94DA368D2D9C2D6E2DEB
:1045F0007F2D0E94DA368D2D9C2D6E2D7F2D0E94F1
:10460000DA368D2D9C2D6E2D7F2D0E94DA368D2D64
:104610009C2D6E2D7F2D0E94DA368D2D9C2D6E2DBA
:104620007F2D0E94DA368D2D9C2D6E2D7F2D0E94C0
:10463000DA368D2D9C2D6E2D7F2D0E94DA368D2D34
:104640009C2D6E2D7F2D0E94DA368D2D9C2D6E2D8A
:104650007F2D0E94DA368D2D9C2D6E2D7F2D0E9490
:10466000DA3603E312E0C801B7010E94DA36C80166
:10467000B7010E94DA36C801B7010E94DA36C801D4
:10468000B7010E94DA36C801B7010E94DA36C801C4
:10469000B7010E94DA36C801B7010E94DA36C801B4
:1046A000B7010E94DA36C801B7010E94DA36C801A4
:1046B000B7010E94DA36C801B7010E94DA36C80194
:1046C000B7010E94DA36C801B7010E94DA36C80184
:1046D000B7010E94DA36C801B7010E94DA36C80174
:1046E000B7010E94DA36C801B7010E94DA36C80164
:1046F000B7010E94DA36C801B7010E94DA36C80154
:10470000B7010E94DA36C801B7010E94DA36C80143
:10471000B7010E94DA36C801B7010E94DA36C80133
:10472000B7010E94DA36C801B7010E94DA36C80123
:10473000B7010E94DA36C801B7010E94DA36C80113
:10474000B7010E94DA36C801B7010E94DA36C80103
:10475000B7010E94DA36C801B7010E94DA36C801F3
:10476000B7010E94DA36C801B7010E94DA36C801E3
:10477000B7010E94DA36C801B7010E94DA36C801D3
:10478000B7010E94DA36C801B7010E94DA36C801C3
:10479000B7010E94DA36C801B7010E94DA36C801B3
:1047A000B7010E94DA36C801B7010E94DA36C801A3
:1047B000B7010E94DA36C801B7010E94DA36C80193
:1047C000B7010E94DA36C801B7010E94DA36C80183
:1047D000B7010E94DA36C801B7010E94DA36C80173
:1047E000B7010E94DA36C801B7010E94DA36C80163
:1047F000B7010E94DA36C801B7010E94DA36C80153
:10480000B7010E94DA36C801B7010E94DA36C80142
:10481000B7010E94DA36C801B7010E94DA36C80132
:10482000B7010E94DA36C801B7010E94DA36C80122
:10483000B7010E94DA36C801B7010E94DA36C80112
:10484000B7010E94DA36C801B7010E94DA36C80102
:10485000B7010E94DA36C801B7010E94DA36C801F2
:10486000B7010E94DA36C801B7010E94DA36C801E2
:10487000B7010E94DA36C801B7010E94DA36C801D2
:10488000B7010E94DA36C801B7010E94DA36C801C2
:10489000B7010E94DA36C801B7010E94DA36C801B2
:1048A000B7010E94DA36C801B7010E94DA36C801A2
:1048B000B7010E94DA36C801B7010E94DA36C80192
:1048C000B7010E94DA36C801B7010E94DA36C80182
:1048D000B7010E94DA36C801B7010E94DA36C80172
:1048E000B7010E94DA36C801B7010E94DA36C80162
:1048F000B7010E94DA36C801B7010E94DA36C80152
:10490000B7010E94DA36C801B7010E94DA36C80141
:10491000B7010E94DA36C801B7010E94DA36C80131
:10492000B7010E94DA36C801B7010E94DA36C80121
:10493000B7010E94DA36C801B7010E94DA36C80111
:10494000B7010E94DA36C801B7010E94DA36C80101
:10495000B7010E94DA36C801B7010E94DA36C801F1
:10496000B7010E94DA36C801B7010E94DA36C801E1
:10497000B7010E94DA36C801B7010E94DA36C801D1
:10498000B7010E94DA36C801B7010E94DA36C801C1
:10499000B7010E94DA36C801B7010E94DA36C801B1
:1049A000B7010E94DA36C801B7010E94DA36C801A1
:1049B000B7010E94DA36C801B7010E94DA36C80191
:1049C000B7010E94DA36C801B7010E94DA36C80181
:1049D000B7010E94DA36C801B7010E94DA36C80171
:1049E000B7010E94DA36C801B7010E94DA36C80161
:1049F000B7010E94DA36C801B7010E94DA36C80151
:104A0000B7010E94DA36C801B7010E94DA36C80140
:104A1000B7010E94DA36C801B7010E94DA36C80130
:104A2000B7010E94DA36C801B7010E94DA36C80120
:104A3000B7010E94DA36C801B7010E94DA36C80110
:104A4000B7010E94DA36C801B7010E94DA36C80100
:104A5000B7010E94DA36C801B7010E94DA36C801F0
:104A6000B7010E94DA36C801B7010E94DA36C801E0
:104A7000B7010E94DA36C801B7010E94DA36C801D0
:104A8000B7010E94DA36C801B7010E94DA36C801C0
:104A9000B7010E94DA36C801B7010E94DA36C801B0
:104AA000B7010E94DA36C801B7010E94DA36C801A0
:104AB000B7010E94DA36C801B7010E94DA36C80190
:104AC000B7010E94DA36C801B7010E94DA36C80180
:104AD000B7010E94DA36C801B7010E94DA36C80170
:104AE000B7010E94DA36C801B7010E94DA36C80160
:104AF000B7010E94DA36C801B7010E94DA36C80150
:104B0000B7010E94DA36C801B7010E94DA36C8013F
:104B1000B7010E94DA36C801B7010E94DA36C8012F
:104B2000B7010E94DA36C801B7010E94DA36C8011F
:104B3000B7010E94DA36C801B7010E94DA36C8010F
:104B4000B7010E94DA36C801B7010E94DA36C801FF
:104B5000B7010E94DA36C801B7010E94DA36C801EF
:104B6000B7010E94DA36C801B7010E94DA36C801DF
:104B7000B7010E94DA36C801B7010E94DA36C801CF
:104B8000B7010E94DA36C801B7010E94DA36C801BF
:104B9000B7010E94DA36C801B7010E94DA36C801AF
:104BA000B7010E94DA36C801B7010E94DA36C8019F
:104BB000B7010E94DA36C801B7010E94DA36C8018F
:104BC000B7010E94DA36C801B7010E94DA36C8017F
:104BD000B7010E94DA36C801B7010E94DA36C8016F
:104BE000B7010E94DA36C801B7010E94DA36C8015F
:104BF000B7010E94DA36C801B7010E94DA36C8014F
:104C0000B7010E94DA36C801B7010E94DA36C8013E
:104C1000B7010E94DA36C801B7010E94DA36C8012E
:104C2000B7010E94DA36C801B7010E94DA36C8011E
:104C3000B7010E94DA36C801B7010E94DA36C8010E
:104C4000B7010E94DA36C801B7010E94DA36C801FE
:104C5000B7010E94DA36C801B7010E94DA36C801EE
:104C6000B7010E94DA36C801B7010E94DA36C801DE
:104C7000B7010E94DA36C801B7010E94DA36C801CE
:104C8000B7010E94DA36C801B7010E94DA36C801BE
:104C9000B7010E94DA36C801B7010E94DA36C801AE
:104CA000B7010E94DA36780100E011E0C701B801CF
:104CB0000E94DA36C701B8010E94DA36C701B8018E
:104CC0000E94DA36C701B8010E94DA36C701B8017E
:104CD0000E94DA36C701B8010E94DA36C701B8016E
:104CE0000E94DA36C701B8010E94DA36C701B8015E
:104CF0000E94DA36C701B8010E94DA36C701B8014E
:104D00000E94DA36C701B8010E94DA36C701B8013D
:104D10000E94DA36C701B8010E94DA36C701B8012D
:104D20000E94DA36C701B8010E94DA36C701B8011D
:104D30000E94DA36C701B8010E94DA36C701B8010D
:104D40000E94DA36C701B8010E94DA36C701B801FD
:104D50000E94DA36C701B8010E94DA36C701B801ED
:104D60000E94DA36C701B8010E94DA36C701B801DD
:104D70000E94DA36C701B8010E94DA36C701B801CD
:104D80000E94DA36C701B8010E94DA36C701B801BD
:104D90000E94DA36C701B8010E94DA36C701B801AD
:104DA0000E94DA36C701B8010E94DA36C701B8019D
:104DB0000E94DA36C701B8010E94DA36C701B8018D
:104DC0000E94DA36C701B8010E94DA36C701B8017D
:104DD0000E94DA36C701B8010E94DA36C701B8016D
:104DE0000E94DA36C701B8010E94DA36C701B8015D
:104DF0000E94DA36C701B8010E94DA36C701B8014D
:104E00000E94DA36C701B8010E94DA36C701B8013C
:104E10000E94DA36C701B8010E94DA36C701B8012C
:104E20000E94DA36C701B8010E94DA36C701B8011C
:104E30000E94DA36C701B8010E94DA36C701B8010C
:104E40000E94DA36C701B8010E94DA36C701B801FC
:104E50000E94DA36C701B8010E94DA36C701B801EC
:104E60000E94DA36C701B8010E94DA36C701B801DC
:104E70000E94DA36C701B8010E94DA36C701B801CC
:104E80000E94DA36C701B8010E94DA36C701B801BC
:104E90000E94DA36C701B8010E94DA36C701B801AC
:104EA0000E94DA36C701B8010E94DA36C701B8019C
:104EB0000E94DA36C701B8010E94DA36C701B8018C
:104EC0000E94DA36C701B8010E94DA36C701B8017C
:104ED0000E94DA36C701B8010E94DA36C701B8016C
:104EE0000E94DA36C701B8010E94DA36C701B8015C
:104EF0000E94DA36C701B8010E94DA36C701B8014C
:104F00000E94DA36C701B8010E94DA36C701B8013B
:104F10000E94DA36C701B8010E94DA36C701B8012B
:104F20000E94DA36C701B8010E94DA36C701B8011B
:104F30000E94DA36C701B8010E94DA36C701B8010B
:104F40000E94DA36C701B8010E94DA36C701B801FB
:104F50000E94DA36C701B8010E94DA36C701B801EB
:104F60000E94DA36C701B8010E94DA36C701B801DB
:104F70000E94DA36C701B8010E94DA36C701B801CB
:104F80000E94DA36C701B8010E94DA36C701B801BB
:104F90000E94DA36C701B8010E94DA36C701B801AB
:104FA0000E94DA36C701B8010E94DA36C701B8019B
:104FB0000E94DA36C701B8010E94DA36C701B8018B
:104FC0000E94DA36C701B8010E94DA36C701B8017B
:104FD0000E94DA36C701B8010E94DA36C701B8016B
:104FE0000E94DA36C701B8010E94DA36C701B8015B
:104FF0000E94DA36C701B8010E94DA36C701B8014B
:105000000E94DA36C701B8010E94DA36C701B8013A
:105010000E94DA36C701B8010E94DA36C701B8012A
:105020000E94DA36C701B8010E94DA36C701B8011A
:105030000E94DA36C701B8010E94DA36C701B8010A
:105040000E94DA36C701B8010E94DA36C701B801FA
:105050000E94DA36C701B8010E94DA36C701B801EA
:105060000E94DA36C701B8010E94DA36C701B801DA
:105070000E94DA36C701B8010E94DA36C701B801CA
:105080000E94DA36C701B8010E94DA36C701B801BA
:105090000E94DA36C701B8010E94DA36C701B801AA
:1050A0000E94DA36C701B8010E94DA36C701B8019A
:1050B0000E94DA36C701B8010E94DA36C701B8018A
:1050C0000E94DA36C701B8010E94DA36C701B8017A
:1050D0000E94DA36C701B8010E94DA36C701B8016A
:1050E0000E94DA36C701B8010E94DA36C701B8015A
:1050F0000E94DA36C701B8010E94DA36C701B8014A
:105100000E94DA36C701B8010E94DA36C701B80139
:105110000E94DA36C701B8010E94DA36C701B80129
:105120000E94DA36C701B8010E94DA36C701B80119
:105130000E94DA36C701B8010E94DA36C701B80109
:105140000E94DA36C701B8010E94DA36C701B801F9
:105150000E94DA36C701B8010E94DA36C701B801E9
:105160000E94DA36C701B8010E94DA36C701B801D9
:105170000E94DA36C701B8010E94DA36C701B801C9
:105180000E94DA36C701B8010E94DA36C701B801B9
:105190000E94DA36C701B8010E94DA36C701B801A9
:1051A0000E94DA36C701B8010E94DA36C701B80199
:1051B0000E94DA36C701B8010E94DA36C701B80189
:1051C0000E94DA36C701B8010E94DA36C701B80179
:1051D0000E94DA36C701B8010E94DA36C701B80169
:1051E0000E94DA36C701B8010E94DA36C701B80159
:1051F0000E94DA36C701B8010E94DA36C701B80149
:105200000E94DA36C701B8010E94DA36C701B80138
:105210000E94DA36C701B8010E94DA36C701B80128
:105220000E94DA36C701B8010E94DA36C701B80118
:105230000E94DA36C701B8010E94DA36C701B80108
:105240000E94DA36C701B8010E94DA36C701B801F8
:105250000E94DA36C701B8010E94DA36C701B801E8
:105260000E94DA36C701B8010E94DA36C701B801D8
:105270000E94DA36C701B8010E94DA36C701B801C8
:105280000E94DA36C701B8010E94DA36C701B801B8
:105290000E94DA36C701B8010E94DA36C701B801A8
:1052A0000E94DA36C701B8010E94DA36C701B80198
:1052B0000E94DA36C701B8010E94DA36C701B80188
:1052C0000E94DA36C701B8010E94DA36C701B80178
:1052D0000E94DA36C701B8010E94DA36C701B80168
:1052E0000E94DA36C701B8010E94DA36D02EC12EEC
:1052F000C701602F712F0E94DA368E2D9F2D6D2DE4
:105300007C2D0E94DA368E2D9F2D6D2D7C2D0E94D6
:10531000DA368E2D9F2D6D2D7C2D0E94DA368E2D46
:105320009F2D6D2D7C2D0E94DA368E2D9F2D6D2D9B
:105330007C2D0E94DA368E2D9F2D6D2D7C2D0E94A6
:10534000DA368E2D9F2D6D2D7C2D0E94DA368E2D16
:105350009F2D6D2D7C2D0E94DA368E2D9F2D6D2D6B
:105360007C2D0E94DA368E2D9F2D6D2D7C2D0E9476
:10537000DA368E2D9F2D6D2D7C2D0E94DA368E2DE6
:105380009F2D6D2D7C2D0E94DA368E2D9F2D6D2D3B
:105390007C2D0E94DA368E2D9F2D6D2D7C2D0E9446
:1053A000DA368E2D9F2D6D2D7C2D0E94DA368E2DB6
:1053B0009F2D6D2D7C2D0E94DA368E2D9F2D6D2D0B
:1053C0007C2D0E94DA368E2D9F2D6D2D7C2D0E9416
:1053D000DA368E2D9F2D6D2D7C2D0E94DA368E2D86
:1053E0009F2D6D2D7C2D0E94DA368E2D9F2D6D2DDB
:1053F0007C2D0E94DA368E2D9F2D6D2D7C2D0E94E6
:10540000DA368E2D9F2D6D2D7C2D0E94DA368E2D55
:105410009F2D6D2D7C2D0E94DA368E2D9F2D6D2DAA
:105420007C2D0E94DA368E2D9F2D6D2D7C2D0E94B5
:10543000DA368E2D9F2D6D2D7C2D0E94DA368E2D25
:105440009F2D6D2D7C2D0E94DA368E2D9F2D6D2D7A
:105450007C2D0E94DA368E2D9F2D6D2D7C2D0E9485
:10546000DA368E2D9F2D6D2D7C2D0E94DA368E2DF5
:105470009F2D6D2D7C2D0E94DA368E2D9F2D6D2D4A
:105480007C2D0E94DA368E2D9F2D6D2D7C2D0E9455
:10549000DA368E2D9F2D6D2D7C2D0E94DA368E2DC5
:1054A0009F2D6D2D7C2D0E94DA368E2D9F2D6D2D1A
:1054B0007C2D0E94DA368E2D9F2D6D2D7C2D0E9425
:1054C000DA368E2D9F2D6D2D7C2D0E94DA368E2D95
:1054D0009F2D6D2D7C2D0E94DA368E2D9F2D6D2DEA
:1054E0007C2D0E94DA368E2D9F2D6D2D7C2D0E94F5
:1054F000DA368E2D9F2D6D2D7C2D0E94DA368E2D65
:105500009F2D6D2D7C2D0E94DA368E2D9F2D6D2DB9
:105510007C2D0E94DA368E2D9F2D6D2D7C2D0E94C4
:10552000DA368E2D9F2D6D2D7C2D0E94DA368E2D34
:105530009F2D6D2D7C2D0E94DA368E2D9F2D6D2D89
:105540007C2D0E94DA368E2D9F2D6D2D7C2D0E9494
:10555000DA368E2D9F2D6D2D7C2D0E94DA368E2D04
:105560009F2D6D2D7C2D0E94DA368E2D9F2D6D2D59
:105570007C2D0E94DA368E2D9F2D6D2D7C2D0E9464
:10558000DA368E2D9F2D6D2D7C2D0E94DA368E2DD4
:105590009F2D6D2D7C2D0E94DA368E2D9F2D6D2D29
:1055A0007C2D0E94DA368E2D9F2D6D2D7C2D0E9434
:1055B000DA368E2D9F2D6D2D7C2D0E94DA368E2DA4
:1055C0009F2D6D2D7C2D0E94DA368E2D9F2D6D2DF9
:1055D0007C2D0E94DA368E2D9F2D6D2D7C2D0E9404
:1055E000DA368E2D9F2D6D2D7C2D0E94DA368E2D74
:1055F0009F2D6D2D7C2D0E94DA368E2D9F2D6D2DC9
:105600007C2D0E94DA368E2D9F2D6D2D7C2D0E94D3
:10561000DA368E2D9F2D6D2D7C2D0E94DA368E2D43
:105620009F2D6D2D7C2D0E94DA368E2D9F2D6D2D98
:105630007C2D0E94DA368E2D9F2D6D2D7C2D0E94A3
:10564000DA368E2D9F2D6D2D7C2D0E94DA368E2D13
:105650009F2D6D2D7C2D0E94DA368E2D9F2D6D2D68
:105660007C2D0E94DA368E2D9F2D6D2D7C2D0E9473
:10567000DA368E2D9F2D6D2D7C2D0E94DA368E2DE3
:105680009F2D6D2D7C2D0E94DA368E2D9F2D6D2D38
:105690007C2D0E94DA368E2D9F2D6D2D7C2D0E9443
:1056A000DA368E2D9F2D6D2D7C2D0E94DA368E2DB3
:1056B0009F2D6D2D7C2D0E94DA368E2D9F2D6D2D08
:1056C0007C2D0E94DA368E2D9F2D6D2D7C2D0E9413
:1056D000DA368E2D9F2D6D2D7C2D0E94DA368E2D83
:1056E0009F2D6D2D7C2D0E94DA368E2D9F2D6D2DD8
:1056F0007C2D0E94DA368E2D9F2D6D2D7C2D0E94E3
:10570000DA368E2D9F2D6D2D7C2D0E94DA368E2D52
:105710009F2D6D2D7C2D0E94DA368E2D9F2D6D2DA7
:105720007C2D0E94DA368E2D9F2D6D2D7C2D0E94B2
:10573000DA368E2D9F2D6D2D7C2D0E94DA368E2D22
:105740009F2D6D2D7C2D0E94DA368E2D9F2D6D2D77
:105750007C2D0E94DA368E2D9F2D6D2D7C2D0E9482
:10576000DA368E2D9F2D6D2D7C2D0E94DA368E2DF2
:105770009F2D6D2D7C2D0E94DA368E2D9F2D6D2D47
:105780007C2D0E94DA368E2D9F2D6D2D7C2D0E9452
:10579000DA368E2D9F2D6D2D7C2D0E94DA368E2DC2
:1057A0009F2D6D2D7C2D0E94DA368E2D9F2D6D2D17
:1057B0007C2D0E94DA368E2D9F2D6D2D7C2D0E9422
:1057C000DA368E2D9F2D6D2D7C2D0E94DA368E2D92
:1057D0009F2D6D2D7C2D0E94DA368E2D9F2D6D2DE7
:1057E0007C2D0E94DA368E2D9F2D6D2D7C2D0E94F2
:1057F000DA368E2D9F2D6D2D7C2D0E94DA368E2D62
:105800009F2D6D2D7C2D0E94DA368E2D9F2D6D2DB6
:105810007C2D0E94DA368E2D9F2D6D2D7C2D0E94C1
:10582000DA368E2D9F2D6D2D7C2D0E94DA368E2D31
:105830009F2D6D2D7C2D0E94DA368E2D9F2D6D2D86
:105840007C2D0E94DA368E2D9F2D6D2D7C2D0E9491
:10585000DA368E2D9F2D6D2D7C2D0E94DA368E2D01
:105860009F2D6D2D7C2D0E94DA368E2D9F2D6D2D56
:105870007C2D0E94DA368E2D9F2D6D2D7C2D0E9461
:10588000DA368E2D9F2D6D2D7C2D0E94DA368E2DD1
:105890009F2D6D2D7C2D0E94DA368E2D9F2D6D2D26
:1058A0007C2D0E94DA368E2D9F2D6D2D7C2D0E9431
:1058B000DA368E2D9F2D6D2D7C2D0E94DA368E2DA1
:1058C0009F2D6D2D7C2D0E94DA368E2D9F2D6D2DF6
:1058D0007C2D0E94DA368E2D9F2D6D2D7C2D0E9401
:1058E000DA368E2D9F2D6D2D7C2D0E94DA368E2D71
:1058F0009F2D6D2D7C2D0E94DA368E2D9F2D6D2DC6
:105900007C2D0E94DA368E2D9F2D6D2D7C2D0E94D0
:10591000DA368E2D9F2D6D2D7C2D0E94DA368E2D40
:105920009F2D6D2D7C2D0E94DA368E2D9F2D6D2D95
:105930007C2D0E94DA368E2D9F2D6D2D7C2D0E94A0
:10594000DA368E2D9F2D6D2D7C2D0E94DA368E2D10
:105950009F2D6D2D7C2D0E94DA368E2D9F2D6D2D65
:105960007C2D0E94DA368E2D9F2D6D2D7C2D0E9470
:10597000DA368E2D9F2D6D2D7C2D0E94DA368E2DE0
:105980009F2D6D2D7C2D0E94DA368E2D9F2D6D2D35
:105990007C2D0E94DA368E2D9F2D6D2D7C2D0E9440
:1059A000DA368E2D9F2D6D2D7C2D0E94DA368E2DB0
:1059B0009F2D6D2D7C2D0E94DA368E2D9F2D6D2D05
:1059C0007C2D0E94DA368E2D9F2D6D2D7C2D0E9410
:1059D000DA368E2D9F2D6D2D7C2D0E94DA368E2D80
:1059E0009F2D6D2D7C2D0E94DA368E2D9F2D6D2DD5
:1059F0007C2D0E94DA368E2D9F2D6D2D7C2D0E94E0
:105A0000DA368E2D9F2D6D2D7C2D0E94DA368E2D4F
:105A10009F2D6D2D7C2D0E94DA368E2D9F2D6D2DA4
:105A20007C2D0E94DA368E2D9F2D6D2D7C2D0E94AF
:105A3000DA368E2D9F2D6D2D7C2D0E94DA368E2D1F
:105A40009F2D6D2D7C2D0E94DA368E2D9F2D6D2D74
:105A50007C2D0E94DA368E2D9F2D6D2D7C2D0E947F
:105A6000DA368E2D9F2D6D2D7C2D0E94DA368E2DEF
:105A70009F2D6D2D7C2D0E94DA368E2D9F2D6D2D44
:105A80007C2D0E94DA368E2D9F2D6D2D7C2D0E944F
:105A9000DA368E2D9F2D6D2D7C2D0E94DA368E2DBF
:105AA0009F2D6D2D7C2D0E94DA368E2D9F2D6D2D14
:105AB0007C2D0E94DA368E2D9F2D6D2D7C2D0E941F
:105AC000DA368E2D9F2D6D2D7C2D0E94DA368E2D8F
:105AD0009F2D6D2D7C2D0E94DA368E2D9F2D6D2DE4
