:100000000C9472000C948B000C948B000C948B005D
:100010000C948B000C948B000C948B000C948B0034
:100020000C948B000C948B000C948B000C948B0024
:100030000C948B000C948B000C948B000C948B0014
:100040000C948B000C948B000C948B000C948B0004
:100050000C948B000C948B000C948B000C948B00F4
:100060000C948B000C948B000C948B000C948B00E4
:100070000C948B000C948B000C948B000C948B00D4
:100080000C948B000C948B000C948B000C948B00C4
:100090000C948B000C948B000C948B000C948B00B4
:1000A0000C948B000C948B000C948B000C948B00A4
:1000B0000C948B000C948B000C948B000C948B0094
:1000C0000C948B000C948B000C948B000C948B0084
:1000D0000C948B000C948B000C948B000C948B0074
:1000E0000C948B0011241FBECFEFD1E2DEBFCDBF39
:1000F00000E00CBF12E0A0E0B2E0E0E4F1E000E0DC
:100100000BBF02C007900D92A030B107D9F70E9433
:100110008D000C949E000C9400001092C50087E6A0
:100120008093C40088E18093C10082E08093C00086
:1001300088E58093C60080E090E00895F894FFCFB2
:00000001FF
